:100000000C94E4000C9401010C9401010C94010186
:100010000C9401010C9401010C9401010C94010158
:100020000C9401010C9401010C9401010C94010148
:100030000C9401010C9401010C9401010C94010138
:100040000C9401010C9401010C9401010C94010128
:100050000C9401010C9401010C9401010C94010118
:100060000C9401010C9401010C9401010C94010108
:100070000C9401010C9401010C9401010C940101F8
:100080000C9401010C9401010C9401010C940101E8
:10009000E501D901F7015D02C702F902D901FF02AA
:1000A000DA0394030E0416046B041C04A504CD04A7
:1000B000D9015403A4025D1762177F179B17A0177D
:1000C000A517AA17C6176E616E00696E660000401C
:1000D0007A10F35A00A0724E18090010A5D4E80057
:1000E00000E87648170000E40B54020000CA9A3B6F
:1000F000000000E1F50500008096980000004042F5
:100100000F000000A0860100000010270000000082
:10011000E803000000006400000000000A00000086
:1001200000000100000000002C76D888DC674F0832
:1001300023DFC1DFAE59E1B1B796E5E3E453C63A38
:10014000E651997696E8E6C28426EB898C9B62EDAF
:10015000407C6FFCEFBC9C9F40F2BAA56FA5F49069
:10016000055A2AF75C936B6CF9676DC11BFCE0E4E0
:100170000D47FEF520E6B500D0ED902E0300943536
:1001800077050080841E080000204E0A000000C889
:100190000C333333330F986E12831141EF8D2114DA
:1001A000893BE65516CFFEE6DB18D1844B381BF7AA
:1001B0007C1D901DA4BBE424203284725E22810049
:1001C000C9F124ECA1E53D2711241FBECFEFCDBF1F
:1001D000DFE3DEBF18E2A0E0B8E2E7E2FCE602C03F
:1001E00005900D92AC34B107D9F729E2ACE4B8E23E
:1001F00001C01D92AF38B207E1F70E9406010C94CE
:100200001B2B0C9400000E94121F08950E940301F2
:100210008AE396E99F938F930E947B2A87E00E944E
:100220000D1C0F900F90882361F01F928F9386E42E
:1002300096E99F938F930E94261E0F900F900F9028
:100240000F908CE498E20E94B11B80E698E29F93A5
:100250008F9389E696E99F938F930E94261E8AE6E4
:1002600098E29F938F938AE796E99F938F930E94DA
:10027000261E83E898E29F938F938EE896E99F93DA
:100280008F930E94261ECCE4D8E2ECE8F8E280814D
:100290009181228133813F932F939F938F938FE995
:1002A00096E99F938F930E94261E8CAD9DAD2EAD37
:1002B0003FAD3F932F939F938F938EEB96E99F9340
:1002C0008F930E94261EE0E9F8E2808191812281CD
:1002D00033813F932F939F938F938CED96E99F9358
:1002E0008F930E94261EE8E9F8E2808191812281A5
:1002F00033813F932F939F938F9388EF96E99F933A
:100300008F930E94261EE4E9F8E280819181228188
:1003100033814DB75EB74C5D5F4F4DBF5EBF3F93BE
:100320002F939F938F9382E197E99F938F930E94DE
:10033000261EC0909E28D0909F28E090A028F09084
:10034000A12820E030E048EC52E4C701B6010E9449
:10035000C3210E943C2254E6659FB0011124072E60
:10036000000C880B990B0E946D229B01AC01C70108
:10037000B6010E943F210E943C22C62F20E030E0BF
:100380004AE754E4C701B6010E94C3211F92CF93EC
:100390009F938F937F936F938CE297E99F938F93B3
:1003A0000E94261E10925E298DB79EB70E968DBFB5
:1003B0009EBFE0915E298E2F90E083319105C8F7B2
:1003C000FC01E85BFF4F0C947E2780E198E20E94DD
:1003D000F91C6BE779E28AE497E90E94C21D8BE77A
:1003E00099E20E94F91C82E080935E29E2CF8AE3C1
:1003F00099E20E94D11C80913F299091442989174C
:10040000C1F280934429CAE3D9E28B811F928F9372
:1004100083E697E99F938F930E94261E8C811F92FB
:100420008F9389E697E99F938F930E94261E8D8173
:100430001F928F938BE797E99F938F930E94261EBD
:10044000EF81F0E0EE0FFF1FE65DF64681818F93AE
:1004500080818F938FE697E99F938F930E94261E4A
:100460008A811F928F938AE797E99F938F930E94C7
:10047000261EEE81F0E0EE0FFF1FE05FF646818161
:100480008F9380818F9386E797E99F938F930E9444
:10049000261E89818F9388818F9380E897E99F93A7
:1004A0008F930E94261E83E080935E294DB75EB72E
:1004B000445E5F4F4DBF5EBF7CCF80916C29811140
:1004C00022C081E080936C2960E080E00E942A1DB8
:1004D00046E058E261E080E00E94431D41E559E2B8
:1004E00061E679E280E00E94731D809154291F9299
:1004F0008F9387E897E99F938F930E94261E0F9012
:100500000F900F900F906DE579E280E00E947D1DC5
:1005100080915D291F928F9389E997E99F938F932B
:100520000E94261E80915D290F900F900F900F90D2
:10053000813031F48EB184608EB980E00E94861DD6
:1005400082E080935E2935CF80916C2981110AC0A9
:1005500081E080936C290E948E1D60E085E090E030
:100560000E94961D6DE579E281E00E947D1D8091DB
:100570005D29813041F48EB184608EB960E085E000
:1005800090E00E94961D82E080935E2912CF8091B8
:100590006629811109C081E0809366296DE679E2C0
:1005A0000E940D1D0E94221DCDE6D9E28B811F9273
:1005B0008F9387EA97E99F938F930E94261E8C81E1
:1005C0001F928F9386EB97E99F938F930E94261E2D
:1005D00088851F928F938EEB97E99F938F930E944C
:1005E000261E10925E298DB79EB70C968DBF9EBFBA
:1005F000E0CE0E949F1D81E00E94A71DDACE62E638
:1006000079E28AE399E20E94AF1D809165298F9378
:10061000809164298F93809163298F9380916229BF
:100620008F9385EC97E99F938F930E94261E60918C
:10063000622970916329809164299091652945E42C
:1006400059E20E94B81DE5E4F9E2A78145813481B1
:10065000238192818681B0E0AA0FBB1FA65DB646BA
:1006600011965C9111975F935C915F931F924F93EA
:100670001F923F931F922F931F929F931F928F93CE
:1006800081818F9380818F9386ED97E99F938F93DC
:100690000E94261E82E080935E294DB75EB74A5EB7
:1006A0005F4F4DBF5EBF85CE61E070E088E090E0B7
:1006B0000E94CF278093792990937A29892B41F43E
:1006C00081E098E99F938F930E94261E0F900F90D0
:1006D0008091792990917A290E94EF1DC0E0D0E0A5
:1006E00014C0E0917929F0917A29EC0FFD1F8081E7
:1006F0001F928F938DE198E99F938F930E94261EFE
:1007000021960F900F900F900F90C830D1054CF3A9
:1007100084E897E99F938F930E94261E8CE0809334
:100720005E290F900F9045CE61E070E080E490E08C
:100730000E94CF2780934F2990935029892B41F411
:1007400081E098E99F938F930E94261E0F900F904F
:1007500060914F297091502940E450E080E20E945E
:10076000D51DC0E0D0E014C0E0914F29F091502990
:10077000EC0FFD1F80811F928F9384E298E99F9375
:100780008F930E94261E21960F900F900F900F902E
:10079000C034D1054CF384E897E99F938F930E946E
:1007A000261E80914F29909150290E9483280F90F6
:1007B0000F90FFCD61E070E080E490E00E94CF27D1
:1007C00080935F2990936029892B41F481E098E917
:1007D0009F938F930E94261E0F900F90A0915F29E8
:1007E000B0916029E0917929F0917A2988E001900F
:1007F0000D928A95E1F760915F297091602948E038
:1008000050E080E20E94CB1D80915F299091602989
:100810000E94832882E080935E29CBCD60E480E251
:100820000E94DF1D81E180935E29C3CD0E94E81DF7
:1008300089E080935E29BDCD65E070E080E090E0C6
:100840000E94231E61E070E088E090E00E94CF27C4
:100850008093772990937829892B41F481E098E956
:100860009F938F930E94261E0F900F90609177297F
:100870007091782948E050E080E00E94011EC0E0BD
:10088000D0E014C0E0917729F0917829EC0FFD1F9A
:1008900080811F928F938AE298E99F938F930E94A1
:1008A000261E21960F900F900F900F90C830D10503
:1008B0004CF384E897E99F938F930E94261E8091C2
:1008C0007729909178290E9483288FE080935E2970
:1008D0000F900F906ECD61E070E088E090E00E9494
:1008E000CF2780935B2990935C29892B41F480E387
:1008F00098E99F938F930E94261E0F900F90A091CE
:100900005B29B0915C29E0917929F0917A2988E0FE
:1009100001900D928A95E1F760915B2970915C29B5
:1009200048E050E080E00E94F71D80915B299091A3
:100930005C290E9483288091792990917A290E94CC
:1009400083288DE080935E2934CD62E679E28AE3E4
:1009500099E20E94AF1D44E062E679E280E00E94E5
:100960000B1E809165298F93809164298F938091CC
:1009700063298F93809162298F9384E598E99F93EF
:100980008F930E94261E8FE080935E290F900F9018
:100990000F900F900F900F900CCD65E070E080E00D
:1009A00090E00E94231E44E068E679E280E00E9425
:1009B000151E80916B298F9380916A298F93809166
:1009C00069298F93809168298F938AE698E99F938C
:1009D0008F930E94261E82E080935E290F900F90D5
:1009E0000F900F900F900F90E4CC0E94192180E09F
:1009F00008950E94152180E008950F931F9308C069
:100A00008FE99FE00197F1F700C00000C901B8012C
:100A10008B019C010150110921093109672B682BB9
:100A2000692B71F71F910F910895CF93DF9300D039
:100A3000CDB7DEB7698321E030E00EC0FA01E20FE6
:100A4000F31F31976081E1E0F0E0EC0FFD1FE20F52
:100A5000F31F60832F5F3F4F223031057CF3DC01B1
:100A60001696ED91FC91179742E0BE016F5F7F4FA4
:100A70001E968C910995811181E00F900F90DF9166
:100A8000CF910895DF92EF92FF920F931F93CF9330
:100A9000DF9300D0CDB7DEB78C0169837A837A010A
:100AA000D22EDC011696ED91FC91179741E0BE0124
:100AB0006F5F7F4F1E968C91099581110EC0D801F2
:100AC0001496ED91FC9115974D2DB7011E968C91C2
:100AD0000995882319F081E001C081E00F900F9003
:100AE000DF91CF911F910F91FF90EF90DF900895CC
:100AF000CF92DF92EF92FF920F931F93CF93DF93EA
:100B0000CDB7DEB7362F0DB71EB7E22EF12C6FEF43
:100B1000E61AF60AADB7BEB7AE19BF09ADBFBEBF84
:100B20006DB77EB76F5F7F4F6B0111963C93E1E02D
:100B3000F0E00AC0DA01AE0FBF1F11973C91D60159
:100B4000AE0FBF1F3C933196EE15FF059CF3DC0101
:100B50001696ED91FC91179741E0420F1F968C91EC
:100B60000995811181E00DBF1EBFDF91CF911F91CB
:100B70000F91FF90EF90DF90CF900895DF92EF926A
:100B8000FF920F931F93CF93DF9300D0CDB7DEB7C3
:100B90008C0169837A837A01D22EDC011696ED915D
:100BA000FC91179741E0BE016F5F7F4F1F968C91BC
:100BB000099581110EC0D8011496ED91FC911597FD
:100BC0004D2DB7011F968C910995882319F081E06E
:100BD00001C081E00F900F90DF91CF911F910F9195
:100BE000FF90EF90DF900895CF92DF92EF92FF9207
:100BF0000F931F93CF93DF93CDB7DEB7362F0DB78B
:100C00001EB7E22EF12CB7016F5F7F4FADB7BEB7B5
:100C1000A61BB70BADBFBEBF6DB77EB76F5F7F4F73
:100C20006B0111963C93E1E0F0E00AC0DA01AE0FEF
:100C3000BF1F11973C91D601AE0FBF1F3C93319659
:100C4000EE15FF059CF3DC011696ED91FC911797CC
:100C500041E0420F1E968C910995811181E00DBFF4
:100C60001EBFDF91CF911F910F91FF90EF90DF900A
:100C7000CF900895DC011A96ED91FC911B977F931C
:100C80006F938AE399E99F938F9309950F900F9043
:100C90000F900F9008959DEC899F912D11249695AA
:100CA0009695969520E1929FA0011124990F292FE6
:100CB000220F220F920F891B842B0895982F929553
:100CC0009F70990F292F220F220F920F8F70890F7B
:100CD0000895CF93DF93009709F468C0DC011A965A
:100CE000ED91FC911B97309709F462C0EC0188816B
:100CF0009981892B49F484E599E99F938F9309950C
:100D00000F900F9083E055C08A819B81892B49F415
:100D100086E799E99F938F9309950F900F9083E051
:100D200048C08C819D81892B49F483E999E99F937F
:100D30008F9309950F900F9083E03BC08E819F8128
:100D4000892B49F48FEA99E99F938F9309950F9026
:100D50000F9083E02EC08C859D85892B49F48CEC07
:100D600099E99F938F9309950F900F9083E021C08D
:100D700088859985892B39F488EE99E99F938F931B
:100D800009950F900F90E881F9810995882359F012
:100D9000EA85FB858CEF99E99F938F9309950F90D6
:100DA0000F9081E006C091E0998B03C082E001C002
:100DB00083E0DF91CF910895009751F0FC012189E4
:100DC000213041F42FE6268727E5278780E0089524
:100DD00082E0089583E00895009739F0FC012189AD
:100DE000213029F4608B80E0089582E0089583E04B
:100DF0000895009741F0FC012189213031F4628B84
:100E0000738B80E0089582E0089583E00895CF9287
:100E1000DF92EF92FF920F931F93CF93DF93CDB7A3
:100E2000DEB72797CDBFDEBF009709F467C0FC018E
:100E30001189113009F064C06B017C0127E0AE011B
:100E40004F5F5F4F60E070E00E944205082F809383
:100E5000B428882339F060E67AE9C7010E943A068F
:100E6000012F4FC089818F770E945E06F60185832E
:100E70008A818F770E945E06F6018483F701E25A29
:100E8000FF4F8081811107C08B818F730E945E06A6
:100E9000F601838317C08130A9F41B81812F8F71E4
:100EA0000E945E06F60183831072812F90E0959573
:100EB000879595958795959587959595879595951A
:100EC000879581878C8187700E945E06F6018783F3
:100ED0008D818F730E945E06F60182838E818F71F1
:100EE0000E945E06F60186838F810E945E0690E076
:100EF0008053984FF6018083918303C002E001C0C4
:100F000003E0802F2796CDBFDEBFDF91CF911F91E9
:100F10000F91FF90EF90DF90CF900895DF92EF92C6
:100F2000FF920F931F93CF93DF931F92CDB7DEB73E
:100F30000097C1F1FC0111891130B1F5D42E062FB3
:100F40007C0170E021E0AE014F5F5F4F0E944205DF
:100F50008093B428882331F063E77AE9C7010E94BF
:100F60003A0623C08981282F2F7BF0E4DF9EC00141
:100F70001124822B8983AE014F5F5F4F602FC70121
:100F80000E9415058093B428882331F061E97AE93D
:100F9000C7010E943A0609C0F701E25AFF4FD0820A
:100FA000182F03C012E001C013E0812F0F90DF91D2
:100FB000CF911F910F91FF90EF90DF900895CF9206
:100FC000DF92EF92FF921F93CF93DF931F92CDB7E3
:100FD000DEB7009751F1FC011189113041F56A012A
:100FE0007C0170E021E0AE014F5F5F4F0E9442053F
:100FF0008093B428882339F062EA7AE9C7010E9415
:101000003A06812F15C02981207430E0022E232F4B
:10101000000C221F330B000C221F331FF701E25A72
:10102000FF4F2083F601208303C082E001C083E0EC
:101030000F90DF91CF911F91FF90EF90DF90CF90B5
:101040000895AF92BF92DF92EF921F93CF93DF93F9
:101050001F92CDB7DEB70097A1F1FC0111891130C5
:1010600091F5E42ED62E5C0170E021E0AE014F5FD9
:101070005F4F0E9442058093B428882339F062EBC9
:101080007AE9C5010E943A06812F1EC08981282F66
:101090002F7DF0E2EF9EC0011124822B8983AE01E7
:1010A0004F5F5F4F6D2DC5010E9415058093B428D9
:1010B000882351F069ED7AE9C5010E943A06812F33
:1010C00003C082E001C083E00F90DF91CF911F91B8
:1010D000EF90DF90BF90AF900895CF92DF92EF92A4
:1010E000FF920F931F93CF93DF93CDB7DEB728976F
:1010F000CDBFDEBF009709F45DC1FC01118911303D
:1011000009F05AC16B017C01FB0180819181843619
:10111000910538F062EF7AE9C7010E943A0614E0BF
:1011200050C1FB01868181508C3038F06BE27BE945
:10113000C7010E943A0614E044C1FB01828181503C
:101140008F3138F065E67BE9C7010E943A0614E06A
:1011500038C1FB0187818150873038F06EE97BE927
:10116000C7010E943A0614E02CC1FB0184818C3334
:1011700038F06AED7BE9C7010E943A0614E021C10C
:10118000FB0185818C3338F065E17CE9C7010E9461
:101190003A0614E016C1F701E25AFF4F808181112F
:1011A0000BC0FB0183818831E0F061E57CE9C70178
:1011B0000E943A0614E005C1813061F4FB0183818D
:1011C00081508C3070F06AE87CE9C7010E943A06D1
:1011D00014E0F7C063EC7CE9C7010E943A0614E012
:1011E000F0C0AE014F5F5F4F87E0FA0111928A9520
:1011F000E9F727E060E070E0C7010E9442058093B4
:10120000B428882331F061EE7CE9C7010E943A06D8
:10121000D8C00981F60185810E944B060078802B99
:101220008887AE01485F5F4F60E0C7010E941505E7
:101230008093B428882331F068EF7CE9C7010E94CD
:101240003A06BFC0F60184810E944B068887AE0132
:10125000485F5F4F61E0C7010E9415058093B42885
:10126000882331F069E07DE9C7010E943A06A9C0F0
:10127000F701E25AFF4F8081811116C0F601838188
:101280000E944B068887AE01485F5F4F62E0C7014E
:101290000E9415058093B428882359F16AE17DE9FD
:1012A000C7010E943A068DC0813019F5F60183818D
:1012B0000E944B069B819076892B8887AE01485F00
:1012C0005F4F62E0C7010E9415058093B428882310
:1012D00031F06AE17DE9C7010E943A0672C0F60169
:1012E000418562E0C7010E9421088093B4288111E2
:1012F00065C0F60187810E944B069C819873892BFB
:101300008887AE01485F5F4F63E0C7010E94150503
:101310008093B428882331F069E27DE9C7010E94F7
:101320003A064FC0F60182810E944B068887AE01C3
:10133000485F5F4F64E0C7010E9415058093B428A1
:10134000882331F06BE37DE9C7010E943A0639C07A
:10135000F60186810E944B06082F8E8180720E94C2
:101360005E06802B8887AE01485F5F4F65E0C7014E
:101370000E9415058093B428882331F069E47DE943
:10138000C7010E943A061DC0F60180810E944B06EB
:101390008887AE01485F5F4F66E0C7010E94150570
:1013A0008093B428882361F068E57DE9C7010E9435
:1013B0003A0607C012E005C013E003C0182F01C0B1
:1013C000182F812F2896CDBFDEBFDF91CF911F91BF
:1013D0000F91FF90EF90DF90CF900895CF92DF9222
:1013E000EF92FF921F93CF93DF931F92CDB7DEB79B
:1013F000009741F1FC011189113031F56A017C013E
:1014000070E021E0AE014F5F5F4F0E944205809384
:10141000B428882339F066E67DE9C7010E943A06C0
:10142000812F13C02981207230E03595279535959D
:101430002795359527953595279535952795F60167
:10144000208303C082E001C083E00F90DF91CF9141
:101450001F91FF90EF90DF90CF900895CF92DF9291
:10146000EF921F93CF93DF931F92CDB7DEB7009714
:10147000A1F1FC011189113091F5E62E6C0121E0FA
:10148000AE014F5F5F4F60E070E00E9442058093C5
:10149000B428882339F060E87DE9C6010E943A0645
:1014A000812F1EC08981282F2F77F0E8EF9EC00181
:1014B0001124822B8983AE014F5F5F4F60E0C6012C
:1014C0000E9415058093B428882351F064EA7DE9D1
:1014D000C6010E943A06812F03C082E001C083E06A
:1014E0000F90DF91CF911F91EF90DF90CF900895F3
:1014F000CF92DF92EF92FF921F93CF93DF9300D0B2
:1015000000D0CDB7DEB7009709F47BC0FC0111898C
:10151000113009F078C06A017C018089833039F488
:1015200060E77EE9CF010E943A0614E06DC06623B1
:1015300019F06130A1F026C024E0AE014F5F5F4F8B
:1015400068E170E0CF010E9442058093B4288823AF
:1015500001F161EB7EE9C7010E943A0655C024E023
:10156000AE014F5F5F4F6CE170E0CF010E9442051A
:101570008093B428882369F06CEC7EE9C7010E944F
:101580003A0642C065EE7EE9CF010E943A0614E0B9
:101590003BC089818F770E945E06F6018483F70144
:1015A000E25AFF4F8081811107C08A818F730E94A8
:1015B0005E06F601838317C08130A9F41A81812F5A
:1015C0008F710E945E06F60183831072812F90E076
:1015D00095958795959587959595879595958795F3
:1015E0009595879581878B818F730E945E06F601A2
:1015F00082838C818F710E945E06F601868310E0E3
:1016000003C012E001C013E0812F2496CDBFDEBFDE
:10161000DF91CF911F91FF90EF90DF90CF900895D1
:101620000F931F93CF93DF9300D0CDB7DEB78C011C
:10163000FC018089833039F464E07FE9C8010E94AD
:101640003A0684E038C0AE014F5F5F4F62E0C801E8
:101650000E94DF078093B42881112DC0AE014E5F38
:101660005F4F62E0C8010E94EE098093B4288111A7
:1016700022C0498169E1C8010E948E078093B42885
:10168000811119C049816DE1C8010E948E078093C4
:10169000B428811110C04A8169E1C8010E94210863
:1016A0008093B428811107C04A816DE1C8010E946E
:1016B00021088093B4280F900F90DF91CF911F9154
:1016C0000F910895AF92BF92DF92EF921F93CF9345
:1016D000DF931F92CDB7DEB7009709F453C0FC012A
:1016E0001189113009F050C0D42EE62E5C0121E0A2
:1016F000AE014F5F5F4F67E070E00E94420580934C
:10170000B428882339F063E57FE9C5010E943A06D1
:10171000812F3BC0E1101BC08981282F2F7EF0E173
:10172000DF9EC0011124822B8983AE014F5F5F4F82
:1017300067E0C5010E9415058093B428882339F01D
:1017400069E67FE9C5010E943A06812F1EC04981E2
:10175000842F8F7D30E2D39EA0011124482B498332
:10176000AE014F5F5F4F67E0C5010E941505809392
:10177000B428882351F069E67FE9C5010E943A0642
:10178000812F03C082E001C083E00F90DF91CF91F1
:101790001F91EF90DF90BF90AF900895EF92FF926E
:1017A0000F931F93CF93DF931F92CDB7DEB70097B0
:1017B00009F46AC0FC011189113009F067C0042FD7
:1017C0007C01662319F0613069F158C021E0AE0157
:1017D0004F5F5F4F6DE070E00E9442058093B42838
:1017E000882331F06EE97FE9C7010E943A0653C0B1
:1017F0008981282F2F77F0E80F9FC0011124822BB9
:101800008983AE014F5F5F4F6DE0C7010E941505F0
:101810008093B4288823E1F16EE97FE9C7010E9433
:101820003A0639C021E0AE014F5F5F4F64E170E0DE
:101830000E9442058093B428882331F06DEB7FE944
:10184000C7010E943A0627C08981282F2F7730E8E8
:10185000039FC0011124822B8983AE014F5F5F4F2C
:1018600064E1C7010E9415058093B428882391F094
:101870006EE97FE9C7010E943A060DC06CED7FE971
:101880000E943A0614E007C012E005C013E003C04E
:10189000182F01C0182F812F0F90DF91CF911F912A
:1018A0000F91FF90EF900895CF92DF92EF92FF9209
:1018B0001F93CF93DF93CDB7DEB72897CDBFDEBFA1
:1018C000009709F438C2DC0151961C9151971130F0
:1018D00009F033C26A017C01FC01E25AFF4F8081AA
:1018E000811143C0FA01868181508C3038F063EF5A
:1018F0007FE9CD010E943A0614E028C2828181501E
:101900008F3138F063E370EAC7010E943A0614E0B1
:101910001DC2FA0187818150873038F062E770EA92
:10192000C7010E943A0614E011C28381883138F061
:1019300064EB70EAC7010E943A0614E007C2FA019C
:1019400084818C3338F063EF70EAC7010E943A0655
:1019500014E0FCC185818C3308F453C064E371EA60
:10196000C7010E943A0614E0F1C1813009F042C07B
:10197000FA0186818D3038F063EF7FE9CD010E9456
:101980003A0614E0E3C1828181508F3138F063E37D
:1019900070EAC7010E943A0614E0D8C1FA018781B3
:1019A0008150873038F062E770EAC7010E943A063A
:1019B00014E0CCC1838181508C3038F066E771EA45
:1019C000C7010E943A0614E0C1C1FA0184818C3338
:1019D00038F063EF70EAC7010E943A0614E0B6C11E
:1019E00085818C3370F064E371EAC7010E943A0686
:1019F00014E0ACC165EB71EACD010E943A0614E037
:101A0000A5C1FE01319687E0DF011D928A95E9F7B5
:101A10006111C3C026E0AF016AE070E0C7010E9417
:101A200042058093B428F60185810E944B06888781
:101A3000AE01485F5F4F6AE0C7010E9415058093C1
:101A4000B428882331F069ED71EAC7010E943A0693
:101A50007DC1D60114968C910E944B068887AE01F9
:101A6000485F5F4F6BE0C7010E9415058093B42863
:101A7000882331F062EF71EAC7010E943A0666C11D
:101A8000F701E25AFF4F8081811119C0F60183816D
:101A90000E944B069B819074892B8887AE01485F1A
:101AA0005F4F6CE0C7010E9415058093B42888231E
:101AB00061F16BE072EAC7010E943A0647C18130CA
:101AC00021F5D60113968C910E944B069B8190764E
:101AD000892B8887AE01485F5F4F6CE0C7010E9489
:101AE00015058093B428882331F06BE072EAC701B2
:101AF0000E943A062BC1F60141856CE0C7010E94A5
:101B000021088093B42881111AC1D60117968C91AF
:101B10000E944B069C81987F892B8887AE01485F85
:101B20005F4F6DE0C7010E9415058093B42888239C
:101B300031F062E272EAC7010E943A0607C1F6017B
:101B400082810E944B068887AE01485F5F4F6EE03E
:101B5000C7010E9415058093B428882331F06CE3F7
:101B600072EAC7010E943A06F1C0D60116968C911E
:101B70000E944B068887AE01485F5F4F6FE0C70148
:101B80000E9415058093B428882309F4DAC062E521
:101B900072EAC7010E943A06D9C0613009F0C4C098
:101BA00026E0AE014F5F5F4F61E170E0C7010E9428
:101BB00042058093B428F60185810E944B068887F0
:101BC000AE01485F5F4F61E1C7010E941505809338
:101BD000B428882331F069E672EAC7010E943A0608
:101BE000B5C0D60114968C910E944B068887AE0131
:101BF000485F5F4F62E1C7010E9415058093B428DA
:101C0000882331F062E872EAC7010E943A069EC05A
:101C1000F701E25AFF4F8081811119C0F6018381DB
:101C20000E944B069B819074892B8887AE01485F88
:101C30005F4F63E1C7010E9415058093B428882394
:101C400061F16BE972EAC7010E943A067FC08130F8
:101C500021F5D60113968C910E944B069B819076BC
:101C6000892B8887AE01485F5F4F63E1C7010E94FF
:101C700015058093B428882331F06BE972EAC70117
:101C80000E943A0663C0F601418563E1C7010E94E4
:101C900021088093B428811156C0D60117968C91E3
:101CA0000E944B069C81987F892B8887AE01485FF4
:101CB0005F4F64E1C7010E9415058093B428882313
:101CC00031F062EB72EAC7010E943A063FC0F601AA
:101CD00082810E944B068887AE01485F5F4F65E1B5
:101CE000C7010E9415058093B428882331F06CEC5D
:101CF00072EAC7010E943A0629C0D60116968C9155
:101D00000E944B068887AE01485F5F4F66E1C701BE
:101D10000E9415058093B4288823B9F062EE72EA18
:101D2000C7010E943A0612C06CED7FE9C7010E940C
:101D30003A0614E00BC012E009C013E007C0182FE8
:101D400005C0182F03C0182F01C0182F812F289607
:101D5000CDBFDEBFDF91CF911F91FF90EF90DF905D
:101D6000CF900895BF92CF92DF92EF92FF920F93A0
:101D70001F93CF93DF931F92CDB7DEB7009709F47F
:101D800093C0FC011189113009F090C06901042F42
:101D9000B62E7C01662329F0F1E06F1709F440C0EC
:101DA0007DC021E0AE014F5F5F4F6DE070E00E94AB
:101DB00042058093B428882331F069EF72EAC701A5
:101DC0000E943A0674C08981282F2F7830E1039F42
:101DD000C0011124822B8983AE014F5F5F4F6DE0FC
:101DE000C7010E9415058093B428882331F069EF5C
:101DF00072EAC7010E943A065AC0A6016B2DC701BC
:101E00000E94540C182F8093B428882309F44FC0E3
:101E100064E173EAC7010E943A061091B42847C0F2
:101E200021E0AE014F5F5F4F64E170E00E94420528
:101E30008093B428882331F06AE273EAC7010E94D4
:101E40003A0635C08981282F2F78E0E10E9FC00126
:101E50001124822B8983AE014F5F5F4F64E1C7017C
:101E60000E9415058093B428882331F06AE273EA52
:101E7000C7010E943A061BC0A6016B2DC7010E9434
:101E8000540C182F8093B428882389F065E473EAF2
:101E9000C7010E943A061091B42809C06CED7FE991
:101EA0000E943A0614E003C012E001C013E0812F43
:101EB0000F90DF91CF911F910F91FF90EF90DF90E6
:101EC000CF90BF900895CF92DF92EF92FF921F9331
:101ED000CF93DF93CDB7DEB72797CDBFDEBF009797
:101EE00009F487C0DC0151961C91113009F083C0C0
:101EF0006A017C01FE01319687E0DF011D928A951F
:101F0000E9F7611111C026E0AF016AE070E0C70196
:101F10000E9442058093B428882311F16BE573EA8F
:101F2000C7010E943A0668C0613099F426E0AE010C
:101F30004F5F5F4F61E170E0C7010E9442058093EF
:101F4000B428882369F066E773EAC7010E943A065D
:101F500053C06CED7FE9C7010E943A0614E04CC003
:101F600089818F770E945E06F60185838A818F774B
:101F70000E945E06D60114968C93F701E25AFF4F39
:101F80008081811107C08B818F730E945E06F601EC
:101F900083831AC08130C1F41B81812F8F710E940D
:101FA0005E06D60113968C931397812F807290E072
:101FB0009595879595958795959587959595879509
:101FC0009595879519968C938C8187700E945E06F3
:101FD000F60187838D818F730E945E06D60112966B
:101FE0008C938E818F710E945E06F601868310E0CD
:101FF00003C012E001C013E0812F2796CDBFDEBFE2
:10200000DF91CF911F91FF90EF90DF90CF900895D7
:10201000CF92DF92EF92FF920F931F93CF93DF93B4
:102020001F92CDB7DEB7009709F45BC0FC01718940
:10203000713009F058C06A01062F7C01A9010E9485
:10204000630F182F8093B428882341F061E973EA65
:10205000C7010E943A061091B42846C0011115C06C
:1020600021E0AE014F5F5F4F6DE070E0C7010E945D
:1020700042058093B428882331F163EB73EAC701EA
:102080000E943A061091B4282FC00130A9F421E033
:10209000AE014F5F5F4F64E170E0C7010E944205EF
:1020A0008093B428882379F063EB73EAC7010E9418
:1020B0003A061091B42818C06CED7FE9C7010E9460
:1020C0003A0614E011C08981807790E09595879554
:1020D000959587959595879595958795F601808334
:1020E00003C012E001C013E0812F0F90DF91CF9168
:1020F0001F910F91FF90EF90DF90CF900895CF92B6
:10210000DF92EF92FF921F93CF93DF931F92CDB791
:10211000DEB7009709F44FC0FC011189113009F0B6
:102120004CC06A017C0161111FC021E0AE014F5F0C
:102130005F4F6DE070E00E9442058093B4288823D1
:1021400039F06AEC73EAC7010E943A06812F36C063
:102150002981287030E03595279535952795359557
:102160002795F60120832AC06130F9F421E0AE0101
:102170004F5F5F4F64E170E00E9442058093B42896
:10218000882339F060EF73EAC7010E943A06812F75
:1021900015C02981287030E035952795359527950C
:1021A00035952795F601208309C06CED7FE90E94E3
:1021B0003A0684E003C082E001C083E00F90DF9123
:1021C000CF911F91FF90EF90DF90CF900895EF9205
:1021D000FF921F93CF93DF931F92CDB7DEB7009787
:1021E00009F460C0FC011189113009F05DC07C0167
:1021F000611128C021E0AE014F5F5F4F6DE070E0DC
:102200000E9442058093B428882339F066E174EA7D
:10221000C7010E943A06812F48C08981877F898340
:10222000AE014F5F5F4F6DE0C7010E9415058093BF
:10223000B4288823D1F16BE374EAC7010E943A06FF
:10224000812F33C0613041F521E0AE014F5F5F4F18
:1022500064E170E00E9442058093B428882339F03D
:102260006CE574EAC7010E943A06812F1EC089817D
:10227000877F8983AE014F5F5F4F64E1C7010E9492
:1022800015058093B428882381F061E874EAC701BA
:102290000E943A06812F09C06CED7FE90E943A0640
:1022A00084E003C082E001C083E00F90DF91CF9112
:1022B0001F91FF90EF900895CF92DF92EF921F93BE
:1022C000CF93DF931F92CDB7DEB70097A1F1FC014A
:1022D0001189113091F5E62E6C0121E0AE014F5FBE
:1022E0005F4F67E070E00E9442058093B428882326
:1022F00039F062EA74EAC6010E943A06812F1EC0D4
:102300008981282F2F77F0E8EF9EC0011124822BBE
:102310008983AE014F5F5F4F67E0C6010E941505DC
:102320008093B428882351F065EB74EAC6010E94BB
:102330003A06812F03C082E001C083E00F90DF9155
:10234000CF911F91EF90DF90CF900895CF92DF92C1
:10235000EF921F93CF93DF931F92CDB7DEB7009715
:1023600079F1FC011189113069F5E62E6C0121E04B
:10237000AE014F5F5F4F67E070E00E9442058093BF
:10238000B428882339F062EA74EAC6010E943A064A
:10239000812F19C069816C7F6E296983AE014F5FFF
:1023A0005F4F67E0C6010E9415058093B42888231B
:1023B00051F065EB74EAC6010E943A06812F03C012
:1023C00082E001C083E00F90DF91CF911F91EF90E9
:1023D000DF90CF900895CF92DF92EF921F93CF932B
:1023E000DF931F92CDB7DEB70097A1F1FC011189F1
:1023F000113091F5E62E6C0121E0AE014F5F5F4F89
:1024000067E070E00E9442058093B428882339F089
:1024100062EA74EAC6010E943A06812F1EC08981D1
:10242000282F2F7BF0E4EF9EC0011124822B89839B
:10243000AE014F5F5F4F67E0C6010E9415058093B4
:10244000B428882351F065EB74EAC6010E943A066D
:10245000812F03C082E001C083E00F90DF91CF9114
:102460001F91EF90DF90CF900895CF92DF92EF927F
:102470001F93CF93DF931F92CDB7DEB70097B1F1D3
:10248000FC0111891130A1F5E62E6C0121E0AE01AD
:102490004F5F5F4F67E070E00E9442058093B42871
:1024A000882339F062EA74EAC6010E943A06812F55
:1024B00020C08981282F2B7F8E2D90E0880F991FB7
:1024C000880F991F822B8983AE014F5F5F4F67E0B2
:1024D000C6010E9415058093B428882351F065EB4E
:1024E00074EAC6010E943A06812F03C082E001C04F
:1024F00083E00F90DF91CF911F91EF90DF90CF900D
:102500000895CF92DF92FF921F93CF93DF931F9294
:10251000CDB7DEB7009709F444C0FC011189113032
:1025200009F041C0F62E6C018089833039F465E3EF
:1025300075EACF010E943A0684E036C021E0AE0180
:102540004F5F5F4F63E070E0CF010E9442058093D0
:10255000B428882339F068E775EAC6010E943A0674
:10256000812F22C08981282F277F8F2D90E0880F0F
:10257000991F880F991F880F991F822B8983AE019D
:102580004F5F5F4F63E0C6010E9415058093B4283A
:10259000882351F063E975EAC6010E943A06812F4B
:1025A00003C082E001C083E00F90DF91CF911F91C3
:1025B000FF90DF90CF900895CF92DF92EF921F931C
:1025C000CF93DF931F92CDB7DEB70097C1F1FC0127
:1025D00011891130B1F5E62E6C0121E0AE014F5F9B
:1025E0005F4F67E070E00E9442058093B428882323
:1025F00039F068ED75EAC6010E943A06812F22C0C3
:102600008981282F277F8E2D90E0880F991F880FB2
:10261000991F880F991F822B8983AE014F5F5F4FEF
:1026200067E0C6010E9415058093B428882351F005
:1026300068ED75EAC6010E943A06812F03C082E068
:1026400001C083E00F90DF91CF911F91EF90DF9059
:10265000CF900895CF92DF92EF921F93CF93DF93A5
:102660001F92CDB7DEB70097A1F1FC01118911309F
:1026700091F5E62E6C0121E0AE014F5F5F4F60E007
:1026800070E00E9442058093B428882339F06BE003
:1026900076EAC6010E943A06812F1EC08981282F42
:1026A0002F77F0E8EF9EC0011124822B8983AE01C1
:1026B0004F5F5F4F60E0C6010E9415058093B4280C
:1026C000882351F06BE076EAC6010E943A06812F1A
:1026D00003C082E001C083E00F90DF91CF911F9192
:1026E000EF90DF90CF900895CF92DF92EF92FF921C
:1026F0000F931F93CF93DF93FB01EA01009709F437
:102700007EC0DC0151968C91813009F07AC0408105
:10271000425B068101501281115080E090E0C12C93
:10272000D12C760113C09C0123703327232B39F061
:10273000BDE6CB0EB1E0DB1EE11CF11C06C02EE6AF
:10274000C20E21E0D21EE11CF11C0196642F70E044
:102750008617970744F380E090E040E050E0BA012C
:1027600009C0DC01A352B4453C91430F511D611DCA
:10277000711D0196A02FB0E08A179B0794F3D70133
:10278000C601840F951FA61FB71F810F911DA11DA4
:10279000B11D9C01AD01215031094109510960E889
:1027A00071E581E090E00E942427438120E13EE032
:1027B000429F8001439F100D1124012E000C220B1B
:1027C000330BDC01CB01800F911FA21FB31F0481CB
:1027D0002CE3029F80011124012E000C220B330BED
:1027E000800F911FA21FB31F2581820F911DA11D74
:1027F000B11D88839983AA83BB8380E003C082E0F4
:1028000001C083E0DF91CF911F910F91FF90EF9076
:10281000DF90CF9008958F929F92AF92BF92CF9208
:10282000DF92EF92FF92CF93DF936A017B01E90180
:10283000009709F402C1FC018189813009F0FFC0D1
:10284000CB01BA0120E831E540E050E00E945C276E
:1028500020E13EE040E050E00E945C272B830F2EF9
:10286000FCE38F2E912CA12CB12CF02DA50194010D
:102870000E945C272C83C701B601A50194010E9428
:102880005C276D83C701B601605873448D46984339
:1028900020E831E541E050E00E945C27C9018758FB
:1028A0009A4F65EB75E00E943427660F771F660F1D
:1028B000771F688379839C018A3D924030F02A5DBE
:1028C00032406E5F7F4F688379832D3641E0340755
:1028D00038F02D56314088819981019688839983FB
:1028E00083E08E83223361E0360750F0225331407B
:1028F0008881998101968883998381E08E8307C0BE
:102900002939310520F02959310988E08E832A3789
:10291000310530F02A5731098E818C5F8E8308C0D3
:102920002D33310528F02D5331098E818E5F8E8332
:102930002F31310528F02F5131098E818F5F8E8321
:102940002F5F2A83E881F981E453F84FE883F98304
:102950004E81C42ED12C8EE090E08C199D096CE044
:1029600070E00E9448277B01AB01440F551F460FC2
:10297000571F440F551F440F551F4C0D5D1D4350ED
:10298000510939E9349FC001359F900D11240296F9
:1029900065E070E00E944827620F711DEE19FF0983
:1029A0008DE691E0E89FA001E99F500DF89F500D42
:1029B0001124460F571FE054FD4E9F013695279571
:1029C00036952795420F531FABE7B4E10E94842749
:1029D00096958795481B590B9F01329522952F702C
:1029E00023273F702327AEE3BAE00E948427840F99
:1029F000951FAC014D56514C9A01A3E9B4E20E94D7
:102A00008427281B390B36952795820F931F96959F
:102A10008795969587959C01220F331F220F331FB0
:102A2000220F331FF901E81BF90B9A012E1B3F0BF4
:102A3000C9018E5F8F8380E003C082E001C083E024
:102A4000DF91CF91FF90EF90DF90CF90BF90AF904C
:102A50009F908F900895EF92FF920F931F93CF93C3
:102A6000DF93CDB7DEB76397CDBFDEBF009709F424
:102A70000CC1FC018189813009F009C1FB01868903
:102A8000898387898A83848192EB980F923020F022
:102A9000843421F491E303C091E301C090E39C836B
:102AA0008A3439F4FB019581913619F496819E366A
:102AB000E1F18634E1F18D3439F4FB0195819136F1
:102AC00019F496819237A9F1813421F4FB019581A3
:102AD000903789F18D3439F4FB019581913619F4E1
:102AE0009681993751F18A3439F4FB0195819537F4
:102AF00019F496819E3619F18A3439F4FB019581D7
:102B0000953719F496819C36E1F0813421F4FB016C
:102B100095819537C1F08335C1F08F34C1F08E3483
:102B2000C1F08434C1F482E317C081E315C082E3AD
:102B300013C083E311C084E30FC085E30DC086E3B7
:102B40000BC087E309C088E307C089E305C080E3C1
:102B500003C081E301C08FE38D83FB018085803357
:102B600008F480E38F83FB018185888783858B87C9
:102B700084858C8786858E8787858F878189898BD9
:102B800082898A8B8081833531F49181953719F45C
:102B900092819E3619F18D3419F1843539F4FB0197
:102BA0009181953719F492819536E1F08735E1F0FE
:102BB000843539F4FB019181983619F49281953767
:102BC000A9F08634A9F08335A9F4FB01818181360F
:102BD00099F48281843791F08FE311C081E30FC0B3
:102BE00082E30DC083E30BC084E309C085E307C023
:102BF00086E305C08FE303C08FE301C087E38A014A
:102C00008A87CE0101960E940C29F8018083918366
:102C1000CE0104960E940C29F8018683CE01079606
:102C20000E940C29F8018283CE010A960E940C2989
:102C3000F8018783CE010B960E940C29E82EF8013B
:102C40008383CE010E960E940C29F82EF80184830E
:102C5000CE0141960E940C29F80185838D3220F423
:102C6000815F858380E014C08D52F8018583F9E38C
:102C7000FF1528F0F394F801F48280E009C0E39492
:102C8000F801E382148280E003C082E001C083E0A7
:102C90006396CDBFDEBFDF91CF911F910F91FF9063
:102CA000EF9008950F931F93CF93DF93009729F12F
:102CB000FC011189113019F5062FEC0140E060E0AC
:102CC0000E94620B8093B428882339F067E376EA88
:102CD000CE010E943A06812F13C0402F61E0CE0141
:102CE0000E94620B8093B428882351F065E676EA4F
:102CF000CE010E943A06812F03C082E001C083E02A
:102D0000DF91CF911F910F910895CF92DF92FF92A3
:102D10000F931F93CF93DF93CDB7DEB72E97CDBF21
:102D2000DEBF009709F48AC0FC012189213009F037
:102D300087C0F42E6B018C01F2E0F41730F46DE7DC
:102D400076EA0E943A0684E07CC061E00E94E710C7
:102D5000BE016F5F7F4FC8010E9407078093B428B0
:102D6000882341F064EA76EAC8010E943A0680911D
:102D7000B42867C0AE01455F5F4FBE016F5F7F4FF4
:102D8000C8010E9474138093B42881115AC081E055
:102D9000F81699F0F81620F0E2E0FE1609F135C0B9
:102DA0008B859C85AD85BE858C0D9D1DA11DB11D9E
:102DB0008B879C87AD87BE8728C08CE38C9D900154
:102DC0008D9D300D11248B859C85AD85BE85820F30
:102DD000931FA11DB11D8B879C87AD87BE8715C032
:102DE00080E19EE0C89E9001C99E300DD89E300DB6
:102DF00011248B859C85AD85BE85820F931FA11DF7
:102E0000B11D8B879C87AD87BE874B855C856D85A3
:102E10007E859E012F5F3F4FC8010E940B14809357
:102E2000B42881110EC09E012F5F3F4F47E061E043
:102E3000C8010E94B20E8093B42803C082E001C092
:102E400083E02E96CDBFDEBFDF91CF911F910F9112
:102E5000FF90DF90CF9008958F929F92AF92BF9294
:102E6000CF92DF92EF92FF920F931F93CF93DF9356
:102E7000CDB7DEB72897CDBFDEBF009709F4A2C05B
:102E8000DC0151961C91113009F09EC0FE01319673
:102E900028E0DF011D922A95E9F7FC010089802EC8
:102EA000912CF8E08F16910408F090C06B017C0122
:102EB000F401E55AFF4F0C947E276FEB76EA0E94EF
:102EC0003A0685C026E0AE014F5F5F4F62EF70E0CB
:102ED0000E94BE05182F8093B428882339F068EF2C
:102EE00076EAC7010E943A06102F71C086E0FE0103
:102EF0003196D60101900D928A95E1F768C028E0DD
:102F0000AE014F5F5F4F60EF70E00E94BE0580939F
:102F1000B428882331F068EF76EAC7010E943A06A8
:102F200056C098E0FE013196D60101900D929A9517
:102F3000E1F7182F4CC06BE077EA0E943A0647C0D1
:102F400064E477EA0E943A0642C06DE777EA0E949D
:102F50003A063DC026E0AE014F5F5F4F62EF70E082
:102F60000E94BE058093B428882331F068EF76EA8A
:102F7000C7010E943A062BC096E0FE013196D601A9
:102F800001900D929A95E1F7182F21C028E0AE012B
:102F90004F5F5F4F60EF70E00E94BE058093B428E2
:102FA000882331F068EF76EAC7010E943A060FC025
:102FB00098E0FE013196D60101900D929A95E1F7C5
:102FC000182F05C012E003C013E001C010E0812FEC
:102FD0002896CDBFDEBFDF91CF911F910F91FF905B
:102FE000EF90DF90CF90BF90AF909F908F9008951B
:102FF0001F93CF93DF930097B1F1FC01118911303A
:10300000A1F5EC0180EE860F803438F066EB77EAAC
:10301000CF010E943A0684E029C02134310538F0FE
:1030200062ED77EACF010E943A0685E01FC0C90130
:10303000860F911D80978134910538F061E078EA20
:10304000CF010E943A0685E011C0CF010E94F4052D
:103050008093B428882351F062E278EACE010E947E
:103060003A06812F03C082E001C083E0DF91CF9157
:103070001F9108951F93CF93DF930097B9F1FC013F
:1030800011891130A9F5EC0180EE860F803438F0FB
:1030900060E378EACF010E943A0684E02AC0213436
:1030A000310538F06BE478EACF010E943A0685E0FA
:1030B00020C070E0C901860F971F80978134910569
:1030C00038F069E778EACF010E943A0685E011C03E
:1030D000CF010E9442058093B428882351F069E90A
:1030E00078EACE010E943A06812F03C082E001C037
:1030F00083E0DF91CF911F910895CF92DF92EF92FD
:10310000FF920F931F93CF93DF931F92CDB7DEB73C
:1031100019820097D9F1FC0111891130C9F5042FEA
:103120006C0180EE860F803438F063EA78EACF01D4
:103130000E943A0614E02DC080EE840F803438F0EF
:1031400063EA78EACF010E943A0614E022C0E62E34
:10315000F12C15C021E0AE014F5F5F4F6E2DC6010F
:103160000E94F4058093B428882331F064ED78EA56
:10317000C6010E943A060DC0FFEFEF1AFF0A802F2A
:1031800090E08E159F0534F710E003C012E001C0F7
:1031900013E0812F0F90DF91CF911F910F91FF903E
:1031A000EF90DF90CF900895EF92FF921F93CF930F
:1031B000DF93CDB7DEB7C054D109CDBFDEBFFE016E
:1031C000319620E4DF011D922A95E9F70097B9F0C6
:1031D000FC0111891130A9F47C0120E4AE014F5F9C
:1031E0005F4F60E20E94F4058093B428882351F079
:1031F00066EE78EAC7010E943A06812F03C082E09A
:1032000001C083E0C05CDF4FCDBFDEBFDF91CF9157
:103210001F91FF90EF9008951F93CF93DF93009736
:10322000D1F1FC0111891130C1F5EC01662334F4B0
:1032300060EF78EA0E943A0684E030C0822F90E086
:10324000860F911D813891053CF060E179EACF014C
:103250000E943A0684E022C08089882331F08330BE
:1032600021F0843011F0853039F465E379EACE013C
:103270000E943A0685E012C070E0CF010E94BE05B0
:103280008093B428882351F064E779EACE010E9444
:103290003A06812F03C082E001C083E0DF91CF9125
:1032A0001F910895CF92DF92EF92FF921F93CF93D9
:1032B000DF931F92CDB7DEB71982009719F1FC0199
:1032C0001189113009F56B017C0121E0AE014F5FDE
:1032D0005F4F6FEF70E00E94BE058093B428882393
:1032E00039F060EA79EAC7010E943A06812F0DC0E1
:1032F00029812C7030E03595279535952795F60175
:10330000208303C082E001C083E00F90DF91CF9162
:103310001F91FF90EF90DF90CF900895EF92FF9272
:103320000F931F93CF93DF931F92CDB7DEB7009714
:10333000C1F1FC0111891130B1F5062F7C01BE01EC
:103340006F5F7F4F0E9452198093B428882341F009
:103350006EEB79EAC7010E943A061091B42828C0A2
:10336000F7019089992331F0933021F0943011F0D6
:10337000953039F465E379EAC7010E943A0614E012
:1033800017C09981923051F0933091F0913011F043
:10339000182F0EC0003648F0192F0AC0003438F03C
:1033A00007C012E005C013E003C0182F01C0182F9A
:1033B000812F0F90DF91CF911F910F91FF90EF9090
:1033C0000895CF92DF92FF920F931F93CF93DF93D5
:1033D0000097E9F1FC0101890130D9F5F22E6A016B
:1033E000162FEC01662334F464EE79EA0E943A0663
:1033F00084E030C0822F90E0860F911D81389105C6
:103400003CF065E07AEACF010E943A0684E022C0EF
:10341000CF010E948E198093B428882339F06BE283
:103420007AEACE010E943A0685E014C02F2DA6014B
:10343000612FCE010E9478058093B428882351F033
:1034400063E67AEACE010E943A06802F03C082E04A
:1034500001C083E0DF91CF911F910F91FF90DF902A
:10346000CF900895009731F0FC018189813021F0DF
:1034700083E0089582E0089580E80895CF92DF9276
:10348000EF92FF920F931F93CF93DF93009709F46E
:1034900066C0DC0151962C91213009F062C0E42E07
:1034A000F62E8C01C0E0D0E04DC06F2D70E09E0183
:1034B000220F331F220F331F220F331F6217730790
:1034C0000CF03FC06E0D711D072E000C880B990B80
:1034D0000E946D2220E030E040E05EE30E943A234B
:1034E0000E94AC210E943522C617D707E4F57E0161
:1034F000B1E0EB1AF108EE0CFF1CEE0CFF1CEE0C19
:10350000FF1C6701E7E0CE0ED11C6FE27BEAC80129
:103510000E943A06D8011A96ED91FC911B97DF9212
:10352000CF92FF92EF92DF93CF9381E69BEA9F9336
:103530008F930995ADB7BEB71896ADBFBEBF86E0F5
:1035400013C02196C8010E94321A869586958695E9
:1035500090E0C817D9070CF4A8CF80E005C082E03E
:1035600003C083E001C080E0DF91CF911F910F91F4
:10357000FF90EF90DF90CF9008956F927F928F929F
:103580009F92AF92BF92CF92EF920F931F93CF93E0
:10359000DF93009709F45CC0DC015196DC91D130D7
:1035A00009F058C0E22E5A01C62E3C01822E912C01
:1035B00061E070E0C4010E94CF278C01892B61F487
:1035C000D3011A96ED91FC911B9780E398E99F93A4
:1035D0008F9309950F900F90A401B501C8010E9427
:1035E0000D2A4E2D6C2DC3010E943E1AC82F8093C8
:1035F000B428811130C080E011C0282F30E0D801FC
:10360000A20FB31F9C91EE2DF0E0E21BF30B31975C
:10361000E00FF11F20812C9390838F5F9E2D969554
:10362000891758F32E2DA8016C2DC3010E94E119B2
:10363000C82F8093B428882339F065E97BEAC30159
:103640000E943A06CD2F07C0C8010E94832803C0FC
:10365000C2E001C0C3E08C2FDF91CF911F910F9189
:10366000EF90CF90BF90AF909F908F907F906F9092
:1036700008956F927F928F92AF92BF92CF92DF9216
:10368000EF92FF920F931F93CF93009709F458C0C6
:10369000FC01C189C13009F055C0022F7A01862E84
:1036A0003C01C22ED12C61E070E0C6010E94CF2700
:1036B0005C01402F682DC3010E943E1A182F809391
:1036C000B428811140C0202FA501682DC3010E949C
:1036D0000C19182F8093B4288823C9F06FE97BEA6E
:1036E000C3010E943A061C2F2EC0282F30E0D501BE
:1036F000A20FB31F9C91E02FF0E0E21BF30B319778
:10370000EA0DFB1D20812C9390838F5F01C080E028
:10371000902F9695891748F3A601B5018CEA98E297
:103720000E940D2A8091AC289091AD28A091AE28DE
:10373000B091AF28F70180839183A283B38303C044
:1037400012E001C013E0812FCF911F910F91FF90E4
:10375000EF90DF90CF90BF90AF908F907F906F9061
:103760000895CF93DF93EC014AE050E066EC7BEAEA
:1037700044960E941D2A45E050E06FEC7BEACE01A2
:10378000C7960E941D2A49E150E063ED7BEACE0115
:103790004E960E941D2AFE01E05CFF4F80E090E003
:1037A000A0EBB0E480839183A283B38386E696E6A0
:1037B000A6EABFE38CAF9DAFAEAFBFAF349680E05B
:1037C00090E0A8ECB3E480839183A283B38338961E
:1037D00080E090E0AAEAB2E480839183A283B3837D
:1037E000349780E090E0A0E2B2EC80839183A283E2
:1037F000B383389680E48083319688E08083CE5A04
:10380000DF4F80E090E0AAE7B4E488839983AA833D
:10381000BB8380E0DF91CF910895CF93C82FE5EB74
:10382000F8E280E6DF011D928A95E9F78FE19EE1DB
:103830008083918381E29EE18283938387E79EE187
:103840008683978388E69EE18483958383E29EE165
:103850008087918786E29EE18287938786E89EE152
:1038600084879587CF010E94690680931529882354
:1038700059F089EE9BEA9F938F930E94261EC09178
:1038800015290F900F908AC06C2F85EB98E20E944B
:10389000EC06C82F80931529811180C085EB98E232
:1038A0000E94DC06C82F80931529811177C061E042
:1038B00085EB98E20E942E0AC82F8093152981116A
:1038C0006DC060E085EB98E20E94E710C82F8093FE
:1038D0001529811163C061E085EB98E20E94E71031
:1038E000C82F80931529811159C040E060E085EB15
:1038F00098E20E94620BC82F8093152981114EC057
:1039000040E061E085EB98E20E94620BC82F809353
:103910001529811143C061E085EB98E20E945C119A
:10392000C82F80931529811139C060E085EB98E29A
:103930000E94EB11C82F8093152981112FC060E0E0
:1039400085EB98E20E943512C82F809315298111CA
:1039500025C060E085EB98E20E94DC12C82F8093BE
:10396000152981111BC061E085EB98E20E942A13A2
:10397000C82F80931529811111C060E470E085EB98
:1039800098E20E94F906C82F80931529811106C07C
:103990006AE070E080E090E00E94231E8C2FCF91BF
:1039A0000895BC0185EB98E20E94070780931529D2
:1039B0000895CF93C82F482F62E085EB98E20E94CC
:1039C0008E0780931529811112C04C2F69E185EB78
:1039D00098E20E948E0780931529811108C04C2F10
:1039E0006DE185EB98E20E948E0780931529CF91B7
:1039F0000895CF93DF93EC0188850E94D91C8093B2
:103A00001529811107C0BE0185EB98E20E946D085F
:103A100080931529DF91CF9108950F931F93CF9332
:103A2000C82F8B0185EB98E20E94100BA8016C2F28
:103A300085EB98E20E94780A80931529CF911F9117
:103A40000F91089561E085EB98E20E9481128093C6
:103A500015290895CF93DF93C82FD62F41E0682F03
:103A600085EB98E20E94620B80931529811108C0B2
:103A70004D2F6C2F85EB98E20E94CE0B8093152979
:103A8000DF91CF9108950F931F93CF93DF93C82FAA
:103A9000D62F8A0181110CC0FA0140856CE085EBBC
:103AA00098E20E948E0780931529882371F016C032
:103AB000813059F4FA01408563E185EB98E20E9478
:103AC0008E0780931529811109C098014D2F6C2F05
:103AD00085EB98E20E94B20E80931529DF91CF9179
:103AE0001F910F9108959A01AB01682F85EB98E221
:103AF0000E940810809315290895AB01682F85EB6B
:103B000098E20E947F10809315290895682F85EB15
:103B100098E20E94E71080931529089561E085EBF3
:103B200098E20E945216809315290895462FBC01F1
:103B300085EB98E20E94851680931529089561E02F
:103B400085EB98E20E94EB11809315290895682F68
:103B500085EB98E20E94A611809315290895AB0188
:103B6000BC0185EB98E20E94741380931529089597
:103B70009A01AB01BC0185EB98E20E940B14809383
:103B800015290895AB01BC0185EB98E20E942B1525
:103B90008093152908959A01AB01682F85EB98E26F
:103BA0000E94F8178093152908959A01AB01682F98
:103BB00085EB98E20E943A18809315290895462FC4
:103BC000682F85EB98E20E947D188093152908954F
:103BD00085EB98E20E94D418809315290895BC01C2
:103BE00085EB98E20E942C17809315290895242FC5
:103BF000AB01682F85EB98E20E94E11980931529AB
:103C00000895242FAB01682F85EB98E20E940C19D0
:103C1000809315290895242FAB01682F85EB98E236
:103C20000E94BD1A809315290895242FAB01682F97
:103C300085EB98E20E94391B80931529089580E056
:103C4000089580E008950E94FD0408950F931F9346
:103C5000CF93DF93CDB7DEB7C158D109CDBFDEBF5B
:103C60009E0128573F4FF901419151919F018E01CB
:103C70000F5F1F4F80E8F80111928A95E9F760E81D
:103C800070E0C8010E94912AF80101900020E9F734
:103C90003197E01BF10BCF57DF4FE883C158D0407D
:103CA000CF57DF4F8881C158D0401F928F931F9309
:103CB0000F930E947B2A0F900F900F900F90CF5779
:103CC000DF4FCDBFDEBFDF91CF911F910F910895E0
:103CD00050E00E94F904882349F084EF9BEA9F9307
:103CE0008F930E94261E0F900F9081E0089550E060
:103CF0000E94F504882349F084EF9BEA9F938F93F9
:103D00000E94261E0F900F9081E00895089580E094
:103D1000089540E068ED81E690E00E941D2180E07A
:103D2000089580E0089580E008C0E82FF0E0E05FAB
:103D3000FB4F9081986090838F5F8830B0F380E074
:103D400008C0E82FF0E0E05DFB4F90819860908321
:103D50008F5F8830B0F380E008C0E82FF0E0E05BD0
:103D6000FB4F9081986090838F5F8830B0F380E044
:103D700008C0E82FF0E0E059FB4F908198609083F5
:103D80008F5F8830B0F380E008C0E82FF0E0E057A4
:103D9000FB4F9081986090838F5F8830B0F380E014
:103DA00008C0E82FF0E0E055FB4F908198609083C9
:103DB0008F5F8830B0F3089584B38D7F84BBE1EBCF
:103DC000F4E08081877F808385B38E7F85BB84B359
:103DD000816084BB0E942321089581B1877F81B9CE
:103DE00080B1886080B9E3E1F4E08081877F8083DF
:103DF00080818F7780838081887F808381B18B7F72
:103E000081B980B1846080B9E2E1F4E08081877F8C
:103E1000808380818F7780838081887F80830E94E8
:103E2000DC2008950E94931E8DB184608DB98CB101
:103E300084608CB90E94891E0E94DC1E0E94911E23
:103E40000E9421210E94ED1E0E94871E0895E0EA33
:103E5000F8E0848188608483858181608583E6E1E0
:103E6000F9E280818E7F808313868EE00895E6E1FB
:103E7000F9E280818E7F8083138680E00895E0EAF6
:103E8000F8E08481836084830E94371F0895E6E10F
:103E9000F9E2808188608083818190E0880F991F9A
:103EA00081608093A70884E008950E94471F0895C9
:103EB0000E94471F0895E6E1F9E2808188608083CF
:103EC0008181880F8093A70883E008950E945B1F7B
:103ED0000895A6E1B9E28C91877F8C9382E01B96CE
:103EE0008C931B975096ED91FC9151975C968D9118
:103EF0009C915D970995823019F0833021F006C0BE
:103F00000E94581F08950E94661F08950E943F1F37
:103F10000895E0EAF8E084818B7F848384E008954B
:103F2000E0EAF8E084818B7F848383E00895E0EA0F
:103F3000F8E08481846084838481836084830E9428
:103F4000371F0895E0EAF8E084818460848388E084
:103F500008958091A50884FF19C0A6E1B9E25296A0
:103F6000ED91FC9153975E968D919C915F97099589
:103F7000823019F0833021F006C00E94581F089546
:103F80000E94661F08950E943F1F0895E6E1F9E22E
:103F90008081877F8083A281B381CD010196828356
:103FA00093838C918093A808848195810197848361
:103FB0009583892B11F083E0089585E00895CF93D0
:103FC000DF93E6E1F9E28081877F808384819581B8
:103FD000019731F4E0EAF8E084818460848305C0CD
:103FE000E0EAF8E084818B7F8483E6E1F9E2848172
:103FF0009581019784839583892BA9F0DF01C28184
:10400000D381E0EAF8E08085888312968D919C91B7
:104010001397019612968D939C93139784818260D7
:10402000848384E026C0A6E1B9E21296ED91FC916A
:1040300013978091A808808312968D919C91139775
:10404000019612968D939C9313978C9184608C9318
:104050001C96ED91FC911D9758968D919C915997C6
:1040600009958250823018F40E94A21F02C00E945B
:10407000971FDF91CF9108958091A50884FF19C003
:10408000A6E1B9E25296ED91FC9153975E968D911F
:104090009C915F970995823019F0833021F006C01A
:1040A0000E94581F08950E94661F08950E943F1F96
:1040B0000895A6E1B9E28C9184608C931C96ED91F1
:1040C000FC911D9758968D919C9159970995833035
:1040D00039F0843041F0823049F40E94581F08952D
:1040E0000E94661F08950E94A91F08950E943F1F05
:1040F0000895E0EAF8E0858188608583A6E1B9E269
:1041000082E01B968C931B971E96ED91FC911F9756
:104110005A968D919C915B970995823019F0833066
:1041200021F006C00E94581F08950E94661F08953E
:104130000E94271F0895E0EAF8E084818860848364
:10414000858181608583E6E1F9E280818E7F8083CD
:1041500082E083878EE00895CF93DF93E0EAF8E072
:104160008581806C85838091162983FF07C08091AB
:10417000A50884FF03C08FE0809320298091A508C3
:1041800083FF03C080E1809320298091A50882FFEE
:1041900003C081E180932029C6E1D9E2EA85F0E0FD
:1041A000EE0FFF1FE65EF74D0190F081E02D0995BF
:1041B0008A87DF91CF910895E0EAF8E08BE4868367
:1041C00081E0838308959091162990FD2CC0E6E14B
:1041D000F9E291609083882321F081E08093202987
:1041E00003C082E0809320290E94AC2016C08FE398
:1041F0009CE90197F1F700C000008091A508882391
:1042000024F08091A50886FFF8CF8FE39CE9019701
:10421000F1F700C000000E94AC208091162980FDBB
:10422000E6CF80E0089581E0089581E00E94E320D8
:10423000089580E00E94E3200895FC0164BF40835C
:10424000089580E00895E0E4F8E08CE292E0808751
:10425000918780EC86838EE398E280938B299093FC
:104260008C2980E008959091440895FFFCCF8093BD
:10427000420808950E94332180E090E0089550584C
:10428000BB27AA270E9457210C94E8220E94DA2219
:1042900038F00E94E12220F039F49F3F19F426F40F
:1042A0000C94D7220EF4E095E7FB0C94A822E92F9A
:1042B0000E94F92258F3BA1762077307840795071B
:1042C00020F079F4A6F50C9433230EF4E0950B2E30
:1042D000BA2FA02D0B01B90190010C01CA01A00158
:1042E0001124FF27591B99F0593F50F4503E68F1B3
:1042F0001A16F040A22F232F342F4427585FF3CFF4
:10430000469537952795A795F0405395C9F77EF4C4
:104310001F16BA0B620B730B840BBAF09150A1F00D
:10432000FF0FBB1F661F771F881FC2F70EC0BA0F93
:10433000621F731F841F48F4879577956795B7951B
:10434000F7959E3F08F0B0CF9395880F08F0992716
:10435000EE0F9795879508950E941B2390F09F3745
:1043600048F4911116F40C94342360E070E080E876
:104370009FE3089526F01B16611D711D811D0C948D
:10438000AE220C94C9220E94D7210C94E8220E94EC
:10439000E12258F00E94DA2240F029F45F3F29F030
:1043A0000C94A82251110C9434230C94D7220E940F
:1043B000F92268F39923B1F3552391F3951B550B1B
:1043C000BB27AA2762177307840738F09F5F5F4FE8
:1043D000220F331F441FAA1FA9F335D00E2E3AF027
:1043E000E0E832D091505040E695001CCAF72BD03F
:1043F000FE2F29D0660F771F881FBB1F2617370790
:104400004807AB07B0E809F0BB0B802DBF01FF27C1
:1044100093585F4F3AF09E3F510578F00C94A822D4
:104420000C9434235F3FE4F3983ED4F3869577955C
:104430006795B795F7959F5FC9F7880F911D96957A
:10444000879597F90895E1E0660F771F881FBB1FD6
:10445000621773078407BA0720F0621B730B840B83
:10446000BA0BEE1F88F7E09508950E943C226894ED
:10447000B1110C94342308950E94012388F09F57B2
:1044800098F0B92F9927B751B0F0E1F0660F771F78
:10449000881F991F1AF0BA95C9F714C0B13091F06E
:1044A0000E943323B1E008950C943323672F782FB3
:1044B0008827B85F39F0B93FCCF386957795679533
:1044C000B395D9F73EF490958095709561957F4F9F
:1044D0008F4F9F4F0895E89409C097FB3EF4909545
:1044E0008095709561957F4F8F4F9F4F9923A9F0CD
:1044F000F92F96E9BB279395F6958795779567955C
:10450000B795F111F8CFFAF4BB0F11F460FF1BC09F
:104510006F5F7F4F8F4F9F4F16C0882311F096E932
:1045200011C0772321F09EE8872F762F05C06623E0
:1045300071F096E8862F70E060E02AF09A95660F99
:10454000771F881FDAF7880F9695879597F9089552
:1045500097F99F6780E870E060E00895882371F420
:10456000772321F09850872B762F07C0662311F40C
:1045700099270DC09051862B70E060E02AF09A9543
:10458000660F771F881FDAF7880F9695879597F93A
:1045900008959F3F31F0915020F487957795679566
:1045A000B795880F911D9695879597F908959FEF78
:1045B00080EC089500240A941616170618060906BA
:1045C000089500240A941216130614060506089589
:1045D000092E0394000C11F4882352F0BB0F40F411
:1045E000BF2B11F460FF04C06F5F7F4F8F4F9F4F51
:1045F000089557FD9058440F551F59F05F3F71F0D3
:104600004795880F97FB991F61F09F3F79F0879539
:104610000895121613061406551FF2CF4695F1DFC2
:1046200008C0161617061806991FF1CF8695710552
:104630006105089408950E940123A0F0BEE7B91710
:1046400088F4BB279F3860F41616B11D672F782FAA
:104650008827985FF7CF869577956795B11D9395D5
:104660009639C8F30895E894BB2766277727CB01CE
:1046700097F908950E944D230C94E8220E94DA22B3
:1046800038F00E94E12220F0952311F00C94A8222A
:104690000C94D72211240C9434230E94F92270F335
:1046A000959FC1F3950F50E0551F629FF001729FD7
:1046B000BB27F00DB11D639FAA27F00DB11DAA1FE6
:1046C000649F6627B00DA11D661F829F2227B00D33
:1046D000A11D621F739FB00DA11D621F839FA00DBE
:1046E000611D221F749F3327A00D611D231F849F0E
:1046F000600D211D822F762F6A2F11249F57504065
:104700009AF0F1F088234AF0EE0FFF1FBB1F661FDF
:10471000771F881F91505040A9F79E3F510580F0A8
:104720000C94A8220C9434235F3FE4F3983ED4F316
:10473000869577956795B795F795E7959F5FC1F74C
:10474000FE2B880F911D9695879597F90895A0E106
:10475000B0E0EDEAF3E20C949E277C011B016A01B4
:10476000FC0116821782838181FF44C39E012F5F63
:104770003F4F3901F7019381F10193FD859193FF3B
:1047800081911F01882309F431C3853239F493FDE7
:10479000859193FF81911F01853239F4B70190E033
:1047A0000E943F2A56016501E5CF10E0512C912C63
:1047B000FFE1F915D8F08B3279F038F4803279F0D6
:1047C0008332A1F4F92DF0612EC08D3261F0803377
:1047D00069F4292D21602DC0392D3260932E892D49
:1047E0008460982E2AC0E92DE86015C097FC2DC082
:1047F00020ED280F2A3088F496FE06C03AE0139F79
:10480000200D1124122F19C08AE0589E200D11246A
:10481000522EE92DE0629E2E10C08E3231F496FCAD
:10482000E5C2F92DF0649F2E08C08C3621F4292DA5
:104830002068922E02C0883641F4F10193FD8591E3
:1048400093FF81911F018111B3CF9BEB980F9330A0
:1048500020F4992D9061805E07C09BE9980F9330FA
:1048600008F066C1992D9F7E96FF16E09F73992EE2
:10487000853619F49064992E08C0863621F4392FB4
:104880003068932E02C01111115097FE07C01C33DF
:1048900050F444244394410E27E00BC0183038F004
:1048A00027E017E005C027E09CE3492E02C0212F36
:1048B000412C560184E0A80EB11CF6016081718183
:1048C00082819381042DA3010E942A296C01F98120
:1048D000FC87F0FF02C0F3FF06C091FC06C092FE09
:1048E00006C000E205C00DE203C00BE201C000E01B
:1048F0008C858C7019F001115AC29BC297FE10C0B2
:104900004C0CFC85F4FF04C08A81813309F44A947D
:10491000141474F528E0241578F588E0482E2CC08E
:1049200096FC2AC0812F90E08C159D059CF03CEFF1
:10493000C3163FEFD30674F0892D8068982E0AC005
:10494000E2E0F0E0EC0FFD1FE10FF11D808180330C
:1049500019F411501111F4CF97FE0EC04424439462
:10496000410E812F90E0C816D9062CF41C1904C002
:104970004424439401C010E097FE06C01C141D049B
:1049800034F4C601019605C085E090E002C081E0E4
:1049900090E001110196112331F0212F30E02F5FBB
:1049A0003F4F820F931F252D30E08217930714F499
:1049B000581A01C0512C892D897049F4552039F0BD
:1049C000B70180E290E00E943F2A5A94F7CF00237B
:1049D00029F0B701802F90E00E943F2A93FC09C084
:1049E000552039F0B70180E390E00E943F2A5A94A5
:1049F000F7CF97FE4CC04601D7FE02C0812C912C08
:104A0000C60188199909F301E80FF91FED87FE87A0
:104A10009601241931092F87388B012F10E0119549
:104A2000019511093FEF8316930629F4B7018EE231
:104A300090E00E943F2AC814D9044CF08F859889D1
:104A40008815990524F4ED85FE85818101C080E3F8
:104A5000F1E08F1A91082D853E852F5F3F4F2D87FE
:104A60003E87801691062CF0B70190E00E943F2A05
:104A7000D9CFC814D90441F49A81963320F49533E0
:104A800019F43C8534FF81E3B70190E04EC08A8180
:104A9000813319F09C859F7E9C87B70190E00E942E
:104AA0003F2A111105C094FC18C085E690E017C09C
:104AB000B7018EE290E00E943F2A1E5F82E001E093
:104AC000080FF301E80FF11D8081B70190E00E940B
:104AD0003F2A802F0113F3CFE6CF85E490E0B701A2
:104AE0000E943F2AD7FC06C0C114D10441F4EC85D2
:104AF000E4FF05C0D194C194D1088DE201C08BE2DE
:104B0000B70190E00E943F2A80E32AE0C216D10458
:104B10002CF08F5FFAE0CF1AD108F7CFB70190E001
:104B20000E943F2AB701C601C0960E943F2A54C185
:104B3000833631F0833779F0833509F056C020C0D1
:104B4000560132E0A30EB11CF6018081898301E099
:104B500010E0630112C05601F2E0AF0EB11CF60185
:104B6000C080D18096FE03C0612F70E002C06FEF5D
:104B70007FEFC6010E942C2A8C01F92DFF7714C00B
:104B8000560122E0A20EB11CF601C080D18096FE33
:104B900003C0612F70E002C06FEF7FEFC6010E947B
:104BA000022A8C01F92DF0689F2EF3FD1AC0852D85
:104BB00090E008171907A8F4B70180E290E00E947E
:104BC0003F2A5A94F4CFF60197FC859197FE819184
:104BD0006F01B70190E00E943F2A51105A94015092
:104BE00011090115110579F7F7C0843611F08936DE
:104BF00061F5560197FE09C024E0A20EB11CF60132
:104C000060817181828193810AC0F2E0AF0EB11C94
:104C1000F60160817181072E000C880B990BF92D2C
:104C2000FF769F2E97FF09C09095809570956195AE
:104C30007F4F8F4F9F4FF0689F2E2AE030E0A301F7
:104C40000E94BD2AC82EC6183FC0092D853721F401
:104C50000F7E2AE030E01DC0097F8F3691F018F4F6
:104C6000883559F0C3C0803719F0883711F0BEC0BD
:104C7000006104FF09C0046007C094FE08C006601C
:104C800006C028E030E005C020E130E002C020E1AD
:104C900032E0560107FF09C084E0A80EB11CF601FE
:104CA000608171818281938108C0F2E0AF0EB11CF6
:104CB000F6016081718180E090E0A3010E94BD2A2D
:104CC000C82EC6180F77902E96FE0BC0092D0E7FAA
:104CD000C11650F494FE0AC092FC08C0092D0E7E45
:104CE00005C0DC2C092D03C0DC2C01C0D12E04FF33
:104CF0000DC0FE01EC0DF11D8081803311F4097EA1
:104D000009C002FF06C0D394D39404C0802F8678D4
:104D100009F0D39403FD11C000FF06C01C2DD5146B
:104D200080F4150D1D190DC0D51458F4B70180E29B
:104D300090E00E943F2AD394F7CFD51410F45D1869
:104D400001C0512C04FF10C0B70180E390E00E9425
:104D50003F2A02FF17C001FD03C088E790E002C0B0
:104D600088E590E0B7010CC0802F867859F001FFEC
:104D700002C08BE201C080E207FD8DE2B70190E046
:104D80000E943F2AC11638F4B70180E390E00E94E8
:104D90003F2A1150F7CFCA94F301EC0DF11D808129
:104DA000B70190E00E943F2AC110F5CF15C0F4E092
:104DB000F51560F584E0581A93FE1FC0011127C055
:104DC0002C8523FF2AC006EC10E0392D3071932E7C
:104DD000F8018491811124C0552009F4E4CCB70175
:104DE00080E290E00E943F2A5A94F6CFF701868134
:104DF000978126C08FEF9FEF23C0B70180E290E03C
:104E00000E943F2A5A945110F8CFD8CF512CB701A5
:104E1000802F90E00E943F2AD3CF0AEC10E0D5CF3C
:104E200091108052B70190E00E943F2A0F5F1F4F00
:104E3000CFCF23E0251510F483E0BDCF512CC0CF98
:104E40006096E2E10C94B727DB018F939F930E9459
:104E50009327BF91AF91A29F800D911DA39F900DAD
:104E6000B29F900D11240895AA1BBB1B51E107C0EE
:104E7000AA1FBB1FA617B70710F0A61BB70B881FEA
:104E8000991F5A95A9F780959095BC01CD01089579
:104E900097FB072E16F4009407D077FD09D00E94E7
:104EA000342707FC05D03EF4909581959F4F0895D7
:104EB000709561957F4F0895A1E21A2EAA1BBB1B26
:104EC000FD010DC0AA1FBB1FEE1FFF1FA217B307D6
:104ED000E407F50720F0A21BB30BE40BF50B661FEC
:104EE000771F881F991F1A9469F7609570958095B0
:104EF00090959B01AC01BD01CF010895EE0FFF1FFE
:104F00000590F491E02D0994A29FB001B39FC001D8
:104F1000A39F700D811D1124911DB29F700D811DE5
:104F20001124911D08950E948427A59F900DB49F80
:104F3000900DA49F800D911D112408952F923F92F2
:104F40004F925F926F927F928F929F92AF92BF9299
:104F5000CF92DF92EF92FF920F931F93CF93DF9345
:104F6000CDB7DEB7CA1BDB0BCDBFDEBF09942A88E5
:104F7000398848885F846E847D848C849B84AA846D
:104F8000B984C884DF80EE80FD800C811B81AA81FA
:104F9000B981CE0FD11DCDBFDEBFED0108950F93B6
:104FA0001F93CF93DF93869F8001879F100D969F5D
:104FB000100D1124C8010E94EB27EC01009729F085
:104FC000A80160E070E00E94162ACE01DF91CF9127
:104FD0001F910F9108950F931F93CF93DF9382300A
:104FE000910510F482E090E0E0918729F091882902
:104FF00020E030E0A0E0B0E0309719F1408151812D
:105000000281138148175907C8F08417950769F47E
:10501000109731F012960C93129713961C9327C099
:10502000009387291093882922C02115310519F092
:105030004217530718F49A01BD01EF01DF01F8018F
:10504000DBCF21153105F9F0281B390B2430310550
:1050500080F48A819B816115710521F0FB018283B7
:10506000938304C08093872990938829FE01329608
:1050700044C0FE01E20FF31F819391932250310946
:10508000288339833AC02091852930918629232BA2
:1050900041F42091022830910328209385293093F0
:1050A000862920910028309101282115310541F4ED
:1050B0002DB73EB74091042850910528241B350B8D
:1050C000E0918529F0918629E217F307A0F42E1BC1
:1050D0003F0B2817390778F0AC014E5F5F4F24175C
:1050E000350748F04E0F5F1F40938529509386295E
:1050F0008193919302C0E0E0F0E0CF01DF91CF9186
:105100001F910F910895CF93DF93009709F481C009
:10511000FC01329712821382A0918729B0918829CD
:10512000109781F420813181820F931F209185296E
:10513000309186292817390751F5E0938529F09396
:10514000862967C0ED0120E030E0CE17DF0740F48C
:105150004A815B819E0141155105F1F0EA01F5CFCD
:10516000C283D38340815181840F951FC817D9070B
:1051700059F488819981840F951F029680839183C9
:105180008A819B81828393832115310529F4E093E1
:105190008729F09388293DC0E901EA83FB8349917F
:1051A0005991C40FD51FEC17FD0761F480819181DF
:1051B000840F951F0296E9018883998382819381E8
:1051C0008A839B83E0E0F0E012968D919C91139787
:1051D000009719F0FD01DC01F7CF8D919C9111979B
:1051E0009D012E5F3F4F820F931F209185293091A3
:1051F00086292817390769F4309729F410928729EE
:105200001092882902C012821382A0938529B0933C
:105210008629DF91CF910895FC0188279927E8948A
:1052200021912032E9F3293010F02E30C8F32B32CF
:1052300041F02D3239F4689404C00E94372A820F5D
:10524000911D219120532A30C0F31EF49095819531
:105250009F4F0895283008F027E03327DA01990F8F
:10526000311D87FD916000966105710539F432604A
:105270002E5F3D9330E32A95E1F708959F3F30F08C
:1052800080387105610509F03C5F3C5F3D939130CA
:1052900008F08068911DDF93CF931F930F93FF92C7
:1052A000EF92192F987F9695E92F96959695E90F8D
:1052B000FF27E85DFE4F99273327EE24FF24A7013F
:1052C000E70105900894079428F4360FE71EF81EAE
:1052D000491F511D660F771F881F991F0694A1F75C
:1052E0000590079428F4E70EF81E491F561FC11DAC
:1052F000770F881F991F661F0694A1F705900794E2
:1053000028F4F80E491F561FC71FD11D880F991F7B
:10531000661F771F0694A1F70590079420F4490FA4
:10532000561FC71FD81F990F661F771F881F069427
:10533000A9F784911095177041F0D695C7955795A8
:105340004795F794E7941A95C1F7EEECF0E068946E
:105350001590159135916591959105907FE2739522
:10536000E118F10A430B560BC90BD009C0F7E10C49
:10537000F11E431F561FC91FD01D7EF4703311F458
:105380008A95E6CFE894015030F0080F0AF4002720
:10539000021708F4202F2395022F7A3328F079E39F
:1053A0007D932A95E9F710C07D932A9589F6069496
:1053B00097956795379517951794E118F10A430B60
:1053C000560BC90BD00998F023957E9173957A33CB
:1053D00008F070E37C932013B8F77E9170617D93A1
:1053E00030F0839571E37D9370E32A95E1F7112402
:1053F000EF90FF900F911F91CF91DF91992787FD3B
:1054000090950895FC010590615070400110D8F707
:10541000809590958E0F9F1F0895FB01DC0102C0BF
:1054200001900D9241505040D8F70895DC0101C021
:105430006D9341505040E0F70895FB01DC0141506D
:10544000504048F001900D920020C9F701C01D9214
:1054500041505040E0F70895FC01615070400190C8
:105460000110D8F7809590958E0F9F1F08957AE0D0
:10547000979F902D879F802D910D112408950F9354
:105480001F93CF93DF93FB01238121FD03C08FEF97
:105490009FEF2CC022FF16C04681578124813581A1
:1054A0004217530744F4A081B1819D012F5F3F4F04
:1054B000208331838C93268137812F5F3F4F268352
:1054C000378314C08B01EC01FB010084F185E02DD2
:1054D0000995892BE1F6D80116968D919C91179725
:1054E000019616968D939C931797CE01DF91CF91DD
:1054F0001F910F910895A0E0B0E0E1E8FAE20C946A
:10550000AE27AE014B5F5F4FFA0161917191AF0120
:1055100080918B2990918C290E94A723E2E00C9422
:10552000C727AEE0B0E0E7E9FAE20C94AC278C01C3
:10553000FA0186E08C8309831A8377FF02C060E05A
:1055400070E8CB0101978D839E83A901BF01CE0135
:1055500001960E94A7234D815E8157FD0AC02F81CD
:105560003885421753070CF49A01F801E20FF31F34
:1055700010822E96E4E00C94C527FA01AA27283061
:1055800051F1203181F1E8946F936E7F6E5F7F4F10
:105590008F4F9F4FAF4FB1E03ED0B4E03CD0670F8C
:1055A000781F891F9A1FA11D680F791F8A1F911DDF
:1055B000A11D6A0F711D811D911DA11D20D009F42F
:1055C00068943F912AE0269F11243019305D319371
:1055D000DEF6CF010895462F4770405D4193B3E05A
:1055E0000FD0C9F7F6CF462F4F70405D4A3318F001
:1055F000495D31FD4052419302D0A9F7EACFB4E0B2
:10560000A6959795879577956795BA95C9F7009769
:105610006105710508959B01AC010A2E069457950A
:10562000479537952795BA95C9F7620F731F841F61
:0A563000951FA01D0895F894FFCF08
:10563A00746573742064657669636500696E69745C
:10564A0069616C697A65206661696C65642C20659C
:10565A0072726F7220636F64653A2025640D00438D
:10566A00686970206E616D65203A0925730A0D001C
:10567A004D616E7566616374757265723A200925AB
:10568A00730A0D00496E746572666163653A200992
:10569A0025730A0D00537570706C7920766F6C74DF
:1056AA00616765206D6178203A200925302E3266BF
:1056BA00560A0D00537570706C7920766F6C7461A0
:1056CA006765206D696E3A200925302E3266560AC2
:1056DA000D004D6178696D756D2063757272656E26
:1056EA00743A200925302E31666D410A0D00546541
:1056FA006D7065726174757265204D61783A200922
:10570A00252E3166430A0D0054656D706572617409
:10571A00757265204D696E3A2009252E3166430A55
:10572A000D004472697665722076657273696F6ED0
:10573A003A200956252E31662E252E32640A0D008E
:10574A00547565204A616E2032332031363A343836
:10575A003A343220323032340054696D653A2025A9
:10576A002E32643A000D0A646174653A202573008A
:10577A0020252E326400202564200A0D00616C6108
:10578A00726D2074696D653A20252E32643A00697B
:10579A006E7420666C61673A2025640A007077721D
:1057AA00206661696C3A252E32643A00252E3264ED
:1057BA00202D2000252E32640D0A0074696D6520A3
:1057CA00646174653A20256C750D0A0063757272FE
:1057DA00656E7420746D3A2025642D25642D256428
:1057EA002020253032643A253032643A253032643A
:1057FA002C2025730A0D006661696C656420746F3C
:10580A0020616C6C6F63617465206D656D6F727970
:10581A000A0D00252E3278203A00252E32702000FB
:10582A00252E327820006661696C656420746F20C9
:10583A00616C6C6F636174652064796E616D696314
:10584A00206D656D6F72790A0D0065706F6368204F
:10585A007772697474656E3A20252E32700A0D00CB
:10586A00656570726F6D206765743A20256C750ADC
:10587A000D004E554C4C004A616E756172790046B6
:10588A0065627275617279004D6172636800417078
:10589A0072696C004D6179004A756E65004A756CD3
:1058AA0079004175677573740053657074656D622C
:1058BA006572004F63746F626572004E6F76656D34
:1058CA0062657200446563656D6265720053756E48
:1058DA00646179004D6F6E64617900547565736413
:1058EA006179005765646E657364617900546875FF
:1058FA0072736461790046726964617900536174F4
:10590A007572646179007C988198899892989898C0
:10591A009E98A298A798AC98B398BD98C598CE9827
:10592A007C98D798DE98E598ED98F79800990799AA
:10593A006D637037393478783A206661696C6564CA
:10594A0020746F2025732E0D0A006D637037393469
:10595A0078783A2069326320696E697469616C6982
:10596A007A65206973206E756C6C0A006D637037F6
:10597A00393478783A206932635F6465696E7420D5
:10598A006973206E756C6C0A006D637037393478F0
:10599A00783A206932635F72656164206973206EA8
:1059AA00756C6C0A006D637037393478783A2069FF
:1059BA0032635F7772697465206973206E756C6CE7
:1059CA000A006D637037393478783A2072656365F6
:1059DA006976655F63616C6C6261636B0A006D6313
:1059EA007037393478783A2064656C61795F6D7301
:1059FA000A006D637037393478783A206932632047
:105A0A00696E697469616C697A65206661696C6539
:105A1A00640A0064652D696E697469616C697A65E6
:105A2A0020693263006765742076617269616E74F9
:105A3A0000676574206465627567207072696E74A8
:105A4A002066756E6374696F6E206275666665722C
:105A5A002073697A6500726561642074696D6520D6
:105A6A00616E642064617465007265616420686FA8
:105A7A00757220666F726D6174206265666F7265F9
:105A8A002077726974650073657420686F75722077
:105A9A00666F726D6174200067657420686F757235
:105AAA0020666F726D617400726561642074696D3D
:105ABA006520616D2F706D20696E64696361746F12
:105ACA0072206265666F7265207772697465007309
