:100000000C9463000C9480000C9480000C9480008D
:100010000C9480000C9480000C9480000C94800060
:100020000C9480000C9480000C9480000C94800050
:100030000C9480000C9480000C9480000C94800040
:100040000C9480000C9480000C9480000C94800030
:100050000C9480000C9480000C9480000C94800020
:100060000C9480000C9480000C9480000C94800010
:100070000C9480000C9480000C9480000C94800000
:100080000C9480000C9480000C9480000C948000F0
:100090007C0174018D01F8016A029B027401A102C6
:1000A0006D032D039D03A303F203A7032A044A044F
:1000B0007401F5023B02D314D614E514F714FA14B4
:1000C000FD14D614E51411241FBECFEFCDBFDFE31E
:1000D000DEBF18E2A0E0B8E2E0E1F1E602C0059080
:1000E0000D92AC34B107D9F729E2ACE4B8E201C013
:1000F0001D92AF38B207E1F70E9484000C94C2252C
:100100000C9400000C94BC1B0E94820087E00E94AB
:10011000E418882361F01F928F9388E89BE89F93EF
:100120008F930E940A1B0F900F900F900F908CE4FA
:1001300098E20E94881880E698E29F938F9385EA60
:100140009BE89F938F930E940A1B8AE698E29F93F5
:100150008F9386EB9BE89F938F930E940A1B83E803
:1001600098E29F938F938AEC9BE89F938F930E94D2
:100170000A1B80918F288F9380918E288F93809176
:100180008D288F9380918C288F938BED9BE89F9384
:100190008F930E940A1B80918B288F9380918A28CD
:1001A0008F93809189288F93809188288F938AEFED
:1001B0009BE89F938F930E940A1B809193288F93B3
:1001C000809192288F93809191288F93809190288D
:1001D0008F9388E19CE89F938F930E940A1B8091E4
:1001E0009B288F9380919A288F93809199288F9341
:1001F000809198288F9384E39CE89F938F930E942B
:100200000A1B8DB79EB784968DBF9EBF809197289D
:100210008F93809196288F93809195288F938091CA
:1002200094288F938EE49CE89F938F930E940A1BDF
:10023000C0909E28D0909F28E090A028F090A12800
:1002400020E030E048EC52E4C701B6010E94D21E23
:100250000E944B1F94E6699FB0011124072E000CE9
:10026000880B990B0E947C1F9B01AC01C701B60152
:100270000E944E1E0E944B1F1F926F9320E030E0A1
:100280004AE754E4C701B6010E94D21E9F938F93A0
:100290007F936F9388E69CE89F938F930E940A1B3D
:1002A0008DB79EB70E968DBF9EBFC2E4DDE83BE6DC
:1002B000232E3DE8332E0CEB1CE845E6442E4DE89A
:1002C000542E5EE5652E5DE8752E66E0C62E6DE85F
:1002D000D62E77E1A72E7DE8B72EE8EE8E2EECE83D
:1002E0009E2E80915E2990E083319105E8F7FC0114
:1002F000E85BFF4F0C941C2180E198E20E94DE191C
:100300004BE759E266E87CE882E99CE80E949E1A85
:100310008BE799E20E94DE190EC28AE399E20E94FD
:10032000B61980913F29909144298917D1F2809381
:10033000442980913D291F928F938BE99CE89F93DC
:100340008F930E940A1B80913E291F928F9381EA0E
:100350009CE89F938F930E940A1B80913F291F92D4
:100360008F9383EB9CE89F938F930E940A1BE091ED
:100370004129F0E0EE0FFF1FE95BF14781818F9388
:1003800080818F9387EA9CE89F938F930E940A1B3A
:1003900080913C291F928F9382EB9CE89F938F93CF
:1003A0000E940A1BE0914029F0E0EE0FFF1FE35D81
:1003B000F14781818F9380818F938EEA9CE89F9390
:1003C0008F930E940A1B80913B298F9380913A2939
:1003D0008F9388EB9CE89F938F930E940A1B82E186
:1003E00080935E298DB79EB74C968DBF9EBF79CF07
:1003F00080916C29811122C081E080936C2960E09A
:1004000080E00E940F1A46E058E261E080E00E941E
:10041000281A41E559E261E679E280E00E944F1A2C
:10042000809154291F928F938FEB9CE89F938F9319
:100430000E940A1B0F900F900F900F906DE579E2CC
:1004400080E00E94591A80915D291F928F9381ED5F
:100450009CE89F938F930E940A1B0F900F900F9020
:100460000F9080915D29813009F065C1729A80E01A
:100470000E94621A60C180916C2981110AC081E0DA
:1004800080936C290E946A1A60E085E090E00E94E7
:10049000721A6DE579E281E00E94591A80915D2916
:1004A0001F928F938FED9CE89F938F930E940A1B5E
:1004B0000F900F900F900F9080915D29813009F07F
:1004C0003AC1729A0E94621A60E085E090E00E9450
:1004D000721A31C180916629811109C081E080932F
:1004E00066296DE679E20E94F2190E94071A80914E
:1004F00070291F928F939F928F920E940A1B809166
:1005000071291F928F9387EF9CE89F938F930E948E
:100510000A1B809175291F928F938FEF9CE89F9300
:100520008F930E940A1B10925E298DB79EB70C967E
:100530008DBF9EBFD6CE0E947B1A81E00E94831A97
:10054000D0CE62E679E28AE399E20E948B1A80912A
:1005500065298F93809164298F93809163298F936C
:10056000809162298F93DF92CF920E940A1B609143
:10057000622970916329809164299091652945E4ED
:1005800059E20E94941AE0914C29F0E0EE0FFF1F0F
:10059000E95BF14781818F9380818F9380914A2914
:1005A0001F928F93809149291F928F9380914829A0
:1005B0001F928F93809147291F928F9380914B298F
:1005C0001F928F93809146298F93809145298F9315
:1005D000BF92AF920E940A1B82E080935E298DB782
:1005E0009EB746968DBF9EBF7CCE61E070E088E0EE
:1005F00090E00E943C218093792990937A29892B5D
:1006000031F4DF93CF930E940A1B0F900F908091DB
:10061000792990917A290E94CC1AE12CF12CE09151
:100620007929F0917A29EE0DFF1D80811F928F9319
:100630007F926F920E940A1B8FEFE81AF80A0F90C0
:100640000F900F900F9098E0E916F10441F71F9377
:100650000F930E940A1B8CE0C0C061E070E080E450
:1006600090E00E943C2180934F2990935029892B40
:1006700031F4DF93CF930E940A1B0F900F9060918B
:100680004F297091502940E450E080E20E94B21A54
:10069000E12CF12CE0914F29F0915029EE0DFF1D36
:1006A00080811F928F935F924F920E940A1B9FEF4F
:1006B000E91AF90A0F900F900F900F9020E4E216BC
:1006C000F10441F71F930F930E940A1B80914F2959
:1006D000909150290E94F02182C061E070E080E496
:1006E00090E00E943C2180935F2990936029892BA0
:1006F00031F4DF93CF930E940A1B0F900F90A091CB
:100700005F29B0916029E0917929F0917A2988E0F8
:1007100001900D928A95E1F760915F2970916029AF
:1007200048E050E080E20E94A81A80915F299091F1
:1007300060290E94F02182E08AC060E480E20E9489
:10074000BC1A81E184C00E94C51A89E080C065E0BE
:1007500070E080E090E00E94081B61E070E088E0BB
:1007600090E00E943C218093772990937829892BEF
:1007700031F4DF93CF930E940A1B0F900F9060918A
:1007800077297091782948E050E080E00E94DE1AD5
:10079000E12CF12CE0917729F0917829EE0DFF1DE5
:1007A00080811F928F933F922F920E940A1B9FEF8E
:1007B000E91AF90A0F900F900F900F9028E0E216B7
:1007C000F10441F71F930F930E940A1B8091772930
:1007D000909178290E94F0218FE080935E290F90FC
:1007E0000F907FCD61E070E088E090E00E943C21B6
:1007F00080935B2990935C29892B31F4DF93CF930D
:100800000E940A1B0F900F90A0915B29B0915C2968
:10081000E0917929F0917A2988E001900D928A95EA
:10082000E1F760915B2970915C2948E050E080E03D
:100830000E94D41A80915B2990915C290E94F0213A
:100840008091792990917A290E94F0218DE08093FE
:100850005E2947CD62E679E28AE399E20E948B1A2B
:1008600044E062E679E280E00E94E81A809165291E
:100870008F93809164298F93809163298F938091C6
:1008800062298F9381E79DE89F938F930E940A1BB3
:100890008FE01FC065E070E080E090E00E94081BE0
:1008A00044E068E679E280E00E94F21A80916B29C8
:1008B0008F9380916A298F93809169298F9380917A
:1008C00068298F9387E89DE89F938F930E940A1B66
:1008D00082E080935E290F900F900F900F900F9001
:1008E0000F90FFCCEF92FF920F931F93CF93DF9364
:1008F000D82F7B01C42F00E117E28D2F0E94691DC4
:10090000813021F401501109C1F711C06C2F70E042
:10091000C7010E94E21D0E94291EC0E1D7E20E9489
:10092000BD1D813021F42197D1F780E000C0DF9117
:10093000CF911F910F91FF90EF900895EF92FF924A
:100940000F931F93CF93DF93D82F7B01C42F00E128
:1009500017E28D2F0E94691D813021F40150110989
:10096000C1F711C06C2F70E0C7010E94E21D0E9408
:10097000261EC0E1D7E20E94BD1D813021F42197DF
:10098000D1F780E000C0DF91CF911F910F91FF90D0
:10099000EF900895615071098109910939F0E7E8F4
:1009A000F3E13197F1F700C00000F4CF0895CF9341
:1009B000DF9300D0CDB7DEB76983DA012C912A83AB
:1009C000DC011696ED91FC91179742E0BE016F5F36
:1009D0007F4F1E968C91099591E0811101C090E0A6
:1009E000892F0F900F90DF91CF910895DF92EF92B2
:1009F000FF920F931F93CF93DF9300D0CDB7DEB755
:100A00008C0169837A837A01D22EDC011696ED91EE
:100A1000FC91179741E0BE016F5F7F4F1E968C914E
:100A2000099581110FC0D8011496ED91FC9115978D
:100A30004D2DB7011E968C91099591E0811103C04F
:100A400090E001C091E0892F0F900F90DF91CF913E
:100A50001F910F91FF90EF90DF900895EF92FF921A
:100A60000F931F93CF93DF93CDB7DEB7362F0DB71C
:100A70001EB7E22EF12CB7016F5F7F4FADB7BEB747
:100A8000A61BB70BADBFBEBF6DB77EB76F5F7F4F05
:100A900011963C931197FA011296AD01461B570B24
:100AA000E416F5061CF031913D93F7CF41E0420F7B
:100AB000DC011696ED91FC9117971F968C91099584
:100AC00091E0811101C090E0892F0DBF1EBFDF9121
:100AD000CF911F910F91FF90EF900895DF92EF92C9
:100AE000FF920F931F93CF93DF9300D0CDB7DEB764
:100AF0008C0169837A837A01D22EDC011696ED91FE
:100B0000FC91179741E0BE016F5F7F4F1F968C915C
:100B1000099581110FC0D8011496ED91FC9115979C
:100B20004D2DB7011F968C91099591E0811103C05D
:100B300090E001C091E0892F0F900F90DF91CF914D
:100B40001F910F91FF90EF90DF900895EF92FF9229
:100B50000F931F93CF93DF93CDB7DEB7362F0DB72B
:100B60001EB7E22EF12CB7016F5F7F4FADB7BEB756
:100B7000A61BB70BADBFBEBF6DB77EB76F5F7F4F14
:100B800011963C931197FA011296AD01461B570B33
:100B90004E155F051CF431913D93F7CF41E0420FB4
:100BA000DC011696ED91FC9117971E968C91099594
:100BB00091E0811101C090E0892F0DBF1EBFDF9130
:100BC000CF911F910F91FF90EF9008957F936F93B6
:100BD00027E53EE83F932F93DC011A96ED91FC91B7
:100BE0001B9709950F900F900F900F9008956AE052
:100BF0000E94C620292F30E1839FC0011124822B3F
:100C00000895982F92959F708F702AE0929F800D83
:100C100011240895CF93DF93009709F44FC0DC01AE
:100C20001A96ED91FC911B97309709F449C0EC019D
:100C300088819981892B19F481E79EE806C08A8111
:100C40009B81892B41F483E99EE89F938F930995BB
:100C50000F900F9035C08C819D81892B19F480EB0A
:100C60009EE8F3CF8E819F81892B19F48CEC9EE84E
:100C7000ECCF8C859D85892B19F489EE9EE8E5CF14
:100C800088859985892B39F485E09FE89F938F9318
:100C900009950F900F90E881F9810995882359F003
:100CA00089E19FE89F938F93EA85FB8509950F90D3
:100CB0000F9081E006C091E0998B03C082E001C0F3
:100CC00083E0DF91CF910895FC01892B49F0818960
:100CD000813041F48FE6868787E5878780E0089535
:100CE00082E0089583E00895009739F0FC0121899E
:100CF000213029F4608B80E0089582E0089583E03C
:100D00000895009741F0FC012189213031F4628B74
:100D1000738B80E0089582E0089583E00895DF9268
:100D2000EF92FF920F931F93CF93DF93CDB7DEB770
:100D30002797CDBFDEBF009709F45EC0FC01218973
:100D4000213009F05CC08B017C0127E0AE014F5FD0
:100D50005F4F60E070E00E94F604D82E8093B428C4
:100D6000882341F068E57FE8C7010E94E605DD249D
:100D7000D39447C089818F770E940106F80185834B
:100D80008A818F770E940106F8018483F701E25A75
:100D9000FF4F8081811107C08B818F730E940106F4
:100DA000F80183830DC0813059F4FB808F2D8F7142
:100DB0000E940106F8018383F5FAFF24F0F8F1861A
:100DC0008C8187700E940106F80187838D818F7363
:100DD0000E940106F80182838E818F710E940106B4
:100DE000F80186838F810E94010690E08053984F1E
:100DF000F8018083918305C092E0D92E02C083E080
:100E0000D82E8D2D2796CDBFDEBFDF91CF911F91BC
:100E10000F91FF90EF90DF900895DF92EF92FF9295
:100E20000F931F93CF93DF931F92CDB7DEB7009739
:100E3000B1F1FC01F188F1E0FF1234C0E42ED62EAE
:100E40008C0170E021E0AE014F5F5F4F0E94F6041D
:100E50008093B428882319F06BE67FE816C0898157
:100E6000282F2F7B30E4E39EC0011124822B89833D
:100E7000AE014F5F5F4F6D2DC8010E94D704809374
:100E8000B428882331F069E87FE8C8010E94E605AC
:100E90000BC0F801E25AFF4FE082F12C05C092E04E
:100EA000F92E02C083E0F82E8F2D0F90DF91CF91A5
:100EB0001F910F91FF90EF90DF900895EF92FF92B6
:100EC0000F931F93CF93DF931F92CDB7DEB7009799
:100ED00011F1FC012189213001F57A018C0170E0CA
:100EE000AE014F5F5F4F0E94F6048093B4288823C1
:100EF00039F06AE97FE8C8010E94E60581E00EC08A
:100F0000998196FB992790F9F801E25AFF4F908357
:100F1000F701908303C082E001C083E00F90DF916E
:100F2000CF911F910F91FF90EF900895EF92FF9254
:100F30000F931F93CF93DF931F92CDB7DEB7009728
:100F400079F1FC012189213069F5F42EE62E8C011E
:100F500070E0AE014F5F5F4F0E94F6048093B428AB
:100F6000882319F06AEA7FE816C04981842F8F7DB3
:100F7000F0E2FF9EA0011124482B4983AE014F5F90
:100F80005F4F6E2DC8010E94D7048093B428882338
:100F900051F061ED7FE8C8010E94E60581E003C0E1
:100FA00082E001C083E00F90DF91CF911F910F91FC
:100FB000FF90EF900895AF92BF92CF92DF92EF92A1
:100FC000FF920F931F93CF93DF93CDB7DEB7289790
:100FD000CDBFDEBF009709F425C1FC01D188F1E047
:100FE000DF1223C17B018C01FB018081918184365A
:100FF000910518F06AEE7FE807C0FB0186818150F9
:101000008C3040F063E270E9C8010E94E60524E0FC
:10101000D22E0FC1FB01828181508F3118F06DE516
:1010200070E9F2CFFB0187818150873018F066E9C3
:1010300070E9EACFFB0184818C3318F062ED70E92E
:10104000E3CFFB0185818C3318F06DE071E9DCCFD3
:101050005801FEE5AF0EB11CF5018081811107C07A
:10106000FB018381883180F069E471E9CDCF813063
:1010700041F4FB01838181508C3030F062E871E9EA
:10108000C3CF6BEB71E9C0CFAE014F5F5F4F87E01D
:10109000FA0111928A95E9F727E060E070E0C80153
:1010A0000E94F6048093B428882319F069ED71E951
:1010B000B5C0F70185810E94F70599819078892B49
:1010C0008887AE01485F5F4F60E0C8010E94D70487
:1010D0008093B428882319F060EF71E99FC0F7016D
:1010E00084810E94F7058887AE01485F5F4F61E009
:1010F000C8010E94D7048093B428882319F061E0C6
:1011000072E98CC0F5018081811126C0F7018381CD
:101110000E94F7058887AE01485F5F4F62E0C80113
:101120000E94D7048093B42881112BC0F7018781D6
:101130000E94F7059C819873892B8887AE01485FD0
:101140005F4F63E0C8010E94D7048093B4288823CE
:1011500039F161E272E962C0813041F7F7018381C0
:101160000E94F7059B819076892B8887AE01485FA6
:101170005F4F62E0C8010E94D7048093B42888239F
:1011800019F062E172E94AC0F701418562E0C801E5
:101190000E9496078093B428882341F2D82E49C034
:1011A000F70182810E94F7058887AE01485F5F4F93
:1011B00064E0C8010E94D7048093B428882319F002
:1011C00063E372E92BC0F70186810E94F705C82E00
:1011D0008E8180720E9401068C298887AE01485F4B
:1011E0005F4F65E0C8010E94D7048093B42888232C
:1011F00019F061E472E912C0F70180810E94F705DD
:101200008887AE01485F5F4F66E0C8010E94D7043F
:101210008093B428882361F060E572E9C8010E94D8
:10122000E60507C092E0D92E04C083E0D82E01C0A5
:10123000D12C8D2D2896CDBFDEBFDF91CF911F9190
:101240000F91FF90EF90DF90CF90BF90AF900895F7
:10125000EF92FF920F931F93CF93DF931F92CDB71F
:10126000DEB70097F1F0FC0121892130E1F47A0129
:101270008C0170E0AE014F5F5F4F0E94F6048093D7
:10128000B428882339F06EE572E9C8010E94E605AA
:1012900081E00AC0998195FB992790F9F701908325
:1012A00003C082E001C083E00F90DF91CF911F91D6
:1012B0000F91FF90EF900895FF920F931F93CF939C
:1012C000DF931F92CDB7DEB7009751F1FC01218962
:1012D000213041F5F62E8C01AE014F5F5F4F60E08B
:1012E00070E00E94F6048093B428882319F068E720
:1012F00072E911C08981F0FA87F98983AE014F5FE5
:101300005F4F60E0C8010E94D7048093B42888230F
:1013100051F06CE972E9C8010E94E60581E003C062
:1013200082E001C083E00F90DF91CF911F910F9178
:10133000FF900895DF92EF92FF920F931F93CF9348
:10134000DF9300D000D0CDB7DEB7009709F46CC0B2
:10135000FC01D188F1E0DF126AC07A018C01FC0146
:101360008089833019F468E673E92AC0662319F08E
:10137000613089F023C024E0AE014F5F5F4F68E128
:1013800070E0C8010E94F6048093B4288823F1F02D
:1013900069EA73E90FC024E0AE014F5F5F4F6CE173
:1013A00070E0C8010E94F6048093B428882371F08D
:1013B00064EC73E9C8010E94E6053BC06DED73E97A
:1013C000C8010E94E60524E0D22E33C089818F77C0
:1013D0000E940106F7018483F801E25AFF4F8081E1
:1013E000811107C08A818F730E940106F7018383F0
:1013F0000DC0813059F41A81812F8F710E9401062E
:10140000F701838315FB112710F911878B818F73E7
:101410000E940106F70182838C818F710E94010670
:10142000F7018683D12C05C092E0D92E02C083E05B
:10143000D82E8D2D2496CDBFDEBFDF91CF911F9189
:101440000F91FF90EF90DF9008950F931F93CF932C
:10145000DF9300D0CDB7DEB78C01FC0180898330EB
:1014600039F46CEF73E9C8010E94E60584E038C0E6
:10147000AE014E5F5F4F62E0C8010E945E0780933D
:10148000B42881112DC0AE014F5F5F4F62E0C801EB
:101490000E9428098093B428811122C04A8169E101
:1014A000C8010E940D078093B428811119C04A8198
:1014B0006DE1C8010E940D078093B428811110C00E
:1014C000498169E1C8010E9496078093B42881117F
:1014D00007C049816DE1C8010E9496078093B42836
:1014E0000F900F90DF91CF911F910F910895DF9290
:1014F000EF92FF920F931F93CF93DF931F92CDB77D
:10150000DEB7009709F44BC0FC012189213009F0B6
:1015100048C0042FD62E7C01AE014F5F5F4F67E0BD
:1015200070E00E94F6048093B428882319F06BE4DD
:1015300074E91BC010E0D1101DC08981282F2F7EB7
:10154000C80134E0880F991F3A95E1F7822B89830F
:10155000AE014F5F5F4F67E0C7010E94D7048093E1
:10156000B428882339F061E674E9C7010E94E605D2
:1015700081E018C049814F7D85E0000F111F8A95D9
:10158000E1F7042B0983AE014F5F5F4F67E0C701AE
:101590000E94D7048093B428882321F0E4CF82E00E
:1015A00001C083E00F90DF91CF911F910F91FF90C9
:1015B000EF90DF900895EF92FF920F931F93CF93D8
:1015C000DF931F92CDB7DEB7009709F44EC0FC0140
:1015D000F188F1E0FF124CC0E42E8C01662319F073
:1015E0006130C9F03BC021E0AE014F5F5F4F6DE05D
:1015F00070E00E94F6048093B428882319F066E90D
:1016000074E917C08981E0FA87F98983AE014F5FD9
:101610005F4F6DE01AC021E0AE014F5F5F4F64E1A4
:1016200070E00E94F6048093B428882331F065EBC3
:1016300074E9C8010E94E6051DC08981E0FA87F9B6
:101640008983AE014F5F5F4F64E1C8010E94D704F8
:101650008093B4288111D3CFF12C0CC064ED74E9D0
:101660000E94E60524E0F22E05C092E0F92E02C0A9
:1016700083E0F82E8F2D0F90DF91CF911F910F9166
:10168000FF90EF900895AF92BF92DF92EF92FF929A
:101690000F931F93CF93DF93CDB7DEB72897CDBFBE
:1016A000DEBF009709F4B9C1FC01D188F1E0DF1277
:1016B000B7C17A018C015C012EE5A20EB11CF501C7
:1016C000808181112DC0FA01868181508C3018F003
:1016D0006BEE74E99AC1FA01828181508F3118F062
:1016E0006BE275E992C1FA0187818150873018F069
:1016F0006AE675E98AC1FA018381883118F06CEADB
:1017000075E983C1F70184818C3318F06BEE75E9BC
:101710007CC1F70185818C33D8F06CE276E975C124
:10172000813099F4FA0186818D3090F68281815062
:101730008F31B0F6878181508730D0F68381815018
:101740008C3000F36EE676E960C16DEA76E95DC142
:10175000AE014F5F5F4F87E0FA0111928A95E9F77A
:101760006111A6C026E06AE070E0C8010E94F6049C
:101770008093B428F70185810E94F7058887AE0120
:10178000485F5F4F6AE0C8010E94D7048093B42885
:10179000882319F061ED76E932C1F70184810E9456
:1017A000F7058887AE01485F5F4F6BE0C8010E9474
:1017B000D7048093B428882319F06AEE76E91FC114
:1017C000F5018081811129C0F70183810E94F7050D
:1017D0009B819074892B8887AE01485F5F4F6CE0D6
:1017E000C8010E94D7048093B42881112BC0F7014F
:1017F00087810E94F7059C81987F892B8887AE019D
:10180000485F5F4F6DE0C8010E94D7048093B42801
:10181000882331F16AE177E9F2C0813041F7F701BD
:1018200083810E94F7059B819076892B8887AE0182
:10183000485F5F4F6CE0C8010E94D7048093B428D2
:10184000882319F063E077E9DAC0F70141856CE09D
:10185000C8010E9496078093B428882341F2DBC018
:10186000F70182810E94F7058887AE01485F5F4FCC
:101870006EE0C8010E94D7048093B428882319F031
:1018800064E377E9BCC0F70186810E94F705888789
:10189000AE01485F5F4F6FE0C8010E94D70480939C
:1018A000B428811102C0D12CBDC06AE477E9A7C079
:1018B000613009F0A8C026E061E170E0C8010E9433
:1018C000F6048093B428F70185810E94F705888784
:1018D000AE01485F5F4F61E1C8010E94D704809369
:1018E000B428882319F061E677E989C0F70184817B
:1018F0000E94F7058887AE01485F5F4F62E1C8012B
:101900000E94D7048093B428882319F06AE777E906
:1019100076C0F5018081811129C0F70183810E9481
:10192000F7059B819074892B8887AE01485F5F4FD4
:1019300063E1C8010E94D7048093B42881112BC0B1
:10194000F70187810E94F7059C81987F892B888702
:10195000AE01485F5F4F64E1C8010E94D7048093E5
:10196000B428882331F16AEA77E949C0813041F728
:10197000F70183810E94F7059B819076892B8887E8
:10198000AE01485F5F4F63E1C8010E94D7048093B6
:10199000B428882319F063E977E931C0F70141855C
:1019A00063E1C8010E9496078093B428882341F21E
:1019B00032C0F70182810E94F7058887AE01485F37
:1019C0005F4F65E1C8010E94D7048093B428882343
:1019D00019F064EC77E913C0F70186810E94F705DE
:1019E0008887AE01485F5F4F66E1C8010E94D70457
:1019F0008093B428882309F456CF6AED77E9C801AB
:101A00000E94E6050FC064ED74E9C8010E94E60576
:101A100024E0D22E07C0D82E05C092E0D92E02C0F5
:101A200083E0D82E8D2D2896CDBFDEBFDF91CF91DC
:101A30001F910F91FF90EF90DF90BF90AF900895AE
:101A4000CF92DF92EF92FF920F931F93CF93DF938A
:101A50001F92CDB7DEB7009709F47CC0FC01E18886
:101A6000F1E0EF127AC06901F42E8C01662319F0BF
:101A7000613091F168C021E0AE014F5F5F4F6DE0D2
:101A800070E00E94F6048093B428882319F061EF77
:101A900077E930C04981842F8F7890E1F99EA001C9
:101AA0001124482B4983AE014F5F5F4F6DE0C801A1
:101AB0000E94D7048093B4288111E9CFA60160E089
:101AC000C8010E94430B8093B428811102C0E12C0D
:101AD00046C06CE078E931C021E0AE014F5F5F4F56
:101AE00064E170E00E94F6048093B428882331F00A
:101AF00062E278E9C8010E94E60531C04981842F7D
:101B00008F78E0E1FE9EA0011124482B4983AE01AD
:101B10004F5F5F4F64E1C8010E94D7048093B428EF
:101B20008111E6CFA60161E0C8010E94430B8093BA
:101B3000B428882361F26DE378E9C8010E94E605C4
:101B4000E090B4280CC064ED74E90E94E60524E03E
:101B5000E22E05C092E0E92E02C083E0E82E8E2D31
:101B60000F90DF91CF911F910F91FF90EF90DF9039
:101B7000CF900895DF92EF92FF920F931F93CF9330
:101B8000DF93CDB7DEB72797CDBFDEBF009709F44F
:101B900072C0FC01D188F1E0DF1270C07A018C01C3
:101BA000AE014F5F5F4F87E0FA0111928A95E9F726
:101BB00061110DC026E06AE070E0C8010E94F604E1
:101BC0008093B4288823E9F063E578E90EC061309A
:101BD00081F426E061E170E0C8010E94F604809380
:101BE000B428882371F06EE678E9C8010E94E60502
:101BF00047C064ED74E9C8010E94E60524E0D22ED6
:101C00003FC089818F770E940106F70185838A8111
:101C10008F770E940106F7018483F801E25AFF4F93
:101C20008081811107C08B818F730E940106F701AB
:101C300083830DC0813059F41B81812F8F710E94E5
:101C40000106F701838315FB112710F911878C8199
:101C500087700E940106F70187838D818F730E9430
:101C60000106F70182838E818F710E940106F701C0
:101C70008683D12C05C092E0D92E02C083E0D82EF5
:101C80008D2D2796CDBFDEBFDF91CF911F910F9194
:101C9000FF90EF90DF900895CF92DF92EF92FF9246
:101CA0000F931F93CF93DF931F92CDB7DEB70097AB
:101CB00009F447C0FC017189713009F045C06A011F
:101CC000E62E8C01A9010E94BA0DF82E8093B4284B
:101CD000882319F069E878E911C0E11015C021E006
:101CE000AE014F5F5F4F6DE070E0C8010E94F604E7
:101CF0008093B4288823D1F06BEA78E9C8010E9468
:101D0000E605F090B42822C0F1E0EF1207C021E010
:101D1000AE014F5F5F4F64E170E0E7CF64ED74E9BF
:101D2000C8010E94E60534E0F32E10C08981807757
:101D300090E024E0959587952A95E1F7F601808358
:101D400005C092E0F92E02C083E0F82E8F2D0F908F
:101D5000DF91CF911F910F91FF90EF90DF90CF9087
:101D60000895CF92DF92FF920F931F93CF93DF934B
:101D70001F92CDB7DEB70097D9F1FC01F188F1E0F1
:101D8000FF1239C06A018C0161110FC021E0AE0160
:101D90004F5F5F4F6DE070E00E94F6048093B428BF
:101DA0008823B9F062EC78E910C06130D1F421E009
:101DB000AE014F5F5F4F64E170E00E94F6048093D4
:101DC000B428882331F068EE78E9C8010E94E6055E
:101DD00014C0898183FB882780F9F6018083F12C68
:101DE0000CC064ED74E90E94E60524E0F22E05C003
:101DF00092E0F92E02C083E0F82E8F2D0F90DF9134
:101E0000CF911F910F91FF90DF90CF900895FF9297
:101E10000F931F93CF93DF931F92CDB7DEB7009739
:101E200009F454C0FC01F188F1E0FF1252C08C01AA
:101E3000611120C021E0AE014F5F5F4F6DE070E0A7
:101E40000E94F6048093B428882319F06EE079E9A3
:101E500032C08981877F8983AE014F5F5F4F6DE01C
:101E6000C8010E94D7048093B4288823A9F163E3B2
:101E700079E921C0613019F521E0AE014F5F5F4F74
:101E800064E170E00E94F6048093B428882319F07E
:101E900064E579E910C08981877F8983AE014F5F4E
:101EA0005F4F64E1C8010E94D7048093B42888235F
:101EB00099F069E779E9C8010E94E6050EC064ED72
:101EC00074E90E94E60524E0F22E07C092E0F92EA4
:101ED00004C083E0F82E01C0F12C8F2D0F90DF910C
:101EE000CF911F910F91FF900895FF920F931F9331
:101EF000CF93DF931F92CDB7DEB7009751F1FC016E
:101F00002189213041F5F62E8C01AE014F5F5F4FE4
:101F100067E070E00E94F6048093B428882319F0EB
:101F20006AE979E911C08981F0FA87F98983AE01FC
:101F30004F5F5F4F67E0C8010E94D7048093B428C9
:101F4000882351F06DEA79E9C8010E94E60581E035
:101F500003C082E001C083E00F90DF91CF911F9119
:101F60000F91FF900895EF92FF920F931F93CF93DD
:101F7000DF931F92CDB7DEB7009759F1FC01F188CE
:101F8000F1E0FF1229C0E62E8C0121E0AE014F5F87
:101F90005F4F67E070E00E94F6048093B4288823C6
:101FA00019F06AE979E911C069816C7FE62AE98252
:101FB000AE014F5F5F4F67E0C8010E94D704809376
:101FC000B428882361F06DEA79E9C8010E94E6052A
:101FD00007C092E0F92E04C083E0F82E01C0F12C76
:101FE0008F2D0F90DF91CF911F910F91FF90EF9068
:101FF0000895FF920F931F93CF93DF931F92CDB756
:10200000DEB7009779F1FC012189213069F5F62EC0
:102010008C01AE014F5F5F4F67E070E00E94F604F5
:102020008093B428882319F06AE979E916C0698198
:10203000862F8F7BF0E4FF9EB0011124682B69830B
:10204000AE014F5F5F4F67E0C8010E94D7048093E5
:10205000B428882351F06DEA79E9C8010E94E605A9
:1020600081E003C082E001C083E00F90DF91CF9157
:102070001F910F91FF900895FF920F931F93CF939D
:10208000DF931F92CDB7DEB7009779F1FC0121896C
:10209000213069F5F62E8C01AE014F5F5F4F67E08E
:1020A00070E00E94F6048093B428882319F06AE94E
:1020B00079E916C06981862F8B7FF4E0FF9EB0011D
:1020C0001124682B6983AE014F5F5F4F67E0C80141
:1020D0000E94D7048093B428882351F06DEA79E9EF
:1020E000C8010E94E60581E003C082E001C083E0F0
:1020F0000F90DF91CF911F910F91FF900895FF9264
:102100000F931F93CF93DF931F92CDB7DEB7009746
:10211000D9F1FC0121892130C9F5F62E8C01808985
:10212000833039F46DE27AE9CF010E94E60584E05C
:102130002EC021E0AE014F5F5F4F63E070E0CF0142
:102140000E94F6048093B428882319F060E77AE9A6
:1021500016C06981862F877FF8E0FF9EB0011124A9
:10216000682B6983AE014F5F5F4F63E0C8010E9437
:10217000D7048093B428882351F06BE87AE9C8012A
:102180000E94E60581E003C082E001C083E00F9079
:10219000DF91CF911F910F91FF900895FF920F93C0
:1021A0001F93CF93DF931F92CDB7DEB7009769F1EE
:1021B000FC012189213059F5F62E8C01AE014F5FCB
:1021C0005F4F67E070E00E94F6048093B428882394
:1021D00039F060ED7AE9C8010E94E60581E018C097
:1021E0006981862F877FF8E0FF9EB0011124682B5C
:1021F0006983AE014F5F5F4F67E0C8010E94D7045B
:102200008093B428882321F0E4CF82E001C083E0EA
:102210000F90DF91CF911F910F91FF900895FF9242
:102220000F931F93CF93DF931F92CDB7DEB7009725
:1022300041F1FC012189213031F5F62E8C01AE01EE
:102240004F5F5F4F60E070E00E94F6048093B42817
:10225000882339F063E07BE9C8010E94E60581E04C
:1022600013C08981F0FA87F98983AE014F5F5F4F10
:1022700060E0C8010E94D7048093B428882321F02D
:10228000E9CF82E001C083E00F90DF91CF911F91F1
:102290000F91FF9008956F927F928F929F92AF92CD
:1022A000BF92CF92DF92EF92FF920F931F93CF9343
:1022B000DF93EB013A01009709F47DC0DC015196F0
:1022C0008C91813009F079C06881625B4E81415008
:1022D0002A81215000E010E080E090E0DC0170E015
:1022E0000617170794F47801E3E0EE22FF24EF28A5
:1022F00029F083599E4FAF4FBF4F04C082599E4F64
:10230000AF4FBF4F0F5F1F4FEBCF69EF70EA812CCC
:10231000912C540150E08B01095F104A04171507F6
:1023200044F4FB013191BF01830E911CA11CB11C2F
:10233000F2CF4C813B8160E17EE0369F6001379FA8
:10234000D00C11240D2C000CEE08FF08FCE34F9F6D
:10235000A0011124052E000C660B770BC40ED51EB0
:10236000E61EF71E3D81C30ED11CE11CF11C422F5D
:1023700050E060E070E04150510961097109840F3B
:10238000951FA61FB71F9C01AD01280D391D4A1DC1
:102390005B1D60E871E581E090E00E94B620C60E0A
:1023A000D71EE81EF91ED301CD92DD92ED92FC926C
:1023B000139780E003C082E001C083E0DF91CF91FA
:1023C0001F910F91FF90EF90DF90CF90BF90AF9053
:1023D0009F908F907F906F9008958F929F92AF9271
:1023E000BF92CF92DF92EF92FF920F931F93CF9302
:1023F000DF936A017B01E901009709F4E0C0FC0169
:102400008189813009F0DDC0CB01BA0120E831E5D6
:1024100040E050E00E94FA2020E13EE040E050E041
:102420000E94FA202B835CE3852E912CA12CB12CE9
:10243000A50194010E94FA202C83C701B601A501D1
:1024400094010E94FA206D83C701B601605873445D
:102450008D46984320E831E541E050E00E94FA20A3
:10246000C90187589A4F65EB75E00E94D220660F2C
:10247000771F660F771F9C018A3D924020F02A5DEE
:1024800032406E5F7F4F688379832D3681E0380755
:1024900038F02D563140888199810196888399833F
:1024A00083E08E832233E1E03E0748F0225331403F
:1024B0008881998101968883998381E015C02939A3
:1024C000310520F02959310988E08E838E812A3721
:1024D000310520F02A5731098C5F0EC02D333105AC
:1024E00020F02D5331098E5F8E832F31310528F076
:1024F0002F5131098E818F5F8E832F5F2A83E88071
:10250000F980F4E3EF1AF8EFFF0AE882F982EE812E
:10251000F0E08EE090E06C01CE1ADF0AC60164EFB5
:102520007FEF0E94E620E60EF71E870100541D4E45
:10253000C6016CE070E00E94E6203CE0369FC001DE
:10254000379F900D1124E80FF91F339739E93E9F0B
:10255000C0013F9F900D1124029665E070E00E943B
:10256000E620FB01E20FF11D8DE691E0E89E90016F
:10257000E99E300DF89E300D11242D56314CC801C6
:102580009695879596958795280F391FC80160E91C
:1025900071E00E94D220260F371FC80164E670E068
:1025A0000E94D220C901861B970B8E0F9F1F67E0E8
:1025B00070E00E94D2208E5F8F8380E003C082E0B3
:1025C00001C083E0DF91CF911F910F91FF90EF90B9
:1025D000DF90CF90BF90AF909F908F900895CF9253
:1025E000DF92EF92FF920F931F93CF93DF93CDB7BC
:1025F000DEB76697CDBFDEBF7C01FA01009709F414
:10260000D4C0DC0151968C91813009F0D0C0818515
:102610008C8B82858D8B908182EB890F823010F0BC
:10262000943411F481E301C080E3898B9A3439F446
:1026300081818136D9F482818E36B9F534C09634E1
:1026400051F19D3441F48181813679F5828182375F
:1026500049F493E32BC09134B1F48181803779F44C
:1026600094E324C0893709F595E320C08537E9F460
:1026700082818E3691F08C36C1F497E317C085378E
:10268000A1F498E313C0933551F09F3451F09E3478
:1026900051F0943451F492E309C096E307C099E3F2
:1026A00005C090E303C091E301C09FE39A8B84814E
:1026B000803308F480E38901DB018E8785818F8771
:1026C0008C918B8711968C9111978C8713968C9196
:1026D0001397888714968C911497898716968C91F6
:1026E00016978D8317968C918E83CE0144960E9407
:1026F00079226C01F80180839183CE0141960E947A
:102700007922D80116968C93CE010E960E947922DA
:10271000F8018283CE010B960E947922D80113968C
:102720008C93CE0108960E947922F8018483CE0111
:1027300005960E947922D80115968C93B0E3CB1AA6
:10274000B8EFDB0AF801C082D182AE014F5F5F4F64
:10275000B801C7010E944B1149815A816B817C816C
:102760009801C7010E94ED11D8018D919C9111979C
:10277000805D97408D939C93119715968C9115973A
:102780008D3220F4815F15968C930DC08D52F80127
:10279000858384818A3318F48F5F848304C08381A6
:1027A0008F5F8383148280E003C082E001C083E0F6
:1027B0006696CDBFDEBFDF91CF911F910F91FF9045
:1027C000EF90DF90CF9008950F931F93CF93DF93F7
:1027D000009701F1FC0111891130F1F4062FEC0191
:1027E00040E060E00E94770A8093B428882319F0C3
:1027F0006FE27BE90BC0402F61E0CE010E94770AB7
:102800008093B428882351F06DE57BE9CE010E94C6
:10281000E60505C012E003C013E001C010E0812FFF
:10282000DF91CF911F910F910895DF92EF92FF9268
:102830000F931F93CF93DF93CDB7DEB72E97CDBF06
:10284000DEBF009709F473C0FC012189213009F033
:1028500070C0D42E7B018C01F2E0F41730F465E7F0
:102860007BE90E94E60584E065C061E00E94070FF5
:10287000BE016F5F7F4FC8010E948F068093B4280E
:10288000882341F06CE97BE9C8010E94E60580914C
:10289000B42850C0AE01455F5F4FBE016F5F7F4FF0
:1028A000C8010E944B118093B428811143C08B85CD
:1028B0009C85AD85BE8521E0D21641F0E2E0DE16B2
:1028C00061F08E0D9F1DA11DB11D14C04CE34E9DE6
:1028D00090014F9D300D112409C040E15EE0E49E5F
:1028E0009001E59E300DF49E300D1124820F931F50
:1028F000A11DB11D8B879C87AD87BE874B855C85ED
:102900006D857E859E012F5F3F4FC8010E94ED11AE
:102910008093B42881110EC09E012F5F3F4F47E086
:1029200061E0C8010E94200D8093B42803C082E0BA
:1029300001C083E02E96CDBFDEBFDF91CF911F9106
:102940000F91FF90EF90DF900895AF92BF92CF92DA
:10295000DF92FF920F931F93CF93DF93CDB7DEB734
:102960002897CDBFDEBF5B01009709F44CC0DC01A6
:102970005196FC90B1E0FB1249C0FE0131966F0107
:1029800028E0DF011D922A95E9F7DC015096EC91D1
:102990004E2F50E048305105E0F58C01FA01E55A20
:1029A000FF4F0C941C2167EB7BE929C026E0A601B0
:1029B00062EF70E00E946E058093B428882319F0BE
:1029C00060EF7BE91CC086E00BC028E0A60160EF49
:1029D00070E00E946E058093B4288111F1CF88E0E9
:1029E000F601D50101900D928A95E1F712C063E0DE
:1029F0007CE905C06CE37CE902C065E77CE9C801BD
:102A00000E94E60507C092E0F92E04C083E0F82E8C
:102A100001C0F12C8F2D2896CDBFDEBFDF91CF9165
:102A20001F910F91FF90DF90CF90BF90AF900895CE
:102A3000CF93DF93009791F1FC017189713081F59B
:102A4000EC0180EE860F803438F06EEA7CE9CF012D
:102A50000E94E60584E025C02134310518F06AECB7
:102A60007CE909C0C9018097860F911D81349105C9
:102A700038F069EF7CE9CE010E94E60585E011C0DF
:102A8000CF010E94A6058093B428882351F06AE103
:102A90007DE9CE010E94E60581E003C082E001C02D
:102AA00083E0DF91CF910895CF93DF93009799F161
:102AB000FC017189713089F5EC0180EE860F80345C
:102AC00038F068E27DE9CF010E94E60584E026C087
:102AD0002134310518F063E47DE90AC070E0C901D2
:102AE0008097860F971F8134910538F061E77DE963
:102AF000CE010E94E60585E011C0CF010E94F604D8
:102B00008093B428882351F061E97DE9CE010E94C9
:102B1000E60581E003C082E001C083E0DF91CF9150
:102B20000895AF92BF92DF92EF92FF920F931F939F
:102B3000CF93DF931F92CDB7DEB719820097A1F133
:102B4000FC01D188F1E0DF1232C07C0180EE860FFB
:102B5000803440F06BE97DE9C7010E94E60524E07E
:102B6000D22E27C080EE840F8034A0F7062F10E00D
:102B7000A42EB12CA016B106ACF021E0AE014F5F3F
:102B80005F4F602FC7010E94A6058093B428882359
:102B900031F06CEC7DE9C7010E94E6050AC00F5FC9
:102BA0001F4FE8CFD12C05C092E0D92E02C083E0A0
:102BB000D82E8D2D0F90DF91CF911F910F91FF9007
:102BC000EF90DF90BF90AF9008950F931F93CF9336
:102BD000DF93CDB7DEB7C054D109CDBFDEBFAE01A4
:102BE0004F5F5F4F20E4FA0111922A95E9F70097B1
:102BF000A1F0FC012189213091F48C0120E460E2F4
:102C00000E94A6058093B428882351F06EED7DE9DB
:102C1000C8010E94E60581E003C082E001C083E0B4
:102C2000C05CDF4FCDBFDEBFDF91CF911F910F9111
:102C30000895CF93DF93009799F1FC0131893130EA
:102C400089F5EC0167FF03C068EE7DE909C070E01B
:102C5000CB01820F911D813891053CF068E07EE93F
:102C6000CE010E94E60584E01EC08089882319F009
:102C70008350833038F46DE27EE9CE010E94E60590
:102C800085E011C0CF010E946E058093B42888238F
:102C900051F06CE67EE9CE010E94E60581E003C0BA
:102CA00082E001C083E0DF91CF910895EF92FF921F
:102CB0000F931F93CF93DF931F92CDB7DEB7198287
:102CC000009711F1FC012189213001F58B017C0174
:102CD000AE014F5F5F4F6FEF70E00E946E05809313
:102CE000B428882339F068E97EE9C7010E94E60527
:102CF00081E00DC029812C7030E035952795359500
:102D00002795F801208303C082E001C083E00F9083
:102D1000DF91CF911F910F91FF90EF900895FF9257
:102D20000F931F93CF93DF931F92CDB7DEB700971A
:102D3000D1F1FC0121892130C1F5F62E8C01BE01B3
:102D40006F5F7F4F0E9456168093B428882341F00E
:102D500066EB7EE9C8010E94E6058091B42826C092
:102D6000F8019089992319F09350933038F46DE26B
:102D70007EE9C8010E94E60584E018C0998192307E
:102D800061F0933019F0913089F402C081E00EC0F7
:102D900081E0FFE5FF1550F004C081E09FE39F153F
:102DA00028F080E003C082E001C083E00F90DF9153
:102DB000CF911F910F91FF900895EF92FF920F9383
:102DC0001F93CF93DF930097D1F1FC01318931300C
:102DD000C1F5022F7A01162FEC0167FF03C06CEDDD
:102DE0007EE909C0822F90E0860F911D8138910500
:102DF0003CF06DEF7EE9CE010E94E60584E022C042
:102E0000CF010E948F168093B428882339F063E2A3
:102E10007FE9CE010E94E60585E014C0202FA701BE
:102E2000612FCE010E942E058093B428882351F093
:102E30006BE57FE9CE010E94E60581E003C082E0F8
:102E400001C083E0DF91CF911F910F91FF90EF9030
:102E50000895009731F0FC018189813021F480E8E8
:102E6000089582E0089583E00895EF92FF920F9312
:102E70001F93CF93DF93009709F45CC0DC01519658
:102E80002C91213009F058C0E42EF62E8C010E94BE
:102E9000291786958695869590E020E030E0C0E081
:102EA000D0E06F2D70E0C817D9070CF047C062174B
:102EB0007307E4F56E0D711D072E000C880B990B3E
:102EC0000E947C1F20E030E040E05EE30E94492049
:102ED0000E94BB1E0E94441FC617D7077CF57E01C7
:102EE000B1E0EB1AF10883E0EE0CFF1C8A95E1F7E4
:102EF00067E270EAC8010E94E605C70107969F9342
:102F00008F93FF92EF92DF93CF9389E590EA9F939F
:102F10008F93D8011A96ED91FC911B970995EDB707
:102F2000FEB73896EDBFFEBF86E009C02196285F48
:102F30003F4FB9CF82E003C083E001C080E0DF9162
:102F4000CF911F910F91FF90EF9008958F929F92D4
:102F5000BF92CF92DF92EF92FF920F931F93CF9386
:102F6000DF93009709F455C0DC0151963C91313054
:102F700009F051C0D22F4A01B62E7C01C22ED12CAD
:102F800061E070E0C6010E943C218C01892B61F454
:102F90008DE890EA9F938F93D7011A96ED91FC915B
:102FA0001B9709950F900F90A601B401C8010E94CC
:102FB00097224D2F6B2DC7010E943517C82F809384
:102FC000B428811129C09D2F9695F801EC0DFD1DA7
:102FD000202FD8018A2F821B891728F48C913291D7
:102FE0003D938083F7CF2D2FA8016B2DC7010E9441
:102FF000DD16C82F8093B428882339F061EB70EA7E
:10300000C7010E94E605C1E007C0C8010E94F02187
:1030100003C0C2E001C0C3E08C2FDF91CF911F91AC
:103020000F91FF90EF90DF90CF90BF909F908F9087
:1030300008959F92AF92BF92CF92DF92EF92FF924C
:103040000F931F93CF93DF93009709F451C0FC01B6
:103050003189313009F04EC0D22F6A01962E8C0191
:10306000A22EB12C61E070E0C5010E943C217C01E0
:103070004D2F692DC8010E943517C82F8093B428A1
:10308000811139C02D2FA701692DC8010E94191681
:10309000C82F8093B428811107C0D695D701AA0DF7
:1030A000BB1D9E2DF70107C06BEB70EAC8010E94A3
:1030B000E605C1E020C08E2F891B8D1728F4808182
:1030C0002E9121938C93F7CFA501B7018CEA98E25A
:1030D0000E9497228091AC289091AD28A091AE28B3
:1030E000B091AF28F60180839183A283B38303C09C
:1030F000C2E001C0C3E08C2FDF91CF911F910F91EF
:10310000FF90EF90DF90CF90BF90AF909F90089589
:10311000CF93DF93EC014AE050E062EE70EA449610
:103120000E94A72245E050E06BEE70EACE01C79600
:103130000E94A72249E150E06FEE70EACE014E9660
:103140000E94A722FE01E05CFF4F80E090E0A0EB30
:10315000B0E480839183A283B38386E696E6A6EAF1
:10316000BFE38CAF9DAFAEAFBFAF349680E090E0D1
:10317000A8ECB3E480839183A283B383389680E084
:1031800090E0AAEAB2E480839183A283B383349768
:1031900080E090E0A0E2B2EC80839183A283B383CD
:1031A000389680E48083319688E08083CE5ADF4F62
:1031B00080E090E0AAE7B4E488839983AA83BB8384
:1031C00080E0DF91CF910895CF93C82F80E6E5EBA3
:1031D000F8E2DF011D928A95E9F78CEF9AE180937E
:1031E000B5289093B6288EEF9AE18093B7289093F4
:1031F000B82884E09BE18093BB289093BC2880E0B2
:103200009BE18093B9289093BA2888E09BE1809352
:10321000BD289093BE288AE09BE18093BF289093BD
:10322000C0288CE49BE18093C1289093C228CF01F1
:103230000E940A0680931529882359F085E091EAB7
:103240009F938F930E940A1BC09115290F900F9096
:103250008AC06C2F85EB98E20E947406C82F809379
:103260001529811180C085EB98E20E946406C82F61
:1032700080931529811177C061E085EB98E20E9467
:103280005C09C82F8093152981116DC060E085EB22
:1032900098E20E94070FC82F80931529811163C0FF
:1032A00061E085EB98E20E94070FC82F80931529F3
:1032B000811159C040E060E085EB98E20E94770AF6
:1032C000C82F8093152981114EC040E061E085EB45
:1032D00098E20E94770AC82F80931529811143C074
:1032E00061E085EB98E20E94750FC82F8093152945
:1032F000811139C060E085EB98E20E94F90FC82F78
:103300008093152981112FC060E085EB98E20E941F
:103310003C10C82F80931529811125C060E085EBF2
:1033200098E20E94CE10C82F8093152981111BC0EE
:1033300061E085EB98E20E940F11C82F8093152958
:10334000811111C060E470E085EB98E20E94810673
:10335000C82F80931529811106C06AE070E080E0D3
:1033600090E00E94081B8C2FCF910895BC0185EB43
:1033700098E20E948F06809315290895CF93C82F55
:10338000482F62E085EB98E20E940D078093152993
:10339000811112C04C2F69E185EB98E20E940D0764
:1033A00080931529811108C04C2F6DE185EB98E2BF
:1033B0000E940D0780931529CF910895CF93DF9335
:1033C000EC0188850E94BE1980931529811107C0E0
:1033D000BE0185EB98E20E94DB0780931529DF91FF
:1033E000CF9108950F931F93CF93C82F8B0185EB37
:1033F00098E20E94250AA8016C2F85EB98E20E94B2
:103400009A0980931529CF911F910F91089561E03A
:1034100085EB98E20E947F10809315290895CF9341
:10342000DF93C82FD62F41E0682F85EB98E20E94EA
:10343000770A80931529811108C04D2F6C2F85EBD9
:1034400098E20E94DB0A80931529DF91CF910895BD
:103450000F931F93CF93DF93182F062FEA0181114B
:1034600014C048856CE085EB98E20E940D078093BC
:10347000152981110FC09E01402F612F85EB98E225
:103480000E94200D8093152905C08130A1F7488541
:1034900063E1E9CFDF91CF911F910F9108959A01D8
:1034A000AB01682F85EB98E20E944C0E80931529A2
:1034B0000895AB01682F85EB98E20E94B10E8093CE
:1034C00015290895682F85EB98E20E94070F8093D5
:1034D0001529089561E085EB98E20E94E41380933A
:1034E00015290895462FBC0185EB98E20E9415141A
:1034F00080931529089561E085EB98E20E94F90F09
:10350000809315290895682F85EB98E20E94B30FE8
:10351000809315290895AB01BC0185EB98E20E94C8
:103520004B118093152908959A01AB01BC0185EBDD
:1035300098E20E94ED118093152908959A01AB013C
:10354000BC0185EB98E20E94EF1280931529089543
:103550009A01AB01682F85EB98E20E9418158093C1
:10356000152908959A01AB01682F85EB98E20E9416
:103570005415809315290895462F682F85EB98E2FE
:103580000E94911580931529089585EB98E20E9479
:10359000E515809315290895BC0185EB98E20E94FA
:1035A000A514809315290895242FAB01682F85EB6E
:1035B00098E20E94DD16809315290895242FAB010F
:1035C000682F85EB98E20E941916809315290895BB
:1035D000242FAB01682F85EB98E20E94A6178093F9
:1035E00015290895242FAB01682F85EB98E20E94DE
:1035F000191880931529089580E0089580E00895B2
:103600000E949E0480E008950E94720480E0089564
:103610000C94CA040F931F93CF93DF93CDB7DEB7FB
:10362000C158D109CDBFDEBF9E0128573F4FF901D8
:10363000419151919F018E010F5F1F4F80E8F8016A
:1036400011928A95E9F760E870E0C8010E94D422DF
:10365000F80101900020E9F73197E01BF10BCF57FB
:10366000DF4FE883C158D040CF57DF4F8881C15822
:10367000D0401F928F931F930F930E94BE220F90F2
:103680000F900F900F90CF57DF4FCDBFDEBFDF9170
:10369000CF911F910F910895089580E0089542E021
:1036A00068ED80E790E00E942C1E40E068ED81E626
:1036B00090E00E942C1E80E0089580E00895E0E1F3
:1036C000F4E0808188608193E83184E0F807C9F7ED
:1036D000E0E3F4E0808188608193E83384E0F807D8
:1036E000C9F7E0E5F4E0808188608193E83584E003
:1036F000F807C9F7E0E7F4E0808188608193E83754
:1037000084E0F807C9F7E0E9F4E0808188608193FC
:10371000E83984E0F807C9F7E0EBF4E080818860DD
:103720008193E83B84E0F807C9F70895A198E1EB9D
:10373000F4E08081877F8083A898A09A0C94321E41
:103740000B98039AE3E1F4E08081877F8083808196
:103750008F7780838081887F80830A98029AE2E154
:10376000F4E08081877F808380818F778083808170
:10377000887F80830C94621D0E945F1B6A98629A06
:103780000E944F1B0E94961B0E945D1B0E94301ED0
:103790000E94A01B0C944D1BE0EAF8E08481886035
:1037A0008483858181608583E6E1F9E280818E7F73
:1037B000808313868EE00895E6E1F9E280818E7FB2
:1037C0008083138680E00895E0EAF8E084818360D6
:1037D0008483E6E1F9E280818E7F8083138680E036
:1037E0000895E6E1F9E28081886080838181880F15
:1037F00081608093A70884E008950C94F11BE6E1B2
:10380000F9E28081886080838181880F8093A70896
:1038100083E008950C94FF1B80911629877F809385
:10382000162982E080932129E0912629F091272909
:1038300080913229909133290995823021F083308B
:1038400021F40C94FF1B0C94F11B0C94E41BE0EA94
:10385000F8E084818B7F848384E00895E0EAF8E0D7
:1038600084818B7F848383E00895E0EAF8E084819B
:1038700084608483848183608483E6E1F9E28081CB
:103880008E7F8083138680E00895E0EAF8E08481EB
:103890008460848388E008958091A508886080937F
:1038A000A50882E080932129E0912429F09125291F
:1038B00080913029909131290995823021F083300F
:1038C00021F40C94FF1B0C94F11B0C94CC1BE0EA2C
:1038D000F8E0848188608483858181608583E6E166
:1038E000F9E280818E7F808382E083878EE0089575
:1038F0008091A508806C8093A5088091162983FF8C
:1039000007C08091A50884FF03C08FE08093202921
:103910008091A50883FF03C080E1809320298091D6
:10392000A50882FF03C081E180932029E09120292E
:10393000F0E0EE0FFF1FE65EF74D0190F081E02D05
:10394000099580932029089581E0089585E00895E0
:103950008091A50884FF13C0E0912829F0912929BE
:1039600080913429909135290995823021F0833056
:1039700021F40C94FF1B0C94F11B0C94E41B80911C
:103980001629877F80931629E0911829F09119292B
:10399000CF010196809318299093192980818093F3
:1039A000A80880911A2990911B29019780931A29C0
:1039B00090931B29892B11F485E0089583E00895E5
:1039C00080911629877F8093162980911A299091DA
:1039D0001B292091A4088130910511F4246001C0B5
:1039E0002B7F2093A408019780931A2990931B2979
:1039F000E0911829F0911929892B09F58091A808DF
:103A00008083809118299091192901968093182913
:103A10009093192980911629846080931629E0914A
:103A20002229F091232980912E2990912F290995FF
:103A30008250823010F40C94451C0C94351C8091FB
:103A4000A808808380911829909119290196809364
:103A50001829909319298091A40882608093A40862
:103A600084E008958091A50884FF0EC0E091282984
:103A7000F091292980913429909135290995823036
:103A8000B9F08330B9F01AC0809116298460809310
:103A90001629E0912229F091232980912E299091D5
:103AA0002F290995833031F0843031F0823031F4A0
:103AB0000C94F11B0C94FF1B0C94A81C0C94E41B9D
:103AC0000C94F11BE0EAF8E08FE5868381E08383C4
:103AD00008959091162991FD4EC080931729892F42
:103AE000847F9EE09093202924EF31E020931E29CB
:103AF00030931F29826084608093162984EA9CE1B8
:103B0000809322299093232910922E2910922F29F5
:103B100080932429909325291092302910923129DD
:103B200080932629909327291092322910923329C5
:103B300080932829909329291092342910923529AD
:103B400086EA9CE180932A2990932B2910923629AA
:103B5000109237298091A40888608093A4088091EE
:103B6000A50881608093A5088091A508806C80934A
:103B7000A50880E0089581E008958091A50882FF5E
:103B800008C0809116298E7F8093162982E0809349
:103B900021298091162980FD13C08D7F80931629DD
:103BA0008FEF809317298091A508806C8093A508DA
:103BB0008091A3088F738093A30880912129089591
:103BC00081E008959C019091162992FF0CC02093EA
:103BD00018293093192960931A2970931B29892F6A
:103BE0008B7F8093162908958091162980FF17C036
:103BF0008FE493EC0197F1F700C000008091A508D5
:103C000087FD04C08091A50886FFF8CF8FE493EC70
:103C10000197F1F700C000000E94781CE5CF0895DD
:103C20009091162990FD10C09160909316298823D9
:103C300011F081E001C082E0809320290E94781C6D
:103C40000E94F41D80E0089581E0089581E00C94C5
:103C5000101E80E00C94101EFC0164BF4083089588
:103C600080E00895E0E4F8E086EB92E080879187B9
:103C700080EC86838EE398E280938B2990938C2945
:103C800080E008959091440895FFFCCF809342080E
:103C900008950E94421E80E090E008955058BB278E
:103CA000AA270E94661E0C94F71F0E94E91F38F095
:103CB0000E94F01F20F039F49F3F19F426F40C9471
:103CC000E61F0EF4E095E7FB0C94B71FE92F0E9466
:103CD000082058F3BA17620773078407950720F086
:103CE00079F4A6F50C9442200EF4E0950B2EBA2F31
:103CF000A02D0B01B90190010C01CA01A0011124F2
:103D0000FF27591B99F0593F50F4503E68F11A169D
:103D1000F040A22F232F342F4427585FF3CF46952E
:103D200037952795A795F0405395C9F77EF41F1650
:103D3000BA0B620B730B840BBAF09150A1F0FF0F1A
:103D4000BB1F661F771F881FC2F70EC0BA0F621F06
:103D5000731F841F48F4879577956795B795F795F6
:103D60009E3F08F0B0CF9395880F08F09927EE0F8B
:103D70009795879508950E942A2090F09F3748F4E0
:103D8000911116F40C94432060E070E080E89FE30A
:103D9000089526F01B16611D711D811D0C94BD1F19
:103DA0000C94D81F0E94E61E0C94F71F0E94F01F6F
:103DB00058F00E94E91F40F029F45F3F29F00C946D
:103DC000B71F51110C9443200C94E61F0E94082049
:103DD00068F39923B1F3552391F3951B550BBB273A
:103DE000AA2762177307840738F09F5F5F4F220F7F
:103DF000331F441FAA1FA9F335D00E2E3AF0E0E876
:103E000032D091505040E695001CCAF72BD0FE2FBF
:103E100029D0660F771F881FBB1F26173707480753
:103E2000AB07B0E809F0BB0B802DBF01FF2793580B
:103E30005F4F3AF09E3F510578F00C94B71F0C94F9
:103E400043205F3FE4F3983ED4F3869577956795DA
:103E5000B795F7959F5FC9F7880F911D9695879540
:103E600097F90895E1E0660F771F881FBB1F62175F
:103E700073078407BA0720F0621B730B840BBA0B1D
:103E8000EE1F88F7E09508950E944B1F6894B111CA
:103E90000C94432008950E94102088F09F5798F0BA
:103EA000B92F9927B751B0F0E1F0660F771F881F3F
:103EB000991F1AF0BA95C9F714C0B13091F00E9459
:103EC0004220B1E008950C944220672F782F882774
:103ED000B85F39F0B93FCCF3869577956795B39580
:103EE000D9F73EF490958095709561957F4F8F4FEF
:103EF0009F4F0895E89409C097FB3EF490958095F4
:103F0000709561957F4F8F4F9F4F9923A9F0F92F9F
:103F100096E9BB279395F695879577956795B7951D
:103F2000F111F8CFFAF4BB0F11F460FF1BC06F5F03
:103F30007F4F8F4F9F4F16C0882311F096E911C015
:103F4000772321F09EE8872F762F05C0662371F036
:103F500096E8862F70E060E02AF09A95660F771F4A
:103F6000881FDAF7880F9695879597F9089597F93E
:103F70009F6780E870E060E00895882371F47723FC
:103F800021F09850872B762F07C0662311F49927CC
:103F90000DC09051862B70E060E02AF09A95660F74
:103FA000771F881FDAF7880F9695879597F90895F8
:103FB0009F3F31F0915020F4879577956795B7959D
:103FC000880F911D9695879597F908959FEF80EC3E
:103FD000089500240A94161617061806090608956F
:103FE00000240A9412161306140605060895092ED5
:103FF0000394000C11F4882352F0BB0F40F4BF2B44
:1040000011F460FF04C06F5F7F4F8F4F9F4F089583
:1040100057FD9058440F551F59F05F3F71F0479579
:10402000880F97FB991F61F09F3F79F0879508955E
:10403000121613061406551FF2CF4695F1DF08C07D
:10404000161617061806991FF1CF8695710561059A
:10405000089408950E941020A0F0BEE7B91788F4D4
:10406000BB279F3860F41616B11D672F782F88275D
:10407000985FF7CF869577956795B11D939596399B
:10408000C8F30895E894BB2766277727CB0197F9F3
:1040900008950E945C200C94F71F0E94E91F38F0DD
:1040A0000E94F01F20F0952311F00C94B71F0C9480
:1040B000E61F11240C9443200E94082070F3959F62
:1040C000C1F3950F50E0551F629FF001729FBB270F
:1040D000F00DB11D639FAA27F00DB11DAA1F649FAB
:1040E0006627B00DA11D661F829F2227B00DA11D5E
:1040F000621F739FB00DA11D621F839FA00D611DE4
:10410000221F749F3327A00D611D231F849F600D04
:10411000211D822F762F6A2F11249F5750409AF02D
:10412000F1F088234AF0EE0FFF1FBB1F661F771FB9
:10413000881F91505040A9F79E3F510580F00C9484
:10414000B71F0C9443205F3FE4F3983ED4F3869569
:1041500077956795B795F795E7959F5FC1F7FE2B24
:10416000880F911D9695879597F90895DB018F9398
:104170009F930E942221BF91AF91A29F800D911D1C
:10418000A39F900DB29F900D11240895991B79E083
:1041900004C0991F961708F0961B881F7A95C9F7D7
:1041A00080950895AA1BBB1B51E107C0AA1FBB1F26
:1041B000A617B70710F0A61BB70B881F991F5A95B3
:1041C000A9F780959095BC01CD01089597FB072E26
:1041D00016F4009407D077FD09D00E94D22007FC86
:1041E00005D03EF4909581959F4F08957095619507
:1041F0007F4F0895A1E21A2EAA1BBB1BFD010DC023
:10420000AA1FBB1FEE1FFF1FA217B307E407F50786
:1042100020F0A21BB30BE40BF50B661F771F881F62
:10422000991F1A9469F760957095809590959B01F8
:10423000AC01BD01CF010895EE0FFF1F0590F49171
:10424000E02D09940E942D21A59F900DB49F900D03
:10425000A49F800D911D11240895A29FB001B39FCA
:10426000C001A39F700D811D1124911DB29F700D7F
:10427000811D1124911D08950F931F93CF93DF93F8
:10428000869F8001879F100D969F100D1124C801F5
:104290000E945821EC01009729F0A80160E070E02D
:1042A0000E94A022CE01DF91CF911F910F9108951E
:1042B0000F931F93CF93DF938230910510F482E028
:1042C00090E0E0918729F091882920E030E0A0E09B
:1042D000B0E0309719F14081518102811381481774
:1042E0005907C8F08417950769F4109731F01296B2
:1042F0000C93129713961C9327C000938729109351
:10430000882922C02115310519F04217530718F4E6
:104310009A01BD01EF01DF01F801DBCF2115310565
:10432000F9F0281B390B2430310580F48A819B81F8
:104330006115710521F0FB018283938304C0809392
:10434000872990938829FE01329644C0FE01E20F2E
:10435000F31F8193919322503109288339833AC006
:104360002091852930918629232B41F42091022820
:1043700030910328209385293093862920910028A5
:10438000309101282115310541F42DB73EB74091F8
:10439000042850910528241B350BE0918529F091C4
:1043A0008629E217F307A0F42E1B3F0B28173907C5
:1043B00078F0AC014E5F5F4F2417350748F04E0F81
:1043C0005F1F40938529509386298193919302C062
:1043D000E0E0F0E0CF01DF91CF911F910F910895C0
:1043E000CF93DF93009709F481C0FC0132971282CA
:1043F0001382A0918729B0918829109781F4208198
:104400003181820F931F20918529309186292817A9
:10441000390751F5E0938529F093862967C0ED01AE
:1044200020E030E0CE17DF0740F44A815B819E0137
:1044300041155105F1F0EA01F5CFC283D3834081E4
:104440005181840F951FC817D90759F48881998124
:10445000840F951F0296808391838A819B8182833A
:1044600093832115310529F4E0938729F093882956
:104470003DC0E901EA83FB8349915991C40FD51FDF
:10448000EC17FD0761F480819181840F951F0296DE
:10449000E90188839983828193818A839B83E0E009
:1044A000F0E012968D919C911397009719F0FD0101
:1044B000DC01F7CF8D919C9111979D012E5F3F4FAD
:1044C000820F931F2091852930918629281739075B
:1044D00069F4309729F4109287291092882902C034
:1044E00012821382A0938529B0938629DF91CF9100
:1044F0000895FC0188279927E89421912032E9F357
:10450000293010F02E30C8F32B3241F02D3239F41F
:10451000689404C00E94B622820F911D21912053FD
:104520002A30C0F31EF4909581959F4F0895FB01AA
:10453000DC0102C001900D9241505040D8F708951F
:10454000DC0101C06D9341505040E0F70895FB013C
:10455000DC014150504048F001900D920020C9F715
:1045600001C01D9241505040E0F708957AE0979FB6
:10457000902D879F802D910D11240895A0E0B0E02B
:10458000E4ECF2E20C94A125AE014B5F5F4FFA011F
:1045900061917191AF0180918B2990918C290E943A
:1045A0000023E2E00C94BA25AEE0B0E0EAEDF2E2DE
:1045B0000C949F258C01FA0186E08C8309831A8371
:1045C00077FF02C060E070E8CB0101978D839E8386
:1045D000A901BF01CE0101960E9400234D815E8199
:1045E00057FD0AC02F813885421753070CF49A01F2
:1045F000F801E20FF31F10822E96E4E00C94B82528
:10460000ABE0B0E0E6E0F3E20C9491256C017B01B5
:104610008A01FC0116821782838181FFCCC1CE0101
:1046200001963C01F6019381F70193FD859193FF7B
:1046300081917F01882309F4BAC1853239F493FD51
:10464000859193FF81917F01853229F4B60190E035
:104650000E94F724E7CF912C212C312CFFE1F31598
:10466000D8F08B3279F038F4803279F08332A1F4CB
:10467000232D20611DC08D3261F0803369F4232D1C
:10468000216016C0832D8260382EE32DE4603E2E1B
:104690002AC0F32DF8601DC037FC2DC020ED280F77
:1046A0002A3040F08E32B9F436FC81C1232D2064CB
:1046B000322E19C036FE06C08AE0989E200D1124C5
:1046C000922E11C0EAE02E9E200D1124222EF32DF1
:1046D000F0623F2E08C08C3621F4832D8068382E7E
:1046E00002C0883641F4F70193FD859193FF8191D3
:1046F0007F018111B3CF982F9F7D9554933028F47B
:104700000C5F1F4F9FE399830DC0833631F08337D1
:1047100071F0833509F059C021C0F8018081898387
:104720000E5F1F4F88248394912C530113C02801DE
:10473000F2E04F0E511CF801A080B18036FE03C09C
:10474000692D70E002C06FEF7FEFC5010E94EC247D
:104750004C018201F32DFF773F2E16C0280122E085
:10476000420E511CF801A080B18036FE03C0692DB5
:1047700070E002C06FEF7FEFC5010E94E1244C01A1
:10478000F32DF0683F2E820133FC1BC0822D90E098
:1047900088169906B0F4B60180E290E00E94F724F2
:1047A0002A94F4CFF50137FC859137FE81915F01A2
:1047B000B60190E00E94F72421102A9421E0821A89
:1047C00091088114910471F7E8C0843611F089369C
:1047D00041F5F80137FE07C06081718182819381C4
:1047E0000C5F1F4F08C060817181072E000C880B81
:1047F000990B0E5F1F4FF32DFF763F2E97FF09C0D9
:1048000090958095709561957F4F8F4F9F4FF06881
:104810003F2E2AE030E0A3010E943325882E86181F
:1048200045C0853731F4232D2F7EB22E2AE030E0AB
:1048300025C0932D997FB92E8F36C1F018F4883595
:1048400079F0B5C0803719F0883721F0B0C0E92F72
:10485000E061BE2EB4FE0DC0FB2DF460BF2E09C07A
:1048600034FE0AC0292F2660B22E06C028E030E0B0
:1048700005C020E130E002C020E132E0F801B7FEDF
:1048800007C060817181828193810C5F1F4F06C0D8
:104890006081718180E090E00E5F1F4FA3010E9454
:1048A0003325882E8618FB2DFF773F2E36FE0DC050
:1048B000232D2E7FA22E891458F434FE0BC032FC17
:1048C00009C0832D8E7EA82E05C0B82CA32C03C052
:1048D000B82C01C0B92CA4FE0FC0FE01E80DF11DDB
:1048E0008081803321F49A2D997EA92E09C0A2FEE1
:1048F00006C0B394B39404C08A2D867809F0B394AB
:10490000A3FC11C0A0FE06C0B21488F4280C922C9F
:104910009B180EC0B21460F4B60180E290E00E94D1
:10492000F724B394F7CFB21418F42B1802C0982CC4
:10493000212CA4FE10C0B60180E390E00E94F72471
:10494000A2FE17C0A1FC03C088E790E002C088E582
:1049500090E0B6010CC08A2D867859F0A1FE02C005
:104960008BE201C080E2A7FC8DE2B60190E00E94DC
:10497000F724891438F4B60180E390E00E94F7240C
:104980009A94F7CF8A94F301E80DF11D8081B60166
:1049900090E00E94F7248110F5CF222009F442CE46
:1049A000B60180E290E00E94F7242A94F6CFF60147
:1049B0008681978102C08FEF9FEF2B96E2E10C94E6
:1049C000AA25FC010590615070400110D8F7809530
:1049D00090958E0F9F1F0895FC01615070400190CB
:1049E0000110D8F7809590958E0F9F1F08950F9313
:1049F0001F93CF93DF93FB01238121FD03C08FEF32
:104A00009FEF2CC022FF16C046815781248135813B
:104A10004217530744F4A081B1819D012F5F3F4F9E
:104A2000208331838C93268137812F5F3F4F2683EC
:104A3000378314C08B01EC01FB010084F185E02D6C
:104A40000995892BE1F6D80116968D919C911797BF
:104A5000019616968D939C931797CE01DF91CF9177
:104A60001F910F910895FA01AA27283051F12031A2
:104A700081F1E8946F936E7F6E5F7F4F8F4F9F4FF2
:104A8000AF4FB1E03ED0B4E03CD0670F781F891F34
:104A90009A1FA11D680F791F8A1F911DA11D6A0F02
:104AA000711D811D911DA11D20D009F468943F91B5
:104AB0002AE0269F11243019305D3193DEF6CF01B4
:104AC0000895462F4770405D4193B3E00FD0C9F77A
:104AD000F6CF462F4F70405D4A3318F0495D31FDE7
:104AE0004052419302D0A9F7EACFB4E0A69597953A
:104AF000879577956795BA95C9F700976105710510
:104B000008959B01AC010A2E069457954795379559
:104B10002795BA95C9F7620F731F841F951FA01DB3
:104B200008952F923F924F925F926F927F928F9251
:104B30009F92AF92BF92CF92DF92EF92FF920F932C
:104B40001F93CF93DF93CDB7DEB7CA1BDB0BCDBF6F
:104B5000DEBF09942A88398848885F846E847D8402
:104B60008C849B84AA84B984C884DF80EE80FD8015
:104B70000C811B81AA81B981CE0FD11DCDBFDEBFB3
:084B8000ED010895F894FFCF48
:104B8800696E697469616C697A65206661696C65CA
:104B980064206572726F723A2025640A004368695E
:104BA80070206E616D65203A0925730A0D004D610C
:104BB8006E7566616374757265723A200925730AA9
:104BC8000D00496E746572666163653A2009257344
:104BD8000A0D00537570706C7920766F6C7461677C
:104BE80065206D6178203A200925302E3266560AF4
:104BF8000D00537570706C7920766F6C7461676501
:104C0800206D696E3A200925302E3266560A0D004D
:104C18004D6178696D756D2063757272656E743A51
:104C2800200925302E31666D410A0D0054656D70DE
:104C380065726174757265204D61783A2009252E78
:104C48003166430A0D0054656D7065726174757242
:104C580065204D696E3A2009252E3166430A0D00FC
:104C68004472697665722076657273696F6E3A2050
:104C78000956252E31662E252E32640A0D004A610A
:104C88006E20323620323032340031343A31323A02
:104C980034380054696D653A20252E32643A000D87
:104CA8000A646174653A2025730020252E32640059
:104CB800202564200A0D00616C61726D2074696D95
:104CC800653A20252E32643A00696E7420666C615C
:104CD800673A2025640A00666C61672025640A002B
:104CE800707772206661696C3A252E32643A002525
:104CF8002E3264202D2000252E32640D0A0074699E
:104D08006D6520646174653A20256C750D0A006331
:104D1800757272656E7420746D3A2025642D256451
:104D28002D25642020253032643A253032643A2516
:104D38003032642C2025730A0D006661696C656445
:104D480020746F20616C6C6F63617465206D656D94
:104D58006F72790A0D00252E3278203A00252E32FE
:104D6800702000252E3278200065706F63682077E8
:104D780072697474656E3A20252E32700A0D0065CA
:104D88006570726F6D206765743A20256C750A0D21
:104D9800004E554C4C004A616E756172790046654B
:104DA800627275617279004D617263680041707258
:104DB800696C004D6179004A756E65004A756C79B9
:104DC800004175677573740053657074656D62652D
:104DD80072004F63746F626572004E6F76656D6224
:104DE800657200446563656D6265720053756E6433
:104DF8006179004D6F6E6461790054756573646103
:104E080079005765646E65736461790054687572DA
:104E180073646179004672696461790053617475DD
:104E28007264617900998D9E8DA68DAF8DB58DBB0D
:104E38008DBF8DC48DC98DD08DDA8DE28DEB8D99A6
:104E48008DF48DFB8D028E0A8E148E1D8E248E6D30
:104E5800637037393478783A206661696C65642004
:104E6800746F2025732E0D0A006D637037393478FE
:104E7800783A2069326320696E697469616C697A6D
:104E880065206973206E756C6C0A006D6370373924
:104E98003478783A206932635F6465696E74206992
:104EA80073206E756C6C0A006D63703739347878CE
:104EB8003A206932635F72656164206973206E7598
:104EC8006C6C0A006D637037393478783A2069322F
:104ED800635F7772697465206973206E756C6C0AFC
:104EE800006D637037393478783A20726563656984
:104EF80076655F63616C6C6261636B0A006D6370F9
:104F080037393478783A2064656C61795F6D730A53
:104F1800006D637037393478783A206932632069D4
:104F28006E697469616C697A65206661696C65642B
:104F38000A0064652D696E697469616C697A652017
:104F4800693263006765742076617269616E740006
:104F5800726561642074696D6520616E64206461A6
:104F68007465007265616420686F757220666F727F
:104F78006D6174206265666F726520777269746509
:104F88000073657420686F757220666F726D617446
:104F9800200067657420686F757220666F726D6196
:104FA8007400726561642074696D6520616D2F708D
:104FB8006D20696E64696361746F72206265666FE3
:104FC8007265207772697465007365742074696D01
:104FD8006520616D2F706D20696E64696361746FFF
:104FE80072007365742074696D652C20796561722F
:104FF8002063616E206E6F74206265206C65737328
:10500800207468616E2030206F7220677265617449
:105018006572207468616E20393900736574207474
:10502800696D652C206D6F6E74682063616E206EEB
:105038006F74206265206C657373207468616E20DC
:1050480031206F72206772656174657220746861BF
:105058006E203132007365742074696D652C20648C
:105068006174652063616E206E6F74206265206CC8
:10507800657373207468616E2031206F72206772C7
:105088006561746572207468616E203331007365E0
:10509800742074696D652C207765656B206461796F
:1050A8002063616E206E6F74206265206C65737377
:1050B800207468616E2031206F7220677265617498
:1050C8006572207468616E20370073657420746996
:1050D8006D652C206D696E7574652063616E206E38
:1050E8006F74206265206C657373207468616E202C
:1050F80030206F7220677265617465722074686110
:105108006E203539007365742074696D652C2073C1
:1051180065636F6E64732063616E206E6F742062C6
:1051280065206C657373207468616E2030206F721F
:105138002067726561746572207468616E20353904
:10514800007365742074696D652C20686F75722012
:1051580063616E206E6F74206265206C65737320C6
:105168007468616E2030206F7220677265617465A3
:1051780072207468616E203233007365742074691C
:105188006D652C20686F75722063616E206E6F7478
:10519800206265206C657373207468616E2031200D
:1051A8006F722067726561746572207468616E2021
:1051B8003132007365742074696D652C20696E76D0
:1051C800616C69642074696D6520666F726D6174C5
:1051D80000726561642074696D65206265666F722E
:1051E8006520777269746500746F207772697465D9
:1051F800207365636F6E647300746F2077726974CF
:1052080065206D696E7574657300746F20777269B7
:10521800746520686F75727300746F207772697493
:1052280065207765656B2064617900746F207772FB
:10523800697465206461746500746F20777269749D
:1052480065206D6F6E746800746F2077726974657D
:10525800207965617200726561642074696D6520EA
:10526800616D2F706D20696E64696361746F72007F
:1052780072656164206F7363696C6C61746F72200E
:10528800737461747573206265666F7265207772D6
:1052980069746500736574206F7363696C6C6174FD
:1052A8006F722073746174757300676574206F730F
:1052B80063696C6C61746F722073746174757300C8
:1052C800636C65617220707772206661696C207307
:1052D80074617475732C206E6F7420737570706FA1
:1052E8007274656420666F7220746865206D6370DF
:1052F800373934304D2076617269616E7400726599
:105308006164207374617475732072656700636CDF
:1053180065617220707772206661696C20737461B0
:105328007475730067657420707772206661696CA4
:10533800207374617475732C206E6F74207375708C
:10534800706F7274656420666F7220746865206D72
:105358006370373934304D2076617269616E74003C
:105368007265616420706F7765722D75702074693D
:105378006D65207374616D702C206E6F7420737569
:1053880070706F7274656420666F7220746865202F
:105398006D6370373934304D2076617269616E748F
:1053A800007265616420706F7765722D646F776E27
:1053B8002074696D65207374616D70007265616435
:1053C80020706F7765722D75702074696D65207314
:1053D80074616D7000696E76616C696420707772B3
:1053E800206661696C206D6F64652073656C656308
:1053F80074656400707772206661696C20706172F0
:10540800616D2C206E6F7420737570706F72746587
:105418006420666F7220746865206D637037393454
:10542800304D2076617269616E7400726561642026
:105438006C65617020796561722072656769737443
:105448006572007265616420636F6E74726F6C20A0
:105458007265676973746572007772697465206133
:105468006C61726D20656E61626C65207374617425
:105478007573007265616420616C61726D20656E80
:1054880061626C6520726567697374657200726524
:10549800616420616C61726D203020706F6C617284
:1054A80069747920726567697374657200726561E1
:1054B8006420616C61726D203120706F6C6172695B
:1054C800747920726567697374657200696E7661B4
:1054D8006C696420616C61726D2073656C656374BE
:1054E80065640073657420616C61726D2074696D08
:1054F800652C206D6F6E74682063616E206E6F740A
:10550800206265206C657373207468616E2030209A
:105518006F722067726561746572207468616E20AD
:1055280031320073657420616C61726D2074696D2D
:10553800652C20646174652063616E206E6F742031
:105548006265206C657373207468616E2030206F0B
:10555800722067726561746572207468616E2033A9
:10556800310073657420616C61726D2074696D65BA
:105578002C207765656B206461792063616E206EED
:105588006F74206265206C657373207468616E2087
:1055980031206F722067726561746572207468616A
:1055A8006E20370073657420616C61726D207469B8
:1055B8006D652C20686F75722063616E206E6F7444
:1055C800206265206C657373207468616E203020DA
:1055D8006F722067726561746572207468616E20ED
:1055E80032330073657420616C61726D2074696D6B
:1055F800652C206D696E7574652063616E206E6F11
:1056080074206265206C657373207468616E203045
:10561800206F722067726561746572207468616EAC
:105628002035390073657420616C61726D2074696E
:105638006D652C207365636F6E64732063616E20E3
:105648006E6F74206265206C657373207468616E78
:105658002030206F722067726561746572207468EB
:10566800616E2035390073657420616C61726D203C
:1056780074696D652C20686F75722063616E206E89
:105688006F74206265206C657373207468616E2086
:1056980030206F722067726561746572207468616A
:1056A8006E2031320073657420616C61726D2074F4
:1056B800696D652C20696E76616C69642074696D0A
:1056C8006520666F726D617400746F2077726974FB
:1056D8006520616C61726D2030207365636F6E6444
:1056E8007300746F20777269746520616C61726DE4
:1056F8002030206D696E7574657300746F20777241
:1057080069746520616C61726D203020686F7572F4
:105718007300746F20777269746520616C61726DB3
:105728002030207765656B2064617900746F20777D
:105738007269746520616C61726D203020646174D7
:105748006500746F20777269746520616C61726D91
:105758002030206D6F6E746800746F2077726974E2
:105768006520616C61726D2031207365636F6E64B2
:105778007300746F20777269746520616C61726D53
:105788002031206D696E7574657300746F207772AF
:1057980069746520616C61726D203120686F757263
:1057A8007300746F20777269746520616C61726D23
:1057B8002031207765656B2064617900746F2077EC
:1057C8007269746520616C61726D20312064617446
:1057D8006500746F20777269746520616C61726D01
:1057E8002031206D6F6E7468007265616420616C91
:1057F80061726D2030206D61736B2072656769730B
:10580800746572006661696C656420746F207365E5
:105818007420616C61726D20300072656164206172
:105828006C61726D2031206D61736B2072656769E0
:1058380073746572006661696C656420746F2073A7
:10584800657420616C61726D20310072656164203D
:10585800616C61726D20302074696D6520616E64C1
:105868002064617465007265616420616C61726DA9
:1058780020312074696D6520616E642064617465EF
:10588800006661696C656420746F206765742061C7
:105898006C61726D2074696D6520616E642064614D
:1058A8007465006661696C65642072656164206175
:1058B8006C61726D206D61736B006661696C656403
:1058C80020746F207265616420616C61726D203094
:1058D80020696E7465727275707420666C616700F9
:1058E8006661696C656420746F207265616420610B
:1058F8006C61726D203120696E7465727275707496
:1059080020666C6167007265616420616C61726D0C
:10591800203020696E7465727275707420666C61CF
:105928006720726567697374657200636C6561727C
:1059380020616C61726D203020696E7465727275B9
:10594800707420666C6167206269740072656164B6
:1059580020616C61726D203120696E746572727598
:10596800707420666C61672072656769737465720C
:1059780000636C65617220616C61726D2031206911
:105988006E7465727275707420666C6167206269E6
:10599800740072656164206374726C207265676953
:1059A80073746572007772697465206374726C2011
:1059B80072656769737465720072656164206F73DC
:1059C80063696C6C61746F72206469676974616C77
:1059D800207472696D2072656769737465720077E7
:1059E80072697465206F7363696C6C61746F72207F
:1059F8006469676974616C207472696D2072656787
:105A080069737465720072656164206F7363696C91
:105A18006C61746F722072756E6E696E6720737434
:105A280061747573007365742065787465726E614E
:105A38006C20626174746572792062636B75702C76
:105A4800206E6F7420737570706F72746564206651
:105A58006F7220746865206D6370373934304D205B
:105A680076617269616E7400736574206578746517
:105A7800726E616C20626174746572792062636B06
:105A88007570007365742065787465726E616C203A
:105A9800626174746572792062636B7570207374C7
:105AA8006174757300726561642065787465726EDF
:105AB800616C20626174746572792062636B7570C1
:105AC80020737461747573007365742065787465E8
