S01B00006D637037393478785F7274635F53414D4432312E73726563A6
S113000010240020210100001D0100001D0100003A
S113001000000000000000000000000000000000DC
S11300200000000000000000000000001D010000AE
S113003000000000000000001D0100001D01000080
S11300401D0100001D0100001D0100001D01000034
S1130050C10900001D0100001D0100001D01000078
S11300601D0100001D0100001D0100001D01000014
S11300701D0100001D0100001D0100001D01000004
S11300801D0100001D0100001D0100001D010000F4
S11300901D01000000000000000000001D01000020
S11300A01D0100001D0100001D0100001D010000D4
S11300B00000000010B5064C2378002B07D1054B37
S11300C0002B02D0044800E000BF0123237010BDC0
S11300D04002002000000000CC850000084B10B551
S11300E0002B03D00749084800E000BF0748036815
S11300F0002B00D110BD064B002BFBD09847F9E72D
S11301000000000044020020CC850000CC850000E3
S11301100000000010B500F04DF910BDFEE700002E
S1130120F0B583B02C4B7B442C4A9A5800922C4A4D
S11301309A580192009A01998A420DD0284A9A58F5
S11301402649595803E008681060043204312548F0
S1130150185800908242F6D3234A9A5802E00021AC
S1130160116004322149595800918A42F7D3204A38
S11301709B580093FF23009A9A4313001D4A9360EF
S1130180022190235B001C4AD1501C4AD3780325DA
S1130190AB4302242343D370D3780C27BB430826F4
S11301A03343D370164B987B302290432022104364
S11301B09873997BB943314399739A7BAA43224339
S11301C09A73104A516880230B43536005F0BAFFB9
S11301D001F04AF9FEE7C046A284000010000000C6
S11301E01C000000780000001800000060000000FF
S11301F00C00000000ED00E00070004100500041E0
S1130200004800410040004170B5114A114B5A802A
S1130210C020C0058024640444600F4B0F4A9A62D6
S11302200F4A9A62446058215A5C04252A43D2B288
S11302305A5484615A5C012082430243D2B25A5414
S11302401C395A5C0F2082435A5400F02BF970BDBC
S113025005400000000C0040004400410000024042
S1130260000102C070B5134B5020195C0422914365
S11302701954195C0125A94301242143C9B2195415
S11302801838195C0F26B14302263143C9B21954F8
S113029051215E5C96435E545A5CAA432243D2B217
S11302A05A541A5C42390A4020210A43D2B21A54E1
S11302B070BDC04600440041054A136A08210B433F
S11302C01362044B044A5A80044A5A807047C04659
S11302D000040040000C00401540000013430000DF
S11302E010B582B0074C7C44FFF7E6FF064BE35899
S11302F001930649180000F099F9FFF7B3FF02B023
S113030010BDC046E282000088000000000C0042DC
S113031030B50F4BC222995C0125A9430124214326
S1130320C9B29954B120195CB33A914303221143E1
S1130330C9B21954C3215A5CAA432243D2B25A54B3
S11303401A5CB4390A4030210A43D2B21A5430BD7F
S113035000440041044A136A80210B431362034A98
S1130360034B5A807047C046000400401940000007
S1130370000C004010B582B0074C7C44FFF7EAFF44
S1130380064BE358019300220549180000F018FABF
S1130390FFF7BEFF02B010BD4E82000058000000FF
S11303A0001C004210B5024800F03EF810BDC046E3
S11303B010E000E010B500F07DFAC023DB058022D8
S11303C092045A619A600A4B8022D2059A62094AC1
S11303D09A6259215A5C012082435A54FFF714FF50
S11303E0FFF77EFFFFF7C6FFFFF7DCFF10BDC04637
S11303F000440041000200C010B5044B7B44044A91
S11304009B581968012004F009F910BDCC81000043
S11304105C00000010B503497944182000F05CF832
S113042010BDC046DDFFFFFF10B5034B7B441860D1
S113043000F0F6FF10BDC0462CFEFF1F10B5054BA3
S11304407B441C6800F030FA0100200000F0ECFF4F
S113045010BDC04618FEFF1F70B50125002408E03A
S11304600E4A7A44B358002B00D0984770BD013A25
S1130470D5B2AC42FAD82B195B10DAB2002AF5D106
S1130480FF210B40DE0006497944891949688142FD
S1130490E6D0ECD20132D4B2EBE7C046FAFDFF1F3E
S11304A0D4FDFF1F10B50023002B04D00848784466
S11304B000F014FA10BD074A7A44D90050180124F8
S11304C0644244600020885001339BB2ECE7C0468C
S11304D0A7FFFFFFA4FDFF1FF0B5C64600B584B01B
S11304E001900023002B11D00023984600291ED030
S11304F04346002B4CD1002B29D1DA002D4C7C44EF
S11305001259002A1AD00133DBB2F4E7DC002A4A7C
S11305107A44121952680198824202D00133DBB244
S1130520E0E7264B7B44E15001239846DEE743464F
S1130530002B38D0019800F01DFA30E0204A7A44AC
S1130540DD00A9505519019A6A60012290460022E3
S113055001E00132D2B21900114319D11949794489
S1130560DC000C196768D400091949688F42F0D27D
S11305704C1CEED0144F7F44D100BC46614402AF02
S11305803E0011C911C6DD00654403CF03C5E0E791
S11305904346002B0AD00121019800F0EBF904B086
S11305A004BC9046F0BD0D204042F8E70D204042C7
S11305B0F5E7C0465EFDFF1F4CFDFF1F38FDFF1F22
S11305C01EFDFF1FFEFCFF1FE6FCFF1F10B584B0DD
S11305D01438848B01AB1C8014000292064A5A80A2
S11305E00391190000F084FD002802D1200004B01A
S11305F010BD0400FAE7C0460080FFFF10B584B0C8
S11306001438848B01AB1C8014000292064A5A8071
S11306100391190000F06CFD002802D1200004B001
S113062010BD0400FAE7C0460180FFFF70B5040066
S11306300D00431E9841C0B25E220849794400F07F
S11306400DF92900200000F0FDFC002805D1044B21
S11306507B44A361034B7B44636170BDAC650000C4
S1130660A9FFFFFF73FFFFFF10B500F001FD10BDF0
S11306708905890D8023DB001A400A438283100018
S113068070471430086000207047000070B5040003
S11306900D00160000280FD000290BD001203422B1
S11306A00649794400F0DAF8236832002900200072
S11306B0984770BD0020F2E70020F0E76265000073
S11306C070B504000D00160000280FD000290BD0CF
S11306D001203D220649794400F0C0F863683200E5
S11306E029002000984770BD0020F2E70020F0E7C1
S11306F02E650000F8B505000E001700002824D070
S1130700002924D0002A24D10020F122124979445E
S113071000F0A4F82C000834200000F082FC00282B
S1130720F8D00025715D200000F073FC200000F07B
S113073078FC0028FAD00135BD42F3D3200000F044
S113074075FC0028FAD02800F8BD0020DDE7002061
S1130750DBE70120D9E7C0460A650000F8B5CE46BC
S1130760474680B5051E8846914620D0002920D0F2
S1130770002A20D10020862252001049794400F03A
S11307806DF800262C000834200000F055FC0028E9
S1130790F8D043469F19200000F03FFC3870013622
S11307A04E45EFD330000CBC90469946F8BD00206E
S11307B0E1E70020DFE70120DDE7C0469C6400009C
S11307C070B504000D00002817D0002913D00120B3
S11307D034220B49794400F041F820000830290004
S11307E000F0FCFB002805D1064B7B446360064BFC
S11307F07B44236070BD0020EAE70020E8E7C046A0
S1130800446400006FFFFFFF01FFFFFF10B5040009
S1130810431E9841C0B253220449794400F01EF8A3
S11308202000083000F0ECFB002010BDFE63000047
S113083070B504000D0000280CD0002908D0012058
S113084069220549794400F009F82C60002070BD44
S11308500020F5E70020F3E7D4630000002800D16E
S113086000BE704782B003000A4A7A440A497944B8
S11308700968002906D0094A7A441068C31813602D
S113088002B07047064952580192064A7A440199C7
S11308901160F0E75E7D0000F6F9FF1FECF9FF1F21
S11308A07C000000D8F9FF1F03011B1A1A01642001
S11308B05043704710B5084B5A685A6000F0FEF870
S11308C000F054FD022000F0D9F800F05BFDFD209B
S11308D000F0D4F810BDC04600400041224B5B78C4
S11308E0DB09FBD1204B5B78DB09FBD11E4B1B786A
S11308F09B070AD500221C4B1A701B4B5B78DB0943
S1130900FBD1194B5B78DB09FBD10122164B1A7022
S1130910154B5B78DB09FBD1134B5B78DB09FBD10F
S1130920114B00229A705A605A619A618022920295
S1130930DA611A7802210A43D2B21A700A4B5B7840
S1130940DB09FBD1094B102280215A50BFF34F8F92
S1130950BFF36F8F0131FF315A501A60044B7B444F
S1130960186000207047C0460018004000E100E015
S11309700AF9FF1F0023002B0BD0FF22FF2A18D0F7
S1130980002910D1012393400B4A93601361002086
S11309907047182802D00133DBB2ECE7DA00074BCA
S11309A07B44D25CEAE701239340034AD3600020EE
S11309B0EEE70D204042EBE700180040946200008F
S11309C070B582B0284B1A69D9680A400192019A1D
S11309D01A61264B7B441868431E9841C0B2D22248
S11309E023497944FFF73AFF01256D4230E001398C
S11309F0CEB2B0420FD832185210D1B2FF231340F6
S1130A00DB001C4A7A449B5CA34203D0EFDA013139
S1130A10C8B2EEE718256B1C04D0174B7B441B6847
S1130A20280098470122A240019B93430193019817
S1130A3004F074FA013844B2631C02D00126002089
S1130A40D7E7094B1A69D9680A400192019A1A61D9
S1130A50019B002B05D0019804F060FA013844B2E0
S1130A60EAE702B070BDC0460018004094F8FF1FCA
S1130A705A620000306200004CF8FF1FC30709D51A
S1130A800B4B802252009A600A4A5A60084B5B78EA
S1130A90DB09FBD1830709D5054B0222FF329A609B
S1130AA0054A5A60024B5B78DB09FBD17047C046AC
S1130AB0000C00400007010001030100074B1A7AF3
S1130AC001210A43D2B21A725A7AD2B25A729A7A6B
S1130AD0D2B29A72DA7AD2B2DA7270470004004063
S1130AE0024B9C466044800AC0B2704700F8FFBDC8
S1130AF010B5FFF7F5FF02000020002807D0094ACF
S1130B00094979440020FFF7A9FE002010BD8300A5
S1130B101B189900054B7B44CB5C9A42F6D00130FC
S1130B20C0B2EAE73A020000A26100003E610000A0
S1130B3070B50400FFF7DCFFE369DB071ED4830014
S1130B401B189A00384B7B449B185A681C231A4084
S1130B50E3699B07FCD123689B0709D5236802211D
S1130B608B432360E3699B07FCD1E3699B07FCD4B7
S1130B70012313432360E3699B07FCD1E369DB078B
S1130B80FCD483001B189A00284B7B449B185B6899
S1130B902360E3699B07FCD183001B189A00244B54
S1130BA07B449B189B686360E3695B07FCD183000B
S1130BB01B189A001F4B7B449B185B689A040CD447
S1130BC0C022D201134208D183001B189A001A4B89
S1130BD07B449B189B89A38116E083001B189A0011
S1130BE01649794489188A89A389D204D20C5B0BEB
S1130BF05B031343A3818B7B07221A40A38952030F
S1130C00DB04DB0C1343A3810D4B7B4482001518DA
S1130C10A9000D005918C97BA1735B191A7C3023F4
S1130C20E254002070BDC0460E610000CA6000009E
S1130C30B46000009E6000008460000072600000E8
S1130C404A60000010B5FFF74BFF0023002B09D0CA
S1130C50E62292000A4979440020FFF7FFFD0120B3
S1130C60404210BD5A00D218D100064A7A445218A4
S1130C70127D904202D00133DBB2E7E758B2F0E7CD
S1130C804E600000E85F000070B505000C0008002D
S1130C90FFF7D8FFC0B2E369DB071ED443001B187B
S1130CA0DA002C4B7B449B189A691C231A40E36995
S1130CB09B07FCD123689B0709D5236802218B433A
S1130CC02360E3699B07FCD1E3699B07FCD4012300
S1130CD013432360E3699B07FCD1E369DB07FCD47E
S1130CE043001B18DA001C4B7B449B189B69236050
S1130CF0E3699B07FCD143001B18DA00174B7B44C4
S1130D009B18DB696360E3695B07FCD4420012183B
S1130D10D100134B7B445B181A6AE260DA7E03232A
S1130D201A40AA81023B93429B415B42626A0D498D
S1130D300A409B0313436362E3695B07FCD44300EB
S1130D401818C200084B7B449B18DB8CEB810020F5
S1130D5070BDC046B05F00006C5F0000565F0000CD
S1130D60405F0000FFBFFFFF0E5F000070B505008D
S1130D7004692368DB0E01261E40431E9841C0B25D
S1130D808F4A90497944FFF769FD6B68012B4DD078
S1130D9063688D4A13406360E3695B07FCD42B8866
S1130DA05A054ED56A88D20704D56A888021C900BD
S1130DB00A436A805B00854A1A40E3695B07FCD4F6
S1130DC0636A8021C9010B4013438022120213433A
S1130DD06362E3695B07FCD42E697D4A337EDBB230
S1130DE01800511E002A02D00A009B07F6D023687F
S1130DF0DB0E01221A40E3695B07FCD4638B9BB2D0
S1130E00C10700D48FE09A072FD5012222766A8881
S1130E10802149010A436A806A886E490A406A80CF
S1130E20DB0700D4C6E005204042A2E0002EAFD08C
S1130E3062688023DB0213436360E3695B07FCD4CD
S1130E40ADE75B00FF2213406A8801210A401A4380
S1130E50E3695B07FCD4636A8021C9010B40134337
S1130E606362E3695B07FCD4B6E75B071BD46B885A
S1130E705B0534D52A881212520006231A40E3690E
S1130E805B07FCD4636A8021C9010B401343F12240
S1130E9013436362E3695B07FCD46B884E4A1340D7
S1130EA06B80002065E06B68002B04DD6B8880227A
S1130EB0520113436B806B881BB2002B06DB6B88DB
S1130EC0444A13406B800220404252E06268C023CF
S1130ED09B0213436360E3695B07FCD4EFE7686834
S1130EE0002811D16B881BB2002B04DB6B88394AB4
S1130EF013406B803DE06268C0239B021343636030
S1130F00E3695B07FCD4F1E7AB681A782823E25461
S1130F10E3695B07FCD4AB680133AB606B68013BEE
S1130F206B60002025E0810747D5696800293CD023
S1130F305B073AD401396960002901D1002A1BD02A
S1130F40012917D06B68002B07D16B881BB2002BCB
S1130F501BDB6B881F4A13406B80AA68531CAB6071
S1130F60E3695B07FCD42823E35C13700223237634
S1130F70002070BD002AE5D062688023DB021343A1
S1130F806360E3695B07FCD4DCE76368114A1340E0
S1130F906360E3695B07FCD46268C0239B0213436C
S1130FA06360E3695B07FCD4D3E702232376022062
S1130FB04042DEE704204042DBE70020D9E7C04698
S1130FC094050000205F0000FFFFFBFFFE07000008
S1130FD0FFFF0000FFFEFFFFFFFBFFFF70B50500F2
S1130FE00C00431E9841C0B2B42204497944FFF76F
S1130FF035FC2C602000FFF79BFD70BDB85C000041
S11310000268136802210B431360D3699B07FCD168
S11310107047036889B2198570470368188DC0B298
S113102070470368187E01231840704703681B7ECD
S11310305B0801201840704703681B7E9B08012051
S11310401840704770B504000D00431E9841C0B2AB
S1131050054A06497944FFF701FC2561290020006F
S1131060FFF712FE70BDC04607050000505C00008B
S113107070B504001A4D7D44431E9841C0B2194A0C
S11310802900FFF7EBFB24692000431E9841C0B2FE
S1131090154A2900FFF7E2FB236802221343236069
S11310A0E3699B07FCD104201049E3695B07FCD486
S11310B0628B120903231340012B0BD00139002941
S11310C0F3DC0138002807D010236383E3695B074E
S11310D0FCD4E9E7002070BD06204042FBE7C0468F
S11310E02E5C000024050000F4050000FFFF000052
S11310F0F8B505000E000469964F7F44431E9841DD
S1131100C0B2954A3900FFF7A9FB2869431E9841EC
S1131110C0B2B822D2003900FFF7A0FB3000431E52
S11311209841C0B28D4A3900FFF798FB6B88DB0504
S113113000D50BE1728880235B009C461A437280C1
S11311402A00310089C989C2626863461343636017
S1131150E3695B07FCD42800FFF708FE002800D1F0
S11311609DE06B887E4A13406B80F8BD05204042A9
S1131170A6E073881BB2002B04DB6B88784A13400B
S11311806B80F2E76268C0239B0213436360E369E8
S11311905B07FCD4F1E753071BD46B885B0534D59C
S11311A02A881212520006231A40E3695B07FCD412
S11311B0636A8021C9010B401343F1221343636224
S11311C0E3695B07FCD46B88664A13406B8000209C
S11311D065E06B68002B04DD6B88802252011343A9
S11311E06B806B881BB2002B06DB6B885C4A134058
S11311F06B800220404252E06268C0239B0213438A
S11312006360E3695B07FCD4EFE76868002811D1E9
S11312106B881BB2002B04DB6B88514A13406B8034
S11312203DE06268C0239B0213436360E3695B078C
S1131230FCD4F1E7AB681A782823E254E3695B072E
S1131240FCD4AB680133AB606B68013B6B6000207E
S113125025E0BB0778D56B68002B6DD052076BD4A3
S1131260013B6B60002B01D100294CD0012B48D0ED
S11312706B68002B07D16B881BB2002B4CDB6B888F
S1131280374A13406B80AA68531CAB60E3695B0761
S1131290FCD42823E35C13700223237600206B889C
S11312A0DB0500D461E728692F4A037EDBB21F0007
S11312B0511E002A00D159E70A009B07F5D00020EF
S11312C0002800D055E72368DB0E01211940E369AB
S11312D05B07FCD4628B92B2FB07BAD5930700D4A8
S11312E059E7012323766B88802149010B436B80E6
S11312F06B881B490B406B80D30722D505204042E5
S1131300CDE70029B4D062688023DB021343636015
S1131310E3695B07FCD4ABE76368114A134063607D
S1131320E3695B07FCD46268C0239B0213436360D8
S1131330E3695B07FCD4A2E7022323760220404240
S1131340ADE704204042AAE70020A8E70620404277
S11313500BE7C046AA5B0000BF050000C105000002
S1131360FFFEFFFFFFFBFFFFFFFF0000044B9A6936
S113137002210A439A611A7F1D310A401A77704785
S1131380000800408222D2011C4B5A8002221C4BCE
S11313909A841B4BDB68DB06FBD51A4A184BDA62CE
S11313A0194B1B689B0E3F2B20D09B02802292007E
S11313B01343134A936206239384938C5B0718D5D3
S11313C00F4BDA68D0231340D02BF9D10C4A938CFD
S11313D080210B439BB29384084B5B78DB09FBD1E0
S11313E0074A936902218B4393617047FC23DB0115
S11313F0DFE7034BDB68DB06FBD5E7E7000C0040C7
S113140000080040B905010424608000024B034A2F
S11314105A6005221A60704710E000E0FFFFFF00E9
S113142010B5FFF7F3FF10BD080E0BE00B4B0C4893
S113143058609860094B1B68DB03FBD5094B9C463D
S113144061441000421ED2B20028EFD1034B596010
S11314509960024B1B68DB03FBD5704710E000E08A
S1131460FFFFFF00010000FFF0B587B0C54D7D44CC
S1131470FEF750FE072002F0C3FF011E73D1C24CD9
S11314807C44200002F080FF21002431BF487844CE
S113149003F0A0FA21002E31BD48784403F09AFAF3
S11314A021004731BB48784403F094FA206D04F0DE
S11314B0C7FC02000B00B848784403F08BFAE06CD8
S11314C004F0BEFC02000B00B448784403F082FA36
S11314D0606D04F0B5FC02000B00B148784403F0E1
S11314E079FAE06D04F0ACFC02000B00AD487844DE
S11314F003F070FAA06D04F0A3FC02000B00AA48EC
S1131500784403F067FA646EA849201C03F028FDB0
S1131510061CA749201C03F023FD03F009FDC3B2F8
S11315206420584303F0F8FF011C201C03F038FE2C
S113153003F0FEFCC4B2301C04F082FC02000B0079
S113154000949C48784403F045FA9B4BEB58049371
S11315500023049A137080229204C023DB059A614D
S1131560FEF758FF1BE09548784403F033FA86E70A
S1131570934BEB580493180003F094F8914BEB58F9
S1131580049319009048784403F094F9049803F004
S113159089F8894BEB5804930223049A1370864B01
S11315A0EB58049318781228F9D803F0F9FAE1FFFC
S11315B0F8FF13005800CD004B01F8FF5101D8018A
S11315C0AC01FE0109024702120270028A02F8FF0E
S11315D081019D007D4BEB580493180003F028F81B
S11315E0049B5B797A4AAA58049212789342D6D023
S11315F0774AAA5804921370744BEC58E1787548F2
S1131600784403F0E7F921797348784403F0E2F968
S113161061797248784403F0DDF9E379704E7E44D1
S11316209B0099596F48784403F0D4F9A1786E4827
S1131630784403F0CFF9A3799B00F618316A6B481C
S1131640784403F0C7F921886948784403F0C2F963
S1131650594BEB5804931223049A13709FE7654B7C
S1131660EB5804931B78002B11D0634BEB58049375
S11316701900002003F0B6F8049B1B78012B2AD034
S11316804D4BEB5804930223049A137087E7594B8C
S1131690EB5804930123049A13700021002003F0F3
S11316A03DF8564BEB5804931A000121002003F037
S11316B055F8534BEB580493524BEB580593049A4B
S11316C01900002003F080F8049BD9784E48784430
S11316D003F080F9C9E780229204C023DB05DA61B4
S11316E0002003F08DF8CBE7424BEB5804931B78B2
S11316F0002B14D0404BEC582100012003F072F869
S113170021784248784403F065F92378012B13D0FB
S1131710294BEB5804930223049A13703FE7354B8B
S1131720EB5804930123049A137003F075F8002115
S1131730052003F07DF8DDE7012003F061F80021C6
S1131740052003F075F8E3E7314BEB5804931B785D
S1131750002B67D02F4BEC58E1782F48784403F0E6
S113176039F921792D48784403F034F9217A2C4849
S1131770784403F02FF9104BEB5804930023049A98
S113178013700CE75A710000ECEDFF1F565800006F
S11317905E58000066580000685800007658000043
S11317A0845800008E580000985800006F12833A45
S11317B00AD7233C7058000034000000585700003A
S11317C0000000008C0000004E58000008000000DB
S11317D014000000F057000026580000E8570000ED
S11317E0FAE9FF1FDE570000E0570000D857000059
S11317F0D25700006C0000003000000040000000E0
S1131800280000003C000000565700003457000038
S11318104800000074000000E8560000EE56000086
S1131820EC560000B24BEB5804930123049A137056
S1131830B04BEB5804931900012002F051FF02F061
S113184061FF87E703F002F8012003F00BF8A6E636
S1131850A94BEE58A94BEB5804933100180003F040
S11318600DF83168A648784403F0B4F8A54BEC5859
S11318703068210003F010F82188A279A378E67873
S1131880277960798446E07980009F4C7C44005934
S1131890039060460290019700969C48784403F0B8
S11318A099F89B4BEB5804930223049A137076E641
S11318B00121082004F03CFC964BEB5818600028EA
S11318C006D0944BEB58186803F038F800240DE068
S11318D09148784403F07EF8F3E78E4BEB581B688D
S11318E0195D8E48784403F075F80134072CF4DD53
S11318F08B48784403F06EF8854BEB5804930C2323
S1131900049A13704BE60121402004F011FC854B2E
S1131910EB581860002808D0824BEB581968402215
S1131920202002F0E3FF00240DE07F48784403F018
S113193051F8F1E77B4BEB581B68195D7B48784401
S113194003F048F801343F2CF4DD7948784403F07F
S113195041F8744BEB58186804F018FC1FE6012199
S1131960402004F0E5FB734BEB581860002817D0B7
S1131970704BEC58674BEB5819680822206804F048
S11319800FFC08222168202002F0A2FF206804F046
S1131990FDFB5F4BEB5804930223049A1370FEE59E
S11319A06548784403F016F8E2E74021202002F06D
S11319B0ABFF574BEB5804931123049A1370EEE5D5
S11319C002F0B0FF524BEB5804930923049A1370AE
S11319D0E5E5052002F0FAFF0121082004F0A8FB48
S11319E0564BEB581860002808D0544BEB58196834
S11319F00822002002F0BCFF00240DE05048784487
S1131A0002F0E8FFF1E74D4BEB581B68195D4D48B8
S1131A10784402F0DFFF0134072CF4DD4A487844AF
S1131A2002F0D8FF454BEB58186804F0AFFB384B75
S1131A30EB5804930F23049A1370B0E50121082096
S1131A4004F076FB414BEB58186000281AD03F4B4A
S1131A50EC58304BEE5808223168206804F0A0FBA3
S1131A6008222168002002F075FF206804F08EFB34
S1131A70306804F08BFB264BEB5804930D23049A37
S1131A8013708CE53248784402F0A4FFDFE71A4B68
S1131A90EC581A4BEB5804932100180002F0EEFEA8
S1131AA004222100002002F071FF216829487844B3
S1131AB002F090FF164BEB5804930D23049A137015
S1131AC06DE5052002F082FF234BEC58042221002F
S1131AD0002002F069FF21682048784402F07AFF70
S1131AE00B4BEB5804930223049A137057E5C0463A
S1131AF048000000740000004400000008000000DA
S1131B00FE550000200000008CE7FF1FDC5500009C
S1131B103400000084000000D2550000DC550000B1
S1131B202E55000024000000785500008A5500005E
S1131B30D45400003800000002550000800000006A
S1131B40A6540000B8540000025400002C00000009
S1131B504A54000046540000500000003254000073
S1131B6030B585B005000C00094B7B44094A9B58ED
S1131B70019303A91800FEF75BFE0198FEF746FEE9
S1131B80A2B229000398FEF781FD05B030BDC0461E
S1131B905E6A00005800000070B584B005000E00B5
S1131BA014000D4B7B440D4A9B58019303A9180064
S1131BB0FEF767FD0198FEF757FD29B28022120156
S1131BC00198FEF755FDA2B231000398FEF75EFDC1
S1131BD0002004B070BDC046246A000088000000E4
S1131BE070B584B005000E0014000D4B7B440D4A03
S1131BF09B58019303A91800FEF743FD0198FEF7D3
S1131C0033FD29B2802212010198FEF731FDA2B200
S1131C1031000398FEF754FD002004B070BDC046A7
S1131C20DC6900008800000080229204C023DB05E8
S1131C30DA61704710B582B001AB19700123012B32
S1131C4008DDC368007F022201A99847002808D153
S1131C5002B010BDD11801390C7801A9CC5401335C
S1131C60EDE70120F4E770B582B0040015001E0012
S1131C706B46D9800633007F01221900E368984738
S1131C80002802D0012002B070BDA368207F32007A
S1131C90290098470028F6D00120F4E7F8B500AFF2
S1131CA00D005E1C1C000834E408E4006946091BAE
S1131CB08D460D70012404E01519013D2D780D5554
S1131CC00134B442F8DBC4680133DAB2407FA04780
S1131CD0002801D1BD46F8BD0120FBE770B582B0F4
S1131CE0040015001E006B46D9800633407F012294
S1131CF01900E3689847002802D0012002B070BDA3
S1131D00A368607F3200290098470028F6D001209C
S1131D10F4E7F8B500AF0D001E001C000834E40819
S1131D20E4006946091B8D460D70012404E0151971
S1131D30013D2D780D550134B442F8DBC4680133FC
S1131D40DAB2007FA047002801D1BD46F8BD0120CA
S1131D50FBE7000010B5436901487844984710BD7B
S1131D608A52000070B505000A2102F023FFC4B2B4
S1131D7024010A21280002F0A3FF2143C8B270BD48
S1131D80010002099300D2185300DBB20F2008406F
S1131D901818C0B27047000010B5041E3ED0436945
S1131DA0002B3DD00268002A15D04268002A17D0C3
S1131DB08268002A19D0C268002A1BD08269002ACE
S1131DC01DD00269002A1FD02368984700281FD11C
S1131DD00123E37723E013487844984703201EE067
S1131DE0114878449847032019E0104878449847EC
S1131DF0032014E00E487844984703200FE00D4870
S1131E007844984703200AE00B4878449847DBE776
S1131E1063690A4878449847012000E0022010BD15
S1131E200320FCE7285200004252000058520000F0
S1131E306A52000080520000925200009C5200003E
S1131E4010B5002813D0C37F012B02D00323180040
S1131E5010BD002906D00129F9D1836901209847D2
S1131E600023F4E78369002098470023EFE7022367
S1131E70EDE7000010B5002812D0C47F012C02D079
S1131E800324200010BD6F230377183B4377828B14
S1131E90054B9A4206D005497944FFF75BFFF0E70A
S1131EA00224EEE70024ECE76F57000050520000D4
S1131EB0002807D0C37F012B01D00320704781770E
S1131EC00020FBE70220F9E7002807D0C37F012B9D
S1131ED001D00320704701620020FBE70220F9E7EC
S1131EE0F0B5C64600B582B004000F0000285FD0EC
S1131EF0C67F012E05D00325280002B004BC9046FD
S1131F00F0BD07236A460021FFF7ADFE0500294B0B
S1131F107B44187000282FD16B4618787F263040F8
S1131F20FFF72EFF78716B4658783040FFF728FF93
S1131F3038717023E35C002B25D0012B2BD06C4629
S1131F40E37807201840FFF71BFFF87123793F203F
S1131F501840FFF715FFB87063791F201840FFF78A
S1131F600FFFB871A079FFF70BFF80B2FA23DB00F3
S1131F709C4660443880BFE70F4979442000FFF74E
S1131F80E9FE3500B8E76B469B783F201840FFF721
S1131F90F7FEF870D3E76C46A3781F201840FFF7CC
S1131FA0EFFEF870A2785211012313407B72C6E74A
S1131FB00225A1E7D0E3FF1FBA510000F0B583B0BA
S1131FC005000E001700002833D0C47F012C03D075
S1131FD00324200003B0F0BD89B201236A4607320E
S1131FE0FFF741FE144B7B441870002815D16B4653
S1131FF0DA1D137840218B431900BB010B43137086
S113200031002800FFF716FE0C4B7B4418700028A3
S113201009D17023EF540400DBE70949794428000F
S1132020FFF798FED5E7074979442800FFF792FEA9
S1132030CFE70224CDE7C046FAE2FF1FD6E2FF1F36
S11320402C5100004051000070B582B0040016000D
S1132050002820D0C57F012D02D0032002B070BD1E
S113206089B201236A460732FFF7FDFD0B4A7A4421
S11320701070002808D16B46DA79921101231340BD
S11320807022A3543370E9E7054979442000FFF72F
S113209061FE2800E2E70220E0E7C04672E2FF1F8B
S11320A0F2500000F0B583B004000F0016000028C1
S11320B02FD0C57F012D02D0032003B0F0BD89B21B
S11320C001236A460732FFF7CEFD134B7B44187099
S11320D0002817D16B46DA1D137820218B43760133
S11320E01E43167039002000FFF7A4FD0B4A7A4402
S11320F010700028E1D00A4979442000FFF72AFE35
S11321002800DAE7074979442000FFF723FE280076
S1132110D3E70220D1E7C04614E2FF1FF2E1FF1F1C
S1132120BC50000086500000F0B585B005000E00DC
S1132130002800D164E1C47F012C03D003242000D3
S113214005B0F0BD0B88632B00D990E08B79013B7F
S1132150DBB20B2B00D990E08B78013BDBB21E2B5A
S113216000D990E0CB79013BDBB2062B00D990E09B
S11321700B793B2B00D992E04B793B2B00D994E0AF
S11321807023C35C002B00D09BE0CB78172B00D9C5
S113219091E00722002102AF380004F00AF8072377
S11321A03A0000212800FFF75EFD964B7B4418702F
S11321B0002800D099E002AB0027DF577F239F431C
S11321C07079FFF7CFFD40B207436B46DA1D1770F5
S11321D000212800FFF72EFD8B4B7B44187000284C
S11321E000D088E03079FFF7BDFD6B46DA1D107032
S11321F001212800FFF71EFD844B7B441870002842
S113220000D07EE07023EB5C002B00D17FE0012B3B
S113221000D192E0F079FFF7A5FD40B202ABDB7884
S11322205BB23822134018436B46DA1D1070032149
S11322302800FFF7FFFC764B7B441870002800D081
S1132240A4E0B078FFF78EFD6B46DA1D1070042110
S11322502800FFF7EFFC6F4B7B441870002800D177
S11322609AE06D4979442800FFF774FD67E76B49EC
S11322707944FFF76FFD033461E769497944FFF757
S113228069FD04245BE767497944FFF763FD04248F
S113229055E765497944FFF75DFD04244FE7634939
S11322A07944FFF757FD042449E761497944FFF76E
S11322B051FD042443E75F497944FFF74BFD0424AF
S11322C03DE7012B05D05C497944FFF743FD042425
S11322D035E7CB78013BDBB20B2B00D859E75749E4
S11322E07944FFF737FD042429E755497944280048
S11322F0FFF730FD23E7534979442800FFF72AFD0F
S11323001DE7514979442800FFF724FD17E7F078C9
S1132310FFF728FD6B46DA1D107002212800FFF735
S113232089FC4A4B7B441870002800D172E7484965
S113233079442800FFF70EFD01E7F078FFF712FD5E
S113234040B202AB9B785BB26022134018436B46E9
S1132350DA1D107002212800FFF76CFC3D4B7B4412
S11323601870002805D03C4979442800FFF7F2FC96
S1132370E5E6727A02212800FFF794FE374B7B448E
S11323801870002800D145E70400D8E634497944A0
S11323902800FFF7DFFCD2E6B079FFF7E3FC070083
S11323A002AB587920231840FFF7EAFC07436B4639
S11323B0DA1D177005212800FFF73CFC294B7B44EC
S11323C01870002810D13078FFF7CCFC6B46DA1D6A
S11323D0107006212800FFF72DFC234B7B44187056
S11323E0002807D10400AAE6204979442800FFF711
S11323F0B1FCA4E61E4979442800FFF7ABFC9EE635
S113240002249CE634E1FF1F06E1FF1FE6E0FF1F04
S1132410A8E0FF1F88E0FF1FD0510000604F0000BC
S1132420904F0000C04F0000F04F0000205000000B
S11324305050000080500000E8500000945000000C
S1132440E4500000F0500000F8500000BCDFFF1F13
S1132450E050000082DFFF1FA850000062DFFF1F72
S11324609250000022DFFF1F04DFFF1F5A500000BC
S11324705E50000070B582B00400160000281ED023
S1132480C57F012D02D0032002B070BD89B20123A3
S11324906A460732FFF7E7FB0A4A7A4410700028BD
S11324A006D16B46DA795211012313403370EBE7FE
S11324B0054979442000FFF74DFC2800E4E7022099
S11324C0E2E7C04646DEFF1FB24F000070B582B09F
S11324D004000E0000282FD0C57F012D02D0032058
S11324E002B070BD01236A4607320021FFF7BBFB2F
S11324F0124B7B441870002817D16B46DA1D1178F3
S11325007F230B40F6011E43167000212000FFF7C5
S113251091FB0B4A7A4410700028E1D009497944B0
S11325202000FFF717FC2800DAE707497944200068
S1132530FFF710FC2800D3E70220D1E7EEDDFF1FF0
S1132540CCDDFF1F864F0000544F000070B582B0F1
S113255005001600002800D16AE0C47F012C03D0D6
S11325600324200002B070BD837F032B09D000290F
S11325700DD0012937D02F497944FFF7EBFB042410
S1132580EFE72D497944FFF7E5FB0334E9E704233A
S113259001AA1821FFF767FB284B7B441870002819
S11325A01BD101AB1B787F201840FFF7E9FB30718A
S11325B07023EB5C002B26D0012B2CD001ACA3782C
S11325C03F201840FFF7DCFBB070E3781F20184071
S11325D0FFF7D6FBB0710024C3E7194979442800FA
S11325E0FFF7B8FBBDE7042301AA1C21FFF73BFB5F
S11325F0144B7B4418700028D3D013497944280025
S1132600FFF7A8FBADE701AB5B783F201840FFF76D
S1132610B7FBF070D2E701AC63781F201840FFF7D6
S1132620AFFBF07062785211012313407372C5E757
S1132630022496E77C500000F44F000046DDFF1FA3
S1132640E04F0000EEDCFF1FDC4F000010B582B04D
S11326500400837F032B3FD06B46DA1D0221FFF772
S1132660F3FC214A7A44107000283AD16B469A1D33
S113267002212000FFF7FEFE1C4A7A441070002855
S11326802FD16B46DA7919212000FFF797FC184AFD
S11326907A441070002824D16B46DA791D21200079
S11326A0FFF78CFC134A7A441070002819D16B464A
S11326B09A7919212000FFF7F5FC0F4A7A4410702B
S11326C000280ED16B469A791D212000FFF7EAFC01
S11326D00A4A7A44107004E009497944FFF73AFB46
S11326E0042002B010BDC0467CDCFF1F66DCFF1F67
S11326F050DCFF1F3ADCFF1F24DCFF1F0EDCFF1F32
S11327003A4F0000F0B583B004000F001600002813
S11327104AD0C57F012D02D0032003B0F0BD0123B0
S11327206A4607320721FFF79EFA204B7B44187054
S113273000282BD1002F11D16B46DA1D13781021FC
S11327408B43190033010B43137007212000FFF75B
S113275071FA174B7B44187000281ED16B46DA1DA2
S1132760137820218B4376011E43167019392000FB
S1132770FFF760FA0F4A7A4410700028CDD00E4952
S113278079442000FFF7E6FA2800C6E70B497944AC
S11327902000FFF7DFFA2800BFE709497944200049
S11327A0FFF7D8FA2800B8E70220B6E7B4DBFF1F2A
S11327B08CDBFF1F6ADBFF1FFC4E0000D64E0000BF
S11327C0E04E000070B582B005001600002800D16C
S11327D064E0C47F012C03D00324200002B070BD48
S11327E0002907D001292FD02D497944FFF7B2FAE7
S11327F00424F2E701236A4607320D21FFF733FA76
S1132800284B7B441870002812D16B46DA1D1178CE
S11328107F230B40F6011E4316700D212800FFF79D
S113282009FA214B7B441870002807D10400D4E72F
S11328301E4979442800FFF78DFACEE71C497944F4
S11328402800FFF787FAC8E701236A4607321421F4
S1132850FFF709FA174B7B441870002812D16B4616
S1132860DA1D11787F230B40F6011E4316701421E4
S11328702800FFF7DFF9104B7B441870002807D1BC
S11328800400AAE70D4979442800FFF763FAA4E796
S11328900B4979442800FFF75DFA9EE702249CE780
S11328A00A4F0000DEDAFF1FBCDAFF1F824E000071
S11328B0764E00008ADAFF1F68DAFF1F4E4E0000D2
S11328C0224E0000F0B585B005000F001600002868
S11328D000D15FE2C47F012C03D00324200005B0A3
S11328E0F0BD7023C35C002B4CD19379013BDBB268
S11328F00B2B23D89378013BDBB21E2B24D8D3793E
S1132900013BDBB2062B25D8D378172B28D81379B3
S11329103B2B2BD853793B2B2ED80722002102A81E
S113292003F047FC002F71D0012F00D132E1A749F9
S113293079442800FFF70EFA0424CFE7A449794428
S1132940FFF708FA0334C9E7A2497944FFF702FA0A
S11329500424C3E7A0497944FFF7FCF90424BDE744
S11329609E497944FFF7F6F90424B7E79C49794472
S1132970FFF7F0F90424B1E79A497944FFF7EAF93B
S11329800424ABE7012B05D097497944FFF7E2F91A
S11329900424A3E793790C2B1AD89378013BDBB278
S11329A01E2B1BD8D379013BDBB2062B1CD8D37862
S11329B0013BDBB20B2B1DD813793B2B20D8537969
S11329C03B2BAAD989497944FFF7C4F9042485E744
S11329D087497944FFF7BEF904247FE785497944A0
S11329E0FFF7B8F9042479E783497944FFF7B2F98A
S11329F0042473E781497944FFF7ACF904246DE7B3
S1132A007F497944FFF7A6F9042467E7062302AA5D
S1132A100A212800FFF727F97A4F7F44387070792C
S1132A20FFF7A0F96B46DA1D10700A212800FFF7A2
S1132A3001F9387000283FD13079FFF793F96B46DC
S1132A40DA1D10700B212800FFF7F4F86E4B7B445D
S1132A501870002836D17023EB5C002B38D0012B82
S1132A6052D0F079FFF77EF940B202ABDB785BB26B
S1132A700722934318436B469A1810700D212800BF
S1132A80FFF7D8F8614B7B441870002865D1B07803
S1132A90FFF768F96B46DA1D10700E212800FFF766
S1132AA0C9F85B4B7B44187000285CD059497944C1
S1132AB02800FFF74FF911E7574979442800FFF739
S1132AC049F90BE7554979442800FFF743F905E72D
S1132AD0F078FFF747F940B202AB9B785BB2402233
S1132AE0134018436B46DA1D10700C212800FFF7C1
S1132AF0A1F84B4B7B4418700028B2D04949794463
S1132B002800FFF727F9E9E6F078FFF72BF940B240
S1132B1002AB9B785BB26022134018436B46DA1D0C
S1132B2010700C212800FFF785F83F4B7B44187088
S1132B30002805D03D4979442800FFF70BF9CDE67C
S1132B40727A0C212800FFF7ADFA394B7B441870D8
S1132B50002800D185E70400C0E6364979442800FE
S1132B60FFF7F8F8BAE6B079FFF7FCF86B46DA1D20
S1132B7010700F212800FFF75DF82F4B7B4418706D
S1132B80002801D10400A9E62C4979442800FFF764
S1132B90E1F8A3E6062302AA11212800FFF763F84F
S1132BA0274F7F4438707079FFF7DCF86B46DA1DE5
S1132BB0107011212800FFF73DF83870002843D029
S1132BC0204979442800FFF7C5F887E6C44D000082
S1132BD0CE4D0000024E0000364E00006E4E000046
S1132BE0A24E0000DA4E00004E4F00008E4E000050
S1132BF03A4D00006E4D0000A24D0000A24E0000B0
S1132C000E4E0000C6D8FF1F92D8FF1F5AD8FF1FD0
S1132C103CD8FF1FBA4E0000424E0000524E000046
S1132C20ECD7FF1F364E0000B4D7FF1FFE4D000047
S1132C3094D7FF1FF04D000064D7FF1FF64D00002E
S1132C403ED7FF1FD64D00003079FFF78BF86B4657
S1132C50DA1D107012212800FEF7ECFF4F4B7B4465
S1132C60187000283FD17023EB5C002B41D0012B5E
S1132C705BD0F079FFF776F840B202ABDB785BB259
S1132C800722934318436B469A18107014212800A6
S1132C90FEF7D0FF424B7B44187000286ED1B07809
S1132CA0FFF760F86B46DA1D107015212800FEF757
S1132CB0C1FF3C4B7B441870002865D1B079FFF705
S1132CC051F86B46DA1D107016212800FEF7B2FF8A
S1132CD0354B7B44187000285ED034497944280071
S1132CE0FFF738F8FAE5324979442800FFF732F85B
S1132CF0F4E5F078FFF736F840B202AB9B785BB2AC
S1132D004022134018436B46DA1D1070132128002B
S1132D10FEF790FF274B7B4418700028A9D0264962
S1132D2079442800FFF716F8D8E5F078FFF71AF889
S1132D3040B202AB9B785BB26022134018436B46EF
S1132D40DA1D107013212800FEF774FF1B4B7B441F
S1132D501870002805D01A4979442800FEF7FAFFB4
S1132D60BCE5727A13212800FFF79CF9154B7B44CC
S1132D701870002800D17CE70400AFE512497944BB
S1132D802800FEF7E7FFA9E5104979442800FEF77B
S1132D90E1FFA3E50224A1E504009FE582D6FF1F1D
S1132DA04AD6FF1F2CD6FF1F0ED6FF1F404D000032
S1132DB0CC4C0000CAD5FF1FB04C000092D5FF1FB9
S1132DC0784C000072D5FF1F6A4C00007A4C00005A
S1132DD0F0B585B007000E0015000193002800D15E
S1132DE089E0C47F012C03D00324200005B0F0BD8A
S1132DF0002907D0012941D040497944FEF7AAFFB0
S1132E000424F2E7012302AA07320D21FEF72BFF67
S1132E103B4B7B441870002824D102ABDA1D137895
S1132E2070218B432D011D43157063393800FEF763
S1132E3001FF344B7B441870002819D1019A3100EA
S1132E403800FFF73FFD04002F4B7B441870002827
S1132E50CBD02E4979443800FEF77CFF2C4B7B44C1
S1132E601C78C2E72B4979443800FEF773FFBCE7AE
S1132E70294979443800FEF76DFFB6E7012302AA19
S1132E8007321421FEF7EFFE244B7B441870002810
S1132E9025D102ABDA1D137870218B432D011D431C
S1132EA015705C393800FEF7C5FE1D4B7B44187065
S1132EB000281AD1019A31003800FFF703FD0400FD
S1132EC0184B7B441870002800D18EE716497944CA
S1132ED03800FEF73FFF154B7B441C7885E7144907
S1132EE079443800FEF736FF7FE712497944380009
S1132EF0FEF730FF79E7022477E7C046FA4800007E
S1132F00CED4FF1FACD4FF1F96D4FF1FFC4B000090
S1132F1082D4FF1FCE4B0000C24B000056D4FF1FCB
S1132F2034D4FF1F1ED4FF1FB64B000008D4FF1F6C
S1132F30884B00007C4B0000F0B583B005000F0007
S1132F401600002800D172E0C47F012C03D00324B2
S1132F50200003B0F0BD07220021684603F029F9E0
S1132F60002F08D0012F3ED0324979442800FEF7C3
S1132F70F1FE0424ECE706236A460A212800FEF742
S1132F8072FE2D4B7B441870002826D16F4638788A
S1132F907F242040FEF7F4FE707178782040FEF71D
S1132FA0EFFE30717023EB5C002B2DD0012B32D05F
S1132FB06C46E37807201840FEF7E2FEF0712379AF
S1132FC03F201840FEF7DCFEB07063791F201840E4
S1132FD0FEF7D6FEB0710024BAE7184979442800F8
S1132FE0FEF7B8FEB4E706236A4611212800FEF76F
S1132FF03AFE134B7B4418700028C7D0114979441A
S11330002800FEF7A7FEA3E7BB783F201840FEF791
S1133010B7FEF070CCE7BB781F201840FEF7B0FE77
S1133020F070BA785211012313407372C0E702247E
S11330308EE7C0468A4700005CD3FF1FC04A0000E9
S1133040ECD2FF1FBA4A0000F0B583B004000E00B2
S11330501700002855D0C17F012903D0032528007B
S113306003B0F0BD1A003100FFF766FF0500264BE0
S11330707B44187000280AD1002E11D0012E2BD0C9
S1133080224979442000FEF765FE0425E7E720493C
S113309079442000FEF75EFE1E4B7B441D78DEE77C
S11330A001236A4607320D212000FEF7DCFD1A4B8E
S11330B07B441870002806D16B46DA791211072375
S11330C013403B70CBE7154979442000FEF742FEDC
S11330D0134B7B441D78C2E701236A46073214214F
S11330E02000FEF7C0FD0F4B7B4418700028E3D08E
S11330F00D4979442000FEF72DFE0C4B7B441D78CE
S1133100ADE70225ABE7C04670D2FF1F7246000050
S1133110444A000046D2FF1F30D2FF1F304A00004D
S11331200ED2FF1FF8D1FF1F064A0000E4D1FF1F93
S113313070B582B004001600002841D0C57F012D6F
S113314002D0032002B070BD002907D001291ED08F
S11331501C497944FEF7FEFD0420F3E701236A4687
S113316007320D31FEF77FFD174A7A4410700028AC
S113317006D16B46DA79D210012313403370E1E7AC
S1133180124979442000FEF7E5FD2800DAE701231F
S11331906A4607321331FEF766FD0D4A7A44107011
S11331A0002806D16B46DA79D2100123134033701C
S11331B0C8E7084979442000FEF7CCFD2800C1E7A0
S11331C00220BFE7A245000076D1FF1F8E49000010
S11331D044D1FF1F8449000030B583B0041E5FD082
S11331E0C57F012D02D0032003B030BD002907D0D4
S11331F001292DD02B497944FEF7ACFD0420F3E7D7
S113320001236A4607320D31FEF72DFD264B7B4420
S11332101870002815D16B46DA1D137808218B43EA
S1133220137005312000FEF705FD204A7A44107022
S11332300028D9D01E4979442000FEF78BFD2800D0
S1133240D2E71C4979442000FEF784FD2800CBE72F
S113325001236A4607321331FEF705FD164B7B4402
S11332601870002815D16B46DA1D137808218B439A
S113327013700C312000FEF7DDFC104A7A44107004
S11332800028B1D00E4979442000FEF763FD2800E0
S1133290AAE70C4979442000FEF75CFD2800A3E767
S11332A00220A1E7FE440000D2D0FF1FB4D0FF1FCC
S11332B0524900001C49000082D0FF1F64D0FF1F48
S11332C04E4900001849000070B582B004000E0099
S11332D000282FD0C57F012D02D0032002B070BD7D
S11332E001236A4607320721FEF7BDFC124B7B44DB
S11332F01870002817D16B46DA1D11787F230B4014
S1133300F6011E43167007212000FEF793FC0B4ABA
S11333107A4410700028E1D0094979442000FEF76E
S113332019FD2800DAE7074979442000FEF712FD69
S11333302800D3E70220D1E7F2CFFF1FD0CFFF1F31
S1133340F2480000D048000070B582B004000E00BE
S113335000282ED0C57F012D02D0032002B070BDFD
S113336001236A4607320721FEF77DFC124B7B449A
S11333701870002816D16B46DA1D137803218B438D
S11333801E43167004312000FEF754FC0B4A7A44A5
S113339010700028E2D00A4979442000FEF7DAFCD4
S11333A02800DBE7074979442000FEF7D3FC280016
S11333B0D4E70220D2E7C04672CFFF1F52CFFF1FCF
S11333C0744800005248000070B582B004000E003A
S11333D000282FD0C57F012D02D0032002B070BD7C
S11333E001236A4607320721FEF73DFC124B7B445A
S11333F01870002817D16B46DA1D137840218B43CF
S1133400B6011E43167039392000FEF713FC0B4A2F
S11334107A4410700028E1D0094979442000FEF76D
S113342099FC2800DAE7074979442000FEF792FC6A
S11334302800D3E70220D1E7F2CEFF1FD0CEFF1F32
S1133440F2470000D047000070B582B004000E00BF
S113345000282FD0C57F012D02D0032002B070BDFB
S113346001236A4607320721FEF7FDFB124B7B441A
S11334701870002817D16B46DA1D137804218B438A
S1133480B6001E43167003312000FEF7D3FB0B4A2F
S11334907A4410700028E1D0094979442000FEF7ED
S11334A059FC2800DAE7074979442000FEF752FC6A
S11334B02800D3E70220D1E772CEFF1F50CEFF1FB2
S11334C0724700005047000070B582B004000E003F
S11334D0002838D0C57F012D02D0032002B070BD72
S11334E0837F032B22D001236A4607320321FEF790
S11334F0BAFB164B7B44187000281DD16B46DA1DAD
S1133500137808218B43F6001E43167005392000FA
S1133510FEF790FB0E4A7A4410700028DED00D4965
S113352079442000FEF716FC2800D7E70A497944BD
S1133530FEF710FC0420D1E7084979442000FEF787
S113354009FC2800CAE70220C8E7C046ECCDFF1FEB
S1133550CACDFF1FD0470000624700009A47000011
S113356070B582B004000E0000282FD0C57F012D55
S113357002D0032002B070BD01236A46073207213E
S1133580FEF771FB124B7B441870002817D16B4671
S1133590DA1D137808218B43F6001E431670013997
S11335A02000FEF747FB0B4A7A4410700028E1D054
S11335B0094979442000FEF7CDFB2800DAE70749E2
S11335C079442000FEF7C6FB2800D3E70220D1E7A8
S11335D05ACDFF1F38CDFF1F8647000078470000F3
S11335E070B582B004000E0000282FD0C57F012DD5
S11335F002D0032002B070BD01236A4607320021C5
S1133600FEF731FB124B7B441870002817D16B4630
S1133610DA1D11787F230B40F6011E43167000213A
S11336202000FEF707FB0B4A7A4410700028E1D013
S1133630094979442000FEF78DFB2800DAE70749A1
S113364079442000FEF786FB2800D3E70220D1E767
S1133650DACCFF1FB8CCFF1F3A4700002C4700000C
S1133660F0B5002838D0C37F012B01D00320F0BD72
S11336700D784E35EDB28E79013EF6B28878013878
S1133680C7B20023002402E06F34FF340133AB429D
S113369004DA9807F8D06E34FF34F7E700230020EB
S11336A004E00E4D7D44ED5C40190133B342F8DB78
S11336B02018381801380A4B4343CC78E120000124
S11336C060431B180C792001001B84001B194979E5
S11336D05B1813600020CAE70220C8E734390000F1
S11336E080510100F0B5C64600B50C001500002855
S11336F000D1BDE0C37F012B03D0032004BC90465E
S1133700F0BD5C49200001F0DBFA0E00E121090163
S1133710300001F04FFAE870E1210901300001F0B6
S1133720CFFA08003C2101F045FA28713C21200021
S113373001F0C6FA6971504BE0184E4901F03AFAAB
S113374080B24E4B9C46604484B24D49200001F047
S113375031FA800086B22E804949200001F0B0FA87
S113376089B2484B994205D9474B9C46614489B27A
S113377002362E80B6235B00994205D96E39FF3993
S113378089B22B8801332B800323AB713223FF339F
S113379099425ED93339FF3989B22B8801332B80A2
S11337A00123AB7179295BD97A3989B2AB790433B6
S11337B0AB711E2904D91F3989B2AB790133AB71BE
S11337C00131CCB2AC702E88304B9C466644B6B204
S11337D02E80AB7998460E27FF1A0C21380001F091
S11337E073FA4300181883004344033BD800C018FD
S11337F00301C0180230052101F066FA241896234B
S11338005B019C4666440C214942380001F05CFA95
S113381036186E20FF3070432418F3170320184025
S113382080198010241864214942300001F04CFAB8
S11338302418C8214900300001F046FA2018144B1E
S11338409C466044072101F025FB0231E971002008
S113385054E79829A6D9993989B20823AB71A1E70D
S11338603C29A6D93D3989B2AB790233AB71A0E7C3
S1133870022043E78051010080BC92C77905000013
S1133880B5050000D902000026FDFFFFCC070000AB
S1133890D382FFFF30B589B01400002800D1F7E0CF
S11338A0C37F012B02D0032009B030BD8A7D07AB52
S11338B01A70CA7D5A700B791A004E3AD2B2012A94
S11338C020D9442B1CD0302006AA10704A2B1BD0C0
S11338D0462B4DD04D2B1FD0412B25D04D2B28D01E
S11338E04A2B2ED04A2B34D0412B3AD0532B6BD0B9
S11338F04F2B6BD04E2B6BD0442B37D03F2238E06C
S11339003120E1E73120DFE74A79612AE0D18A7981
S11339106E2ADDD131222CE04A79612ADCD18A7900
S1133920722AD9D1332224E04A79702AD6D134229A
S11339301FE04A79612AD3D18A79792AD0D13522F4
S113394017E04A79752ACDD18A796E2ACAD13622EE
S11339500FE04A79752AC7D18A796C2AC4D13722F3
S113396007E04A79752AC1D1382202E0322200E008
S1133970322206AB5A700B7A1A1C2F2B00D8302235
S113398005AB1A704A7A5A70CA7A03AB1A700A7B6A
S11339905A708A7B02AB1A70CA7B5A704A7C01AB9C
S11339A01A708A7C5A700B78532B13D04D2B33D05A
S11339B0542B17D0572B5DD0542B1BD0462B5BD0E8
S11339C0532B1FD03F2328E03922D2E73022D0E7FF
S11339D03122CEE74A78752AE8D18A786E2AE5D171
S11339E031231AE04A78752AE4D18A78652AE1D12C
S11339F0332312E04A78682AE0D18A78752ADDD127
S1133A0035230AE04B78612B01D03F2305E08B7806
S1133A10742B33D03F2300E0322304AD2B7007A86E
S1133A2002F080FB208006A802F07CFBA07105A8B0
S1133A3002F078FBA070280002F074FBE07103A888
S1133A4002F070FBE07002A802F06CFB207101A888
S1133A5002F068FBC0B260712C2811D92D38607156
S1133A602379392B10D9E3780133E37000232371D0
S1133A70002019E73423D0E73623CEE73723CCE7F9
S1133A800F30607100200FE70133237100200BE732
S1133A90022009E770B504000E00002825D0C57F78
S1133AA0012D01D0032070BD00220021FEF72AFE63
S1133AB00F4B7B441870002810D1320001212000E4
S1133AC0FEF720FE0B4A7A4410700028EBD00A4916
S1133AD079442000FEF73EF92800E4E707497944D9
S1133AE02000FEF737F92800DDE70220DBE7C046B7
S1133AF02EC8FF1F1AC8FF1FFC420000BE42000070
S1133B0070B584B004000E00150000285BD0C37F9C
S1133B10012B02D0032004B070BD022A05D92B4921
S1133B207944FEF717F90420F5E70121FFF754FB68
S1133B3001A92000FEF7D4F9254B7B441870002816
S1133B4023D16A4601A92000FFF78AFD214A7A445D
S1133B5010700028DFD1012D25D0002D1ED0022D9C
S1133B6029D001AA00992000FFF7BCFD1A4A7A4423
S1133B7010700028CFD101AB072201212000FFF7EC
S1133B8027F9164A7A441070C5E71549794420008C
S1133B90FEF7E0F8134B7B441878BCE7009B9C4687
S1133BA066440096DDE733019E1BB300009A9446F9
S1133BB063440093D5E7E1231B015E43009B9C46CD
S1133BC066440096CDE70220A5E7C046C442000043
S1133BD0A6C7FF1F92C7FF1F72C7FF1F5CC7FF1F47
S1133BE0804200004AC7FF1FF0B583B005000E00F5
S1133BF0002800D191E0C47F012C03D003242000CD
S1133C0003B0F0BD08220021684602F0D2FAA87F72
S1133C10072800D983E000F0B9FF040A233C424896
S1133C204E67404979442800FEF794F8E7E70623F5
S1133C306A46F2212800FEF751F807003A4B7B440C
S1133C401870002805D0394979442800FEF782F815
S1133C50D5E706226946300002F0A2FA3C00CEE71E
S1133C6008236A46F0212800FEF738F80700304B95
S1133C707B441870002806D108226946300002F0FF
S1133C808FFA3C00BBE72B4979442800FEF762F821
S1133C90B5E7294979442800FEF75CF8AFE72749DE
S1133CA079442800FEF756F8A9E725497944280005
S1133CB0FEF750F8A3E706236A46F2212800FEF730
S1133CC00DF807001F4B7B441870002805D01E49CF
S1133CD079442800FEF73EF891E706226946300051
S1133CE002F05EFA3C008AE708236A46F0212800C5
S1133CF0FDF7F4FF0700154B7B441870002806D12C
S1133D0008226946300002F04BFA3C0077E710497C
S1133D1079442800FEF71EF871E702246FE70024B7
S1133D206DE7C04604420000A2C6FF1F1C4200000B
S1133D3070C6FF1FDC410000E44100001442000093
S1133D40444200001AC6FF1F94410000E8C5FF1F4B
S1133D505441000070B5041E34D0C57F012D01D03C
S1133D60032070BD08002038C0B23F280CD8402B77
S1133D7011D8C8182038402814D913497944200090
S1133D80FDF7E8FF0520ECE7104979442000FDF732
S1133D90E1FF0420E5E70E4979442000FDF7DAFF4E
S1133DA00520DEE7DBB22000FDF7B3FF094A7A44C1
S1133DB010700028D5D0084979442000FDF7CAFFC7
S1133DC02800CEE70220CCE7FC410000A24100001D
S1133DD0B041000032C5FF1FE441000070B5041E6D
S1133DE035D0C57F012D01D0032070BD08002038D7
S1133DF0C0B23F280CD8402B11D8C818203840280E
S1133E0014D9144979442000FDF7A4FF0520ECE7F8
S1133E10114979442000FDF79DFF0420E5E70F498F
S1133E2079442000FDF796FF0520DEE7DBB289B276
S1133E302000FDF718FF0A4A7A4410700028D4D0F5
S1133E40084979442000FDF785FF2800CDE70220CA
S1133E50CBE7C046F44100009A410000A8410000AD
S1133E60A8C4FF1FD6410000F0B583B005001700B9
S1133E7000226B46DA71002835D0C47F012C03D0B0
S1133E800324200003B0F0BD0B00203BDBB23F2B2A
S1133E9015D83B00203BDBB23F2B16D80E00BE42A8
S1133EA01FDCF1B201236A4607322800FDF731FF17
S1133EB00E4B7B44187000280DD10136EFE70C49F6
S1133EC07944FDF747FF0334DBE70A497944FDF7FA
S1133ED041FF0424D5E7084979442800FDF73AFF57
S1133EE0CFE70024CDE70224CBE7C0462EC4FF1F52
S1133EF064410000584100008041000030B591B099
S1133F00040040220021684602F053F9002C17D027
S1133F10E57F012D02D0032011B030BD40236A4655
S1133F2020212000FDF7F5FE064A7A44107000288F
S1133F30F2D0054979442000FDF70CFF2800EBE797
S1133F400220E9E7B6C3FF1F3841000070B5041E24
S1133F5038D0C57F012D01D0032070BD48B20028A0
S1133F6012DBC818802816DCA07F002805D003289F
S1133F7003D0042801D0052814D113497944200022
S1133F80FDF7E8FE0520E8E7104979442000FDF735
S1133F90E1FE0420E1E70E4979442000FDF7DAFE52
S1133FA00420DAE789B22000FDF798FE094A7A4432
S1133FB010700028D1D0084979442000FDF7CAFECA
S1133FC02800CAE70220C8E744410000EE40000090
S1133FD00041000032C3FF1F4841000070B582B0A9
S1133FE004000D0000226B46DA7100281ED0C67F43
S1133FF0012E02D0032002B070BD01236A460732AD
S1134000FF21FDF76BFE0A4A7A441070002806D19E
S11340106B46DA799210032313402B70EBE70549C2
S113402079442000FDF796FE3000E4E70220E2E741
S1134030D8C2FF1F0C41000070B582B005000E000D
S113404000283BD0C47F012C03D00324200002B0FD
S113405070BD6B46D91DFFF7C1FF194B7B44187027
S1134060002813D1AB7F002B19D0032B17D0042BBE
S113407015D0052B13D06B4607331B78022B19D0B0
S1134080032BE3D0012B11D00400DFE70D49794461
S11340902800FDF75FFE0C4B7B441C78D6E70B49E8
S11340A079442800FDF756FE0424CFE75F2ECDD8CF
S11340B00400CBE73F2EC9D80400C7E70224C5E7B4
S11340C084C2FF1FBE40000048C2FF1F2040000002
S11340D0F0B583B004000D0001921E00002837D013
S11340E0C77F012F02D0032003B0F0BD4BB2002BD9
S11340F008DB8B19802B0BDD16497944FDF72AFE6A
S11341000420F1E714497944FDF724FE0420EBE789
S1134110FFF792FF114B7B441870002806D010491A
S113412079442000FDF716FE0520DDE73300019AEF
S113413029002000FDF7B2FD0A4A7A4410700028D5
S1134140D2D0094979442000FDF704FE3800CBE7BA
S11341500220C9E79E4000006E400000CAC1FF1F54
S1134160A0400000A6C1FF1FB4400000002804D0F6
S1134170C37F012B03D0032070470220FCE780207B
S1134180FAE70000F8B507000C001500002838D045
S1134190C37F012B01D00320F8BD00263800FFF7B0
S11341A0E5FFC008C0B2864229DAF300A34201DC6D
S11341B00136F3E7281901F0AFF9F821890500F079
S11341C0CFFE01F03DFE00F04BFC01F005FE8642FF
S11341D001DB0020E0E7741EA4B2E400A4B2E51DF4
S11341E0ADB2094979443800FDF7B4FD7F692B006D
S11341F02200310005487844B8470620CCE7002067
S1134200CAE70220C8E7C046E84000000A410000AF
S1134210F0B5C64600B582B00500019114001E0039
S113422000284AD0C77F012F05D00324200002B004
S113423004BC9046F0BD0121180001F079FF8046CE
S1134240002810D032002100404601F0A9FF3200BE
S113425001992800FFF796FF0400194B7B4418705E
S1134260002810D0E2E7174878446B699847E9E7DB
S113427043461A191178331B013B434418781070D4
S113428019700134E4B273089C42F1D333004246FE
S113429001992800FFF71CFF04000B4B7B441870A6
S11342A0002803D1404601F071FFBFE70749794474
S11342B02800FDF74FFD3C00B8E70224B6E7C046EE
S11342C084C0FF1F682C000044C0FF1F864000000C
S11342D0F0B5C64600B582B00700009101921D00FA
S11342E0002846D0C67F012E05D00324200002B04A
S11342F004BC9046F0BD0121180001F019FF80466E
S11343002A0000993800FFF73DFF04001A4B7B4454
S113431018700028EAD12B00424600993800FFF7B4
S113432015FE0400154B7B441870002811D0144965
S113433079443800FDF70EFD3400D7E743461A18D8
S113434011782B1A013B43441E7816701970013002
S1134350C0B26B089842F1D30A4E7E44301D2A0045
S1134360414601F01DFF73680093019B009A1A6097
S1134370BCE70224BAE7C046D2BFFF1FBABFFF1F83
S11343801040000086BFFF1F10B5040024300A222D
S11343901249794401F0E5FF200047300522104915
S11343A0794401F0DEFF20002E3019220D497944B2
S11343B001F0D7FF0C4B23650C4BE3640C4B636596
S11343C00C4BE3650C4BA36540226023E254383A5E
S11343D00133E254094B6366002010BDDA3F00004C
S11343E0D83F0000CE3F00000000B0406666A63F04
S11343F00000C8430000AA42000020C200007A4422
S113440070B582B00600674D7D44674C7C447422CD
S11344100021200001F0CDFE644BEB580193236092
S1134420634BEB5801936360624BEB580193E36079
S1134430614BEB580193A360604BEB5801932361EC
S11344405F4BEB58019363615E4BEB580193A3619F
S11344502000FDF7A1FC7423E054002800D096E06E
S1134460594D7D4431002800FDF722FD04007423DA
S1134470E854002800D092E0544D7D442800FDF714
S1134480F9FC04007423E854002800D087E0504D60
S11344907D4401212800FEF719F804007423E85430
S11344A0002800D07BE04B4D7D4400212800FEF71E
S11344B093FE04007423E854002870D1464D7D44D3
S11344C001212800FEF788FE04007423E854002824
S11344D065D1424D7D44002200212800FEF712F9E7
S11344E004007423E854002859D13D4D7D44002232
S11344F001212800FEF706F904007423E85400287B
S11345004DD1384D7D4401212800FEF7DDFE040025
S11345107423E854002842D1334D7D4400212800FF
S1134520FEF752FF04007423E854002837D12F4DBE
S11345307D4400212800FEF787FF04007423E8541B
S113454000282CD12A4D7D4400212800FFF708F8CB
S113455004007423E854002821D1264D7D44012110
S11345602800FFF73DF804007423E854002816D10E
S1134570214D7D4440212800FDF7A6FC040074234E
S1134580E85400280BD10A2000F020FA07E01B4869
S1134590784400F01FFA7423194A7A44D45C20004A
S11345A002B070BDC0410000E0BEFF1F0400000067
S11345B04C00000054000000900000007000000057
S11345C064000000680000008ABEFF1F72BEFF1F67
S11345D05CBEFF1F44BEFF1F2EBEFF1F18BEFF1F81
S11345E000BEFF1FE8BDFF1FD2BDFF1FBCBDFF1FE4
S11345F0A6BDFF1F90BDFF1F7ABDFF1FF83D000041
S113460052BDFF1F10B50100034C7C442000FDF790
S113461017FC7423E05410BDE2BCFF1F10B588479B
S11346207423024A7A44D05410BDC046C8BCFF1F4C
S113463010B50100034C7C442000FDF751FC7423A9
S1134640E05410BDB6BCFF1F70B50500124C7C448D
S1134650020002212000FDF7B1FC03007422A054E3
S1134660002801D0180070BD0C4C7C442A0019218C
S11346702000FDF7A3FC03007422A0540028F1D10C
S1134680074C7C442A001D212000FDF797FC030001
S11346907422A054E6E7C0469EBCFF1F82BCFF1FE5
S11346A06ABCFF1F10B50400007AFFF7CDFF0300BA
S11346B07422094979448854002801D0180010BD97
S11346C0064B7B4421001C001800FDF72DFD030060
S11346D07422A054F2E7C04638BCFF1F2ABCFF1F57
S11346E070B505000E00064C7C442000FDF7AEFFBB
S11346F0320029002000FDF729FF7423E05470BD27
S113470004BCFF1F10B5044C7C4401212000FEF7BB
S1134710DBFE7423E05410BDE4BBFF1F70B505003D
S11347200E000C4C7C44012201002000FDF7EAFF3E
S113473003007422A054002801D0180070BD064C58
S11347407C44320029002000FEF73CF80300742268
S1134750A054F2E7C8BBFF1FACBBFF1FF8B50500B0
S11347600F00160000280ED0012819D0134C7C44E9
S113477033003A0029002000FEF72AFB03007422CC
S1134780A0541800F8BD127A0D4C7C440C21200072
S1134790FDF714FC03007422A0540028E6D0F0E7CF
S11347A0127A084C7C4413212000FDF707FC030017
S11347B07422A0540028D9D0E3E7C0467EBBFF1F73
S11347C062BBFF1F48BBFF1F10B51300044C7C44A1
S11347D00A0001002000FEF737FC7423E05410BDEA
S11347E01EBBFF1F10B50A00044C7C4401002000CE
S11347F0FEF79EFC7423E05410BDC04602BBFF1FAD
S113480010B50100034C7C442000FEF7E5FC742342
S1134810E05410BDE6BAFF1F10B5044C7C440121DE
S11348202000FFF737F97423E05410BDD0BAFF1FFE
S113483010B50A00044C7C4401002000FFF760F925
S11348407423E05410BDC046B6BAFF1F10B5044C23
S11348507C4401212000FEF7B7FD7423E05410BD11
S11348609CBAFF1F10B50100034C7C442000FEF7E6
S11348706BFD7423E05410BD82BAFF1F10B50A000B
S1134880044C7C4401002000FEF7EAFE7423E0544B
S113489010BDC0466ABAFF1F10B50A00044C7C4420
S11348A001002000FEF71EFF7423E05410BDC04633
S11348B04EBAFF1F10B50A00044C7C4401002000CE
S11348C0FEF7E8FF7423E05410BDC04632BAFF1F60
S11348D010B51300044C7C440A0001002000FFF7CB
S11348E039FA7423E05410BD16BAFF1F10B5130033
S11348F0044C7C440A0001002000FFF76FFA742383
S1134900E05410BDFAB9FF1F10B50A00044C7C44F2
S113491001002000FFF7A8FA7423E05410BDC0463C
S1134920DEB9FF1F10B5044C7C442000FFF7E6FA03
S11349307423E05410BDC046C4B9FF1F10B5010074
S1134940034C7C442000FFF74FF97423E05410BD5E
S1134950AAB9FF1F10B5D3B2044C7C440A0001006D
S11349602000FFF7B5FB7423E05410BD92B9FF1F7C
S113497010B5D3B2044C7C440A0001002000FFF7B8
S1134980E5FA7423E05410BD76B9FF1F10B5130087
S1134990044C7C440A0001002000FFF739FC742316
S11349A0E05410BD5AB9FF1F10B51300044C7C44E9
S11349B00A0001002000FFF78BFC7423E05410BDB3
S11349C03EB9FF1F002070470020704710B5FBF769
S11349D035FD10BD0FB4F0B5C3B048AD80CD802611
S11349E076003200002102AC200001F0E2FB0095C9
S11349F02B003A003100200001F08EFD200001F070
S1134A00A9FCC0B26B46D871D979C9B22000FDF7B0
S1134A10A7F843B0F0BC08BC04B0184710B5FDF7C4
S1134A20DFF8002800D110BD02487844FFF7D2FF18
S1134A300120F8E76A39000010B5FDF7ADF8002849
S1134A4000D110BD02487844FFF7C4FF0120F8E705
S1134A504E39000010B5012801D1FDF7E5F810BD6D
S1134A60F8B557464E464546DE464B00414A5B0D77
S1134A70E0B59F1805000C0080460E00894682466A
S1134A80132F26DC002F56DB3B4B3B4198460B0093
S1134A9042461340034316D0384A394B00F08CFD8C
S1134AA00022002300F026FA00280AD0002C03DD9F
S1134AB080235B033B41994443464E469E43002377
S1134AC09A46504631003CBC90469946A246AB46B5
S1134AD0F8BD332F08DD8023DB009F42F3D10200B1
S1134AE00B0000F069FDEEE7264A94460122634478
S1134AF05242DA4093460242E5D0204A204B00F06D
S1134B005BFD0022002300F0F5F90028D9D0002C29
S1134B1028DD142F23D03423DB1B01279F407F196A
S1134B20AF429B415B4299445B469F434E46BA4623
S1134B3031005046C7E7114A114B00F03DFD0022F9
S1134B40002300F0D7F90028BBD0002C0CDB002395
S1134B502C439A460026002CB3D00B4EB1E7012318
S1134B609C46E1444746DFE7002380269A46360602
S1134B70A7E7C04601FCFFFFFFFF0F009C750088FC
S1134B803CE4377EEDFBFFFF0000F03F02B47146CA
S1134B9049084900095C49008E4402BC7047C0467C
S1134BA003B47146490840004900095E49008E4437
S1134BB003BC7047002243088B4274D303098B4221
S1134BC05FD3030A8B4244D3030B8B4228D3030CD9
S1134BD08B420DD3FF22090212BA030C8B4202D37B
S1134BE01212090265D0030B8B4219D300E0090AA3
S1134BF0C30B8B4201D3CB03C01A5241830B8B42AC
S1134C0001D38B03C01A5241430B8B4201D34B0394
S1134C10C01A5241030B8B4201D30B03C01A5241F9
S1134C20C30A8B4201D3CB02C01A5241830A8B427E
S1134C3001D38B02C01A5241430A8B4201D34B0267
S1134C40C01A5241030A8B4201D30B02C01A5241CB
S1134C50CDD2C3098B4201D3CB01C01A524183097F
S1134C608B4201D38B01C01A524143098B4201D3B9
S1134C704B01C01A524103098B4201D30B01C01AE4
S1134C805241C3088B4201D3CB00C01A524183085E
S1134C908B4201D38B00C01A524143088B4201D38B
S1134CA04B00C01A5241411A00D2014652411046EB
S1134CB07047FFE701B5002000F0F0F802BDC046E0
S1134CC00029F7D076E7704703460B437FD40022D0
S1134CD043088B4274D303098B425FD3030A8B428C
S1134CE044D3030B8B4228D3030C8B420DD3FF22F6
S1134CF0090212BA030C8B4202D31212090265D0C4
S1134D00030B8B4219D300E0090AC30B8B4201D376
S1134D10CB03C01A5241830B8B4201D38B03C01ABD
S1134D205241430B8B4201D34B03C01A5241030B34
S1134D308B4201D30B03C01A5241C30A8B4201D3E5
S1134D40CB02C01A5241830A8B4201D38B02C01A90
S1134D505241430A8B4201D34B02C01A5241030A07
S1134D608B4201D30B02C01A5241CDD2C3098B42EC
S1134D7001D3CB01C01A524183098B4201D38B0169
S1134D80C01A524143098B4201D34B01C01A52410C
S1134D9003098B4201D30B01C01A5241C3088B4251
S1134DA001D3CB00C01A524183088B4201D38B003C
S1134DB0C01A524143088B4201D34B00C01A5241DE
S1134DC0411A00D201465241104670475DE0CA0FB5
S1134DD000D04942031000D34042534000229C4675
S1134DE003098B422DD3030A8B4212D3FC2289017F
S1134DF012BA030A8B420CD3890192118B4208D355
S1134E00890192118B4204D389013AD0921100E0B6
S1134E108909C3098B4201D3CB01C01A52418309CA
S1134E208B4201D38B01C01A524143098B4201D3F7
S1134E304B01C01A524103098B4201D30B01C01A22
S1134E405241C3088B4201D3CB00C01A524183089C
S1134E508B4201D38B00C01A5241D9D243088B42F2
S1134E6001D34B00C01A5241411A00D20146634695
S1134E7052415B10104601D34042002B00D54942F9
S1134E80704763465B1000D3404201B5002000F038
S1134E9005F802BD0029F8D016E770477047C046F0
S1134EA08446101C62468C46191C634600E0C046CA
S1134EB01FB500F02FFF002801D40021C8421FBDF8
S1134EC010B500F089FE4042013010BD10B500F06D
S1134ED021FF002801DB002010BD012010BDC046C9
S1134EE010B500F017FF002801DD002010BD0120DF
S1134EF010BDC04610B500F0A9FE002801DC00205A
S1134F0010BD012010BDC04610B500F09FFE002862
S1134F1001DA002010BD012010BDC04610B50023E9
S1134F20002802D001F036F8431C180010BDC0461A
S1134F309E2110B5C905041C01F004F8002803D112
S1134F40201C00F0C9FA10BD9E21201CC90500F0E8
S1134F5027F900F0C1FA80231B069C466044F2E75F
S1134F60F8B557464E464546DE46E0B5470246008C
S1134F7088467F0A360EC40F002E47D0FF2E24D059
S1134F80FB008027FF041F43002399469A467F3E77
S1134F9043465D025800DB0F6D0A000E984643D06D
S1134FA0FF283BD0EB0080250022ED041D437F3811
S1134FB03618731C41469B464B46614013430F2BE6
S1134FC064D875489B00C3589F46002F42D10823DC
S1134FD09946063BFF269A46DAE74146022A28D03C
S1134FE0032A00D1CEE0012A00D0ACE01140002019
S1134FF00022CCB24002D205400AE4071043204309
S11350003CBC90469946A246AB46F8BD002F15D14C
S113501004239946033B00269A46B9E7FF2002225F
S1135020002DC5D00322C3E7002D19D10020012291
S1135030BEE70124FF220C400020DBE7380000F02B
S11350408BFF7626431F9F4000237642361A9946EB
S11350509A469DE70C239946093BFF269A4697E713
S1135060280000F079FF431F9D4076235B42181A05
S113507000229DE780200024C003FF22BAE73D0000
S11350805246ABE73D0021005246A7E73B0C9C4645
S11350902A04120C2B0C1400604665463F043F0C96
S11350A07C4342435D437B43270C9B18FF18BA4261
S11350B003D980235B029C46654424043A04240CEF
S11350C0121993015C1EA3413F0C920E7D191A43E1
S11350D0AD0115432B0104D501235E466A081D402A
S11350E0154332007F32002A25DD6B0704D00F23DD
S11350F02B40042B00D004352B0103D53200274B61
S113510080321D40FE2A94DC0124A801400AD2B258
S11351100C406FE78020C003074207D0054205D149
S113512028434002400A4446FF2263E738434002D2
S1135130400AFF225EE70124A31A1B2B05DD0C4065
S11351400022002056E75E46CBE72A002020DA4002
S1135150C31A9D402B005D1EAB4113435A0704D074
S11351600F221A40042A00D004335A0104D5012422
S113517001220C4000203DE701249B01580A0C4009
S1135180002237E780200124C00328434002400A5C
S11351900C40FF222EE7C046CC830000FFFFFFF740
S11351A0F0B54F46D64646464400C0B5C20F470246
S11351B04802400A844666467B0A4800C90F9A465C
S11351C0240E1500DB00000E8946F600FF2800D1EE
S11351D08FE001214F464F403900914266D0221A98
S11351E0002A00DC9DE000283DD1002E00D18BE098
S11351F0511E002900D0B5E001249B1B5A0144D55F
S11352009B019F09380000F0A7FE053887408442BF
S113521000DD96E0041B3A0020200134E240041B28
S1135220A7403B005F1EBB41002413435A0704D030
S11352300F221A40042A00D004335A0127D501341E
S1135240FF2C00D179E001229B015B0AE4B22A40E1
S11352505B02E405580AD207204310431CBC904665
S11352609946A246F0BDFF2CE0D08021C9040E432C
S11352701B2A7BDC31002020D140821A9640721E0A
S113528096410E439B1B5A01BAD45A07D0D101222E
S1135290DF082A40FF2C33D1002F00D1A8E080235F
S11352A0DB033B435B025B0AFF24D1E7211A00299D
S11352B04CDD00282AD0FF2CB8D08020C00406433F
S11352C01B2900DDAFE030002027C840791A8E404A
S11352D0711E8E4106439B195901D6D50134FF2C0A
S11352E000D185E001227A491A405B080B40134340
S11352F09CE7002E00D070E76BE73B1EC5D100226F
S11353007B025B0AE4B2A3E714008FE7002E4DD0C2
S1135310481E002857D19B1901245A01B5D50224EF
S1135320E0E7002A25D1621CD2B2012A72DD9F1B5C
S11353307A0135D5F71A0D0064E7012200232A40CB
S113534086E73B00634A241A13406FE700296CD1B7
S1135350611CC8B201284EDDFF2949D09B195B08A6
S11353600C0063E7FF2A41D00A0081E701269B1B5A
S113537089E7002C1CD0FF2821D08024E404524269
S113538023431B2A00DD96E01C002025D440AA1AE2
S113539093405A1E93412343F31A04000D002DE752
S11353A0002F00D02EE700220024A9E70C003DE7DF
S11353B0002B58D0D243002AEED0FF28E1D133008D
S11353C0FF240D0032E7FF2910D0010078E7002BFD
S11353D06ED0FF24002E00D128E780225146D2034C
S11353E0114203D06146114200D13300FF241DE76E
S11353F0FF2400232CE7002CE9D1002B63D0002EDE
S113540000D113E79B195A0100D43EE7314A0C003E
S113541013400BE7002C1ED1002B2FD1002E4FD0B0
S113542033000D0002E7012655E7002C1FD1002BA5
S113543043D0C94300290BD0FF2839D01B2944DCB1
S11354401C002027CC40791A8B40591E8B412343E2
S11354509B19040040E7002B1AD1002E24D1802789
S11354600022FF031BE7330004000D00DEE6FF28E3
S11354701ED08024E40449422343DFE7002E00D1F8
S1135480D4E69F1B7A0100D437E7F31A0D00CDE66A
S1135490FF24002E00D1C9E680225046D2031042D8
S11354A0A4D060461042A1D133000D00FF24BDE614
S11354B03300FF24BAE601236EE733000400B5E6A7
S11354C0002700221CE73300B0E60123C0E7C046F2
S11354D0FFFFFF7DFFFFFFFB41024300C20F490AAC
S11354E01B0E00207E2B0DDD9D2B0CDC8020000488
S11354F00143952B0ADC9620C31AD9404842002A5E
S113550000D108007047034BD018FBE7963B994045
S1135510F4E7C046FFFFFF7F70B5002830D0C31703
S1135520C4185C40C50F200000F016FD9E231B1A12
S1135530962B0DDC9622D21A94402A006402640A47
S1135540DBB26402DB05600AD2071843104370BD66
S1135550992B19DC9922D21A002A29DD94402200C1
S1135560144C1440510704D00F210A40042A00D0DF
S11355700434620113D4A401640ADBB22A00E0E714
S1135580002200230024DCE705222100121AD14066
S1135590B922D21A9440621E94410C43DAE7054BB7
S11355A02A001C409F23A4011B1A640ADBB2C8E72B
S11355B02200D5E7FFFFFFFBF8B54546DE46574618
S11355C04E460C03E0B54E00C90F88460D00610A33
S11355D0440F0C43C70019035800DB0F9B464B0ACA
S11355E0510F0B43760D400D1900D200D84500D160
S11355F0AEE0351A002D00DCF6E000280FD113438D
S113560000D1DBE06B1E002B00D037E1BA1A9742C1
S1135610BF41641A7F42E41B0126170024E0C64BF5
S11356209E424DD080231B041943382D00DD07E131
S11356301F2D00DD38E12020431B9A460B00504605
S11356408340994613004846EB40184303005046F4
S11356508240501E8241E9401A43BA1A611A9742A5
S1135660A441170064420C1B230262D56402650A3C
S1135670002D00D1DFE0280000F06EFC0300083BA1
S11356801F2B00DDD2E020223C00D21A9D40D440E2
S11356909F4025439E4200DDC4E09E1B731C1F2BCC
S11356A000DDF1E0202238002900D21AD8409140D0
S11356B097402C000143781E8741DC4000260F43AD
S11356C07B0709D00F233B40042B05D03B1DBB4275
S11356D0BF417F42E4191F0023022CD5964B0136AB
S11356E09E4200D19AE04546944BFF081C40600757
S11356F0760564020743240B760D00212403230B53
S11357000C0D8F4A24051C431440330523435B00CE
S1135710ED075B082B43380019003CBC90469946C2
S1135720A246AB46F8BD6446044300D111E204002E
S113573067467B07C6D145466007FF080743E40870
S11357407D4B9E4230D024037605240B760DD4E79E
S1135750331A9A46002B78DD002831D076488642E9
S1135760AED08020000401435346382B00DCE9E02E
S11357700A43511E8A410021D219BA42BF41091974
S11357807C4217000C192302D3D56B4B01369E4281
S113579000D13AE10120694B1C407B0807401F43BC
S11357A0E007074364088BE723003B4300D1CBE1C8
S11357B08022120314432403240B9EE72E007FE768
S11357C00800104300D1B4E0581E002800D0DEE0E9
S11357D0BA18BA429B4164185B42E41817000126C8
S11357E02302A6D50226D5E7002D6ED1701C4005F4
S11357F0400D012800DCF9E0B81A84468742804154
S1135800E51A40422D1A280200D489E0D71BBA4277
S113581092411C1B5242A51AD84629E7454600244A
S113582000276AE7454CF61A2C4049E73D00283822
S1135830854000272EE7380000F08EFB20301DE75E
S11358400A43511E8A41002107E7002B00D0F3E0F0
S1135850701C43055B0D012B00DCADE0364B984218
S113586000D1D1E0BA18BA42BF4164187F42E419AA
S1135870E707520817436408060021E72E488542CB
S113588000D193E01D00D0E629001F3EF140202BFB
S113589000D18DE04022D31A9D402F437D1EAF419D
S11358A000240F43002644E72B000800203BD84087
S11358B00300202D00D17DE04020451BA9400A4370
S11358C0511E8A4100211A43C7E6002E50D01A4EB9
S11358D0B04257D080266B429946360434434B4637
S11358E0382B00DDD6E01F2B00DD35E12026F51A2C
S11358F02600AE40B2463E00DE40AC463500564679
S11359002E436546AF407D1EAF41DC403743D71B75
S1135910BA4292410C1B5242A41A0600D846A3E68E
S1135920644667462C4300D0A2E6002500260027E3
S113593006E71E00C4E6C046FF070000FFFF7FFF26
S1135940FFFF0F801F2B63DC2020C31A0800984040
S11359509C46834653461000D840030058461843DB
S113596063469A40531E9A4153460243D94003E783
S113597026003E4306D0EB439946002BC7D0944EF5
S1135980B042ACD10C0017000600D84698E6904B04
S11359909A450BD08246E7E6002800D09EE0180026
S11359A0104300D1E9E01C001700D846884E87E672
S11359B0002572E7002182E723003B43002E00D03C
S11359C0ABE0002B00D1E7E00B00134300D177E6F6
S11359D0BA18BA42BF4164187F42E419230200D4C2
S11359E0F2E07C4B17001C40060069E620003843B7
S11359F0002ED1D100285BD11C00144300D1A8E0B3
S1135A001C001700D8465BE606000024002797E632
S1135A1050460B002038C34099465346202B00D1F2
S1135A2095E0402350461B1A99400A43511E8A416F
S1135A304B4600211A439FE6002E30D126003E43F8
S1135A4067D0DB439A46002B1CD0614EB04260D035
S1135A505346382B00DD96E01F2B00DD9FE0202607
S1135A60F31A26009E409C46B34653463E00DE4051
S1135A7033005E461E4363469F407B1E9F41534650
S1135A80DC403743BF189742924164185242A4182D
S1135A90060078E627437C1EA741002437E74C4ED6
S1135AA0B04236D080265B4236049A463443CFE770
S1135AB01800104300D103E6B81A84466745AD4187
S1135AC0E01A6D42401B050200D42CE6D71BBA42F3
S1135AD092411C1B5242A41AD846F1E51800104307
S1135AE000D163E7F808670707438020E408000350
S1135AF0044208D0DD08054205D1D20859071143F4
S1135B000F002C00D8467B0FE4001C43FF00304EEE
S1135B10D6E50C0017000600D2E5002B38D00B00A8
S1135B20134300D142E7F808670707438020E408DD
S1135B3000030442E7D0CB080342E4D1D20849076A
S1135B4011430F001C00DEE700270024D5E50021E7
S1135B506BE700250027F3E54E462500203EF5407F
S1135B604B462E00202B2DD04025ED1AAC40274368
S1135B707C1EA74100243743C9E680240025240362
S1135B80134E0027DCE527437C1EA741002479E758
S1135B900C0017000E4E93E50C00170090E55646D6
S1135BA02300203EF34099465346202B0ED0402339
S1135BB056469B1B9C4027437C1EA7414B46002412
S1135BC01F435FE70024D2E71700B2E50024F2E7A1
S1135BD0FF070000FFFF7FFFF0B54F464646D6465D
S1135BE05C00C0B51F03DB0F9A46174B0E034D0034
S1135BF084468046360B6D0DC90F91463F0B640DEC
S1135C0001209D4208D09C4201D0A5420BD01CBC6F
S1135C1090469946A246F0BD63463343F7D1AC4261
S1135C20F5D13A43F3D10120BE42F0D1C845EED1BB
S1135C30514507D0002DEAD163461E433000461E6D
S1135C40B041E4E70020E2E7FF070000F0B5454675
S1135C50DE4657464E46E0B51F033D0B2C4F0E0360
S1135C604C00AB465D008446360B640DC90F90466C
S1135C706D0DDB0FBC422AD0254FBD422DD0002C28
S1135C800FD130430700814678427841C0B2002DDD
S1135C9017D15F463A4314D14B460020002B0AD05B
S1135CA006E0002D02D15846024301D0994218D093
S1135CB04842012108433CBC90469946A246AB4663
S1135CC0F0BD0028F2D00120013B1843F3E7370070
S1135CD00743D1D002204042EDE75F461743CED0C0
S1135CE0F8E7AC42E4DC03DA481E01210843E2E7AA
