S0220000706366383537785F696F5F657870616E6465725F53414D4432312E73726563D9
S1130000482B0020250100002101000021010000EF
S113001000000000000000000000000000000000DC
S113002000000000000000000000000021010000AA
S11300300000000000000000210100002101000078
S11300402101000021010000210100002101000024
S11300502101000021010000210100002101000014
S11300602101000021010000210100002101000004
S113007021010000210100002101000021010000F4
S113008021010000210100002101000021010000E4
S11300902101000000000000000000002101000018
S11300A021010000210100002101000021010000C4
S11300B00000000010B5064C2378002B07D1054B37
S11300C0002B02D0044800E000BF0123237010BDC0
S11300D0B009002000000000308C0000084B10B56F
S11300E0002B03D00749084800E000BF0748036815
S11300F0002B00D110BD064B002BFBD09847F9E72D
S113010000000000B4090020308C0000308C000096
S11301100000000010B5014B984710BD31030000EA
S1130120FEE70000F8B5234A234B9A4209D0224B3C
S1130130204A03E011681960043304321F498B42DA
S1130140F8D31F4B02E000221A6004331D4A934285
S1130150F9D31D4AFF211D4B8B439360FD39902336
S11301605B001B4AD1501B4AD3780325AB430224BE
S11301702343D370D3780C27BB4308263343D3706F
S1130180154B987B30229043202210439873997B1F
S1130190B943314399739A7BAA4322439A730F4A12
S11301A0516880230B4353600D4B98470D4B984780
S11301B0FEE7C046308C000000000020B00900209B
S11301C0B0090020480B002000ED00E00000000012
S11301D000700041005000410048004100400041CF
S11301E0BD3A00008510000070B5134B5020195C17
S11301F0042291431954195C0125A9430124214384
S1130200C9B219541838195C0F26B1430226314378
S1130210C9B2195451215E5C96435E545A5CAA4398
S11302202243D2B25A541A5C42390A4020210A436A
S1130230D2B21A5470BDC04600440041054A136A44
S113024008210B431362044B044A5A80044A5A801F
S11302507047C04600040040000C004015400000F8
S11302601343000010B5044B984704490448054B58
S11302709847054B984710BD3D020000000C004212
S1130280000B0020F1030000E901000030B50F4B22
S1130290C222995C0125A94301242143C9B299547E
S11302A0B120195CB33A914303221143C9B21954E2
S11302B0C3215A5CAA432243D2B25A541A5CB439B9
S11302C00A4030210A43D2B21A5430BD00440041DE
S11302D0044A136A80210B431362034A034B5A8076
S11302E07047C0460004004019400000000C004064
S11302F010B5054B9847002204490548054B98471B
S1130300054B984710BDC046D1020000001C0042B6
S1130310F40A0020A90500008D02000010B502486F
S1130320024B984710BDC04610E000E055030000A2
S113033010B5044B9847044B9847044B9847044B1B
S1130340984710BD8906000065020000F102000014
S11303501D03000010B5024B1860024B984710BDF6
S1130360CC0900203910000010B5044B1C68044B64
S1130370984701002000034B984710BDCC0900208A
S11303807D0600004510000010B584B01438848B3D
S113039001AB1C8014000292064A5A800391190092
S11303A0054B9847002802D1200004B010BD04007A
S11303B0FAE7C0460080FFFF090D000010B584B0C5
S11303C01438848B01AB1C8014000292064A5A80B4
S11303D003911900054B9847002802D1200004B06E
S11303E010BD0400FAE7C0460180FFFF090D0000BC
S11303F070B504000D00431E9841C0B25E22074947
S1130400074B984729002000064B9847002803D142
S1130410054BA361054B636170BDC0460C830000AE
S113042051060000590C0000BD03000089030000C0
S113043010B5014B984710BD890C00008905890D42
S11304408023DB001A400A43828310007047143073
S1130450086000207047000070B504000D0016000D
S113046000280ED000290AD0012034220649074B67
S113047098472368320029002000984770BD002067
S1130480F3E70020F1E7C04628830000510600008E
S113049070B504000D00160000280ED000290AD003
S11304A001203D220649074B984763683200290022
S11304B02000984770BD0020F3E70020F1E7C04614
S11304C02883000051060000F8B505000E0017004F
S11304D0002823D0002923D0002A23D10020F12290
S11304E01149124B98472C0008342000104B9847B0
S11304F00028F8D00025715D20000E4B984720009D
S11305000B4B98470028FAD00135BD42F3D32000A5
S1130510094B98470028FAD02800F8BD0020DEE7F0
S11305200020DCE70120DAE73C83000051060000EC
S1130530370C0000270C0000410C0000F8B5CE4633
S1130540474680B5051E884691461FD000291FD016
S1130550002A1FD10020862252000F490F4B9847D2
S113056000262C00083420000D4B98470028F8D0B2
S113057043469F1920000B4B9847387001364E456F
S1130580EFD330000CBC90469946F8BD0020E2E75A
S11305900020E0E70120DEE73C8300005106000074
S11305A04D0C00002F0C000070B504000D00002855
S11305B014D0002910D0012034220949094B98474E
S11305C0200008302900084B9847002803D1074B26
S11305D06360074B236070BD0020EDE70020EBE76C
S11305E03C83000051060000E90B00003D050000BB
S11305F0C904000010B50400431E9841C0B2532240
S11306000449054B984720000830044B98470020C4
S113061010BDC0463C83000051060000150C0000CC
S113062070B504000D0000280BD0002907D001206C
S113063069220549054B98472C60002070BD0020B5
S1130640F6E70020F4E7C0463C83000051060000B2
S1130650002800D100BE70470300064A1268002A31
S113066004D0044A1068C318136070470249014A51
S11306701160F6E7D0090020482B002003011B1A63
S11306801A0164205043704710B5074B5A685A60EA
S1130690064B9847064B98470220064CA047064B4A
S11306A09847FD20A04710BD00400041FD06000012
S11306B0850F0000BD0600009D0F0000C30709D58B
S11306C00B4B802252009A600A4A5A60084B5B78AE
S11306D0DB09FBD1830709D5054B0222FF329A605F
S11306E0054A5A60024B5B78DB09FBD17047C04670
S11306F0000C00400007010001030100074B1A7AB7
S113070001210A43D2B21A725A7AD2B25A729A7A2E
S1130710D2B29A72DA7AD2B2DA7270470004004026
S1130720024B9C466044800AC0B2704700F8FFBD8B
S113073010B50B4B984702000020002806D0094A48
S113074009490020094B9847002010BD83001B185D
S11307509900074BCB5C9A42F7D00130C0B2ECE76A
S1130760210700003A020000A8830000510600009F
S11307705883000070B50400384B9847E369DB07E1
S11307801DD483001B189A00354B9B185A681C23F0
S11307901A40E3699B07FCD123689B0709D52368AA
S11307A002218B432360E3699B07FCD1E3699B0728
S11307B0FCD4012313432360E3699B07FCD1E36961
S11307C0DB07FCD483001B189A00254B9B185B683D
S11307D02360E3699B07FCD183001B189A00204B1C
S11307E09B189B686360E3695B07FCD183001B185B
S11307F09A001B4B9B185B689A040BD4C022D2014D
S1130800134207D183001B189A00154B9B189B8930
S1130810A38115E083001B189A00114989188A895D
S1130820A389D204D20C5B0B5B031343A3818B7BA0
S113083007221A40A3895203DB04DB0C1343A38170
S1130840074A83001D18A9000D005118C97BA17324
S11308505219127C3023E254002070BD310700008D
S11308605883000010B50D4B98470023002B08D087
S1130870E62292000A4900200A4B98470120404290
S113088010BD5A00D218D100074A5218127D904266
S113089002D00133DBB2E9E758B2F1E721070000E7
S11308A0A8830000510600005883000070B50500BD
S11308B00C0008002D4B9847C0B2E369DB071DD438
S11308C043001B18DA002A4B9B189A691C231A4010
S11308D0E3699B07FCD123689B0709D523680221A0
S11308E08B432360E3699B07FCD1E3699B07FCD43A
S11308F0012313432360E3699B07FCD1E369DB070E
S1130900FCD443001B18DA00194B9B189B69236025
S1130910E3699B07FCD143001B18DA00144B9B18B6
S1130920DB696360E3695B07FCD442001218D10001
S11309300F4B5B181A6AE260DA7E03231A40AA811D
S1130940023B93429B415B42626A0A490A409B0311
S113095013436362E3695B07FCD443001818C200C5
S1130960034B9B18DB8CEB81002070BD65080000F5
S113097058830000FFBFFFFF70B5050004692368BA
S1130980DB0E01261E40431E9841C0B28E4A8F4999
S11309908F4B98476B68012B4DD063688D4A134089
S11309A06360E3695B07FCD42B885A054ED56A88DB
S11309B0D20704D56A888021C9000A436A805B0093
S11309C0854A1A40E3695B07FCD4636A8021C90144
S11309D00B4013438022120213436362E3695B07F3
S11309E0FCD42E697D4A337EDBB21800511E002AE6
S11309F002D00A009B07F6D02368DB0E01221A40BE
S1130A00E3695B07FCD4638B9BB2C10700D48FE01E
S1130A109A072FD5012222766A88802149010A4348
S1130A206A806A886E490A406A80DB0700D4C6E09F
S1130A3005204042A2E0002EAFD062688023DB0292
S1130A4013436360E3695B07FCD4ADE75B00FF22FB
S1130A5013406A8801210A401A43E3695B07FCD406
S1130A60636A8021C9010B4013436362E3695B0736
S1130A70FCD4B6E75B071BD46B885B0534D52A88A6
S1130A801212520006231A40E3695B07FCD4636A1E
S1130A908021C9010B401343F12213436362E369CC
S1130AA05B07FCD46B884F4A13406B80002065E0E1
S1130AB06B68002B04DD6B888022520113436B802A
S1130AC06B881BB2002B06DB6B88454A13406B8096
S1130AD00220404252E06268C0239B0213436360D9
S1130AE0E3695B07FCD4EFE76868002811D16B88E1
S1130AF01BB2002B04DB6B88394A13406B803DE04A
S1130B006268C0239B0213436360E3695B07FCD400
S1130B10F1E7AB681A782823E254E3695B07FCD455
S1130B20AB680133AB606B68013B6B60002025E070
S1130B30810747D5696800293CD05B073AD401395D
S1130B406960002901D1002A1BD0012917D06B68E4
S1130B50002B07D16B881BB2002B1BDB6B88204A50
S1130B6013406B80AA68531CAB60E3695B07FCD439
S1130B702823E35C137002232376002070BD002A2F
S1130B80E5D062688023DB0213436360E3695B079B
S1130B90FCD4DCE76368124A13406360E3695B07D3
S1130BA0FCD46268C0239B0213436360E3695B0760
S1130BB0FCD4D3E70223237602204042DEE704205C
S1130BC04042DBE70020D9E794050000A883000039
S1130BD051060000FFFFFBFFFE070000FFFF0000BF
S1130BE0FFFEFFFFFFFBFFFF70B505000C00431E77
S1130BF09841C0B2B4220449044B98472C602000A9
S1130C00034B984770BDC046A883000051060000FE
S1130C10750700000268136802210B431360D3694F
S1130C209B07FCD17047036889B219857047036834
S1130C30188DC0B270470368187E012318407047AE
S1130C4003681B7E5B0801201840704703681B7E05
S1130C509B0801201840704770B504000D00431E26
S1130C609841C0B2044A0549054B984725612900BB
S1130C702000044B984770BD07050000A8830000BE
S1130C8051060000AD08000070B50400194D431E64
S1130C909841C0B2184A2900184EB0472469200070
S1130CA0431E9841C0B2164A2900B0472368022265
S1130CB013432360E3699B07FCD104201149E369D2
S1130CC05B07FCD4628B120903231340012B0BD066
S1130CD001390029F3DC0138002807D0102363838D
S1130CE0E3695B07FCD4E9E7002070BD06204042BD
S1130CF0FBE7C046A883000024050000510600005D
S1130D00F4050000FFFF0000F8B505000E000469BB
S1130D10431E9841C0B2934A9349944FB8472869F7
S1130D20431E9841C0B2B822D2008F49B847300060
S1130D30431E9841C0B28E4A8B49B8476B88DB0585
S1130D4000D50BE1728880235B009C461A437280B5
S1130D502A00310089C989C262686346134363600B
S1130D60E3695B07FCD42800824B9847002800D134
S1130D709DE06B88804A13406B80F8BD052040429B
S1130D80A6E073881BB2002B04DB6B887A4A1340FD
S1130D906B80F2E76268C0239B0213436360E369DC
S1130DA05B07FCD4F1E753071BD46B885B0534D590
S1130DB02A881212520006231A40E3695B07FCD406
S1130DC0636A8021C9010B401343F1221343636218
S1130DD0E3695B07FCD46B88684A13406B8000208E
S1130DE065E06B68002B04DD6B888022520113439D
S1130DF06B806B881BB2002B06DB6B885E4A13404A
S1130E006B800220404252E06268C0239B0213437D
S1130E106360E3695B07FCD4EFE76868002811D1DD
S1130E206B881BB2002B04DB6B88534A13406B8026
S1130E303DE06268C0239B0213436360E3695B0780
S1130E40FCD4F1E7AB681A782823E254E3695B0722
S1130E50FCD4AB680133AB606B68013B6B60002072
S1130E6025E0BB0778D56B68002B6DD052076BD497
S1130E70013B6B60002B01D100294CD0012B48D0E1
S1130E806B68002B07D16B881BB2002B4CDB6B8883
S1130E90394A13406B80AA68531CAB60E3695B0753
S1130EA0FCD42823E35C13700223237600206B8890
S1130EB0DB0500D461E72869314A037EDBB21F00F9
S1130EC0511E002A00D159E70A009B07F5D00020E3
S1130ED0002800D055E72368DB0E01211940E3699F
S1130EE05B07FCD4628B92B2FB07BAD5930700D49C
S1130EF059E7012323766B88802149010B436B80DA
S1130F006B881D490B406B80D30722D505204042D6
S1130F10CDE70029B4D062688023DB021343636009
S1130F20E3695B07FCD4ABE76368134A134063606F
S1130F30E3695B07FCD46268C0239B0213436360CC
S1130F40E3695B07FCD4A2E7022323760220404234
S1130F50ADE704204042AAE70020A8E7062040426B
S1130F600BE7C046BF050000A8830000510600003F
S1130F70C105000079090000FFFEFFFFFFFBFFFF32
S1130F80FFFF0000044B9A6902210A439A611A7F09
S1130F901D310A401A777047000800408222D201AE
S1130FA01C4B5A8002221C4B9A841B4BDB68DB06C9
S1130FB0FBD51A4A184BDA62194B1B689B0E3F2B60
S1130FC020D09B02802292001343134A936206238B
S1130FD09384938C5B0718D50F4BDA68D0231340A6
S1130FE0D02BF9D10C4A938C80210B439BB2938470
S1130FF0084B5B78DB09FBD1074A936902218B43D9
S113100093617047FC23DB01DFE7034BDB68DB06FE
S1131010FBD5E7E7000C004000080040B9050104D7
S113102024608000024B034A5A6005221A6070470C
S113103010E000E0FFFFFF0010B5014B984710BD22
S113104025100000080E0BE00B4B0C48586098600C
S1131050094B1B68DB03FBD5094B9C46614410001C
S1131060421ED2B20028EFD1034B59609960024B63
S11310701B68DB03FBD5704710E000E0FFFFFF00B7
S1131080010000FFF0B585B0314B984701210220E3
S1131090304B9847011E57D12F4C20002F4B9847B7
S11310A0210018312E482F4DA847210031312E48F8
S11310B0A84721004A312D48A8472D4FA06DB847B5
S11310C002000B002B48A847606DB84702000B00D4
S11310D02948A847E06DB84702000B002748A847F5
S11310E0606EB84702000B002548A847E36E254E02
S11310F025490293181CB047039024490298B0472D
S1131100234EB047C3B264205843224B9847011C76
S11311100298214B9847B047C6B20398B8470200DB
S11311200B0000961D48A8476823E15C1C48A847AB
S11311306923E15C1B48A84707201B4B9847FA200A
S113114040001A4B9847F7E71948064B9847A3E71E
S11311501501000041170000D4090020CD1600003D
S1131160E88300003D180000FC83000010840000A8
S1131170853500002C84000048840000648400004D
S113118080840000ED1B000000007A440000C84287
S11311903D1A0000F52100007D1E00009C84000023
S11311A0BC840000E08400000D1800003118000029
S11311B0C483000070B582B006000C00074D01A97D
S11311C02800074B98472800064B9847A2B23100E5
S11311D00198054B984702B070BDC046F40A002040
S11311E021060000F505000059040000F0B583B0A5
S11311F0050016001F000B4C01A920000A4B98475C
S113120020000A4B984729B2802212012000084B83
S113121098473A0031000198064B9847002003B0E4
S1131220F0BDC046000B00204F0400003104000054
S11312303D04000059040000F0B583B00500160019
S11312401F000B4C01A920000A4B984720000A4BB1
S1131250984729B2802212012000084B98473A008F
S113126031000198064B9847002003B0F0BDC046FA
S1131270000B00204F040000310400003D04000076
S11312809104000070B5C4687025405DA047002833
S113129000D170BD0120FCE770B58468C9B2702527
S11312A0405DA047002800D170BD0120FCE700008C
S11312B010B543690148984710BDC0462485000015
S11312C010B5041E31D04369002B30D00268002AC7
S11312D013D04268002A14D08268002A15D0C2684C
S11312E0002A16D00269002A17D0236898470028DC
S11312F016D101227323E25418E00E4898470320C4
S113130014E00D489847032010E00C489847032048
S11313100CE00B489847032008E00A489847E4E7A4
S1131320636909489847012000E0022010BD0320AA
S1131330FCE7C0464085000064850000808500000D
S11313409C850000B8850000CC850000002811D0E1
S11313507323C35C012B01D0032070477033C35C3B
S1131360012B05D0202319437023C1540020F4E736
S11313703733F8E70220F0E710B5002810D07323C4
S1131380C35C012B01D0032010BD022903D87123B3
S1131390C1540020F8E70349034B98470420F3E7BE
S11313A00220F1E700860000B1120000F0B5C64645
S11313B000B584B005000E000192002203AB1A8030
S11313C0002800D1B6E07323C45C012C05D00324AB
S11313D0200004B004BC9046F0BD112901D90424B6
S11313E0F6E7023BC35C012B4CD0002B76D0022BDA
S11313F0EED103AA0021504FB847002820D103A9F9
S11314004A7812020B7813431BB2072E22D9023EEC
S1131410F6B20122B24093431BB2019FB7403B4353
S11314209BB202AA53800A000B701B0A4B70022362
S113143000212800414EB047002806D10400C7E728
S11314403F4928003F4B9847C2E73F4928003D4B9E
S11314509847BDE70122B24093431BB2019FB740B6
S113146002AA02321F431780022300212800334EB0
S1131470B047002801D10400AAE733492800314BC2
S11314809847A5E7072904D930492E4B98470424E7
S11314909EE7012303AA0021274FB847002813D150
S11314A003AB1B780122B2409343019FB74002AAC9
S11314B002321F4317800123002128001F4EB0472A
S11314C0002806D1040083E71D4928001D4B9847D6
S11314D07EE71D4928001B4B984779E7072904D963
S11314E01B49184B9847042472E7012303AA0021DF
S11314F0114FB847002813D103AB1B780122B24027
S11315009343019FB74002AA02321F43178001236D
S113151000212800094EB047002806D1040057E7EF
S113152007492800074B984752E707492800054B0D
S113153098474DE702244BE79912000085120000FA
S113154018860000B11200002C86000040860000BE
S11315505C860000F0B5C64600B584B005000E00F8
S11315600192002203AB1A80002800D16EE073239D
S1131570C45C012C05D00324200004B004BC9046B4
S1131580F0BD112901D90424F6E7023BC35C012B09
S113159020D0002B3CD0022BEED103AA00212C4FEB
S11315A0B847002811D103AB5A7812021B781A43AA
S11315B0072E01D9023EF6B27100264BCB5A1340D6
S11315C03341019A13700400D6E723492800234BC2
S11315D09847D1E7072904D92149204B9847042487
S11315E0CAE7012303AA0021194FB84700280AD1EA
S11315F003AB1A787100174BCB5A13403341019A4D
S113160013700400B8E714492800144B9847B3E753
S1131610072904D91249114B98470424ACE7012344
S113162003AA00210A4FB84700280AD103AB1A784D
S11316307100084BCB5A13403341019A13700400D4
S11316409AE705492800054B984795E7022493E754
S1131650991200000485000018860000B1120000F1
S11316607886000070B582B004000E00002823D0F4
S11316707323C55C012D02D0032002B070BD6B46FC
S1131680DA1D0E4B9847002810D16B46DA79534285
S11316905A41D2B231002000094B98470028ECD0BF
S11316A008492000084B98472800E6E70549200030
S11316B0054B98472800E0E70220DEE755150000B7
S11316C0AD13000094860000B112000070B5040050
S11316D0183019221049114DA84720004A30082219
S11316E00F49A8472000313019220E49A8470E4B54
S11316F0A3650E4B63650E4BE3650E4B63660E4BA1
S1131700236620226823E2541E3A0133E2540B4B31
S1131710E366002070BDC046A0860000FD3B0000CB
S1131720A8860000AC8600000000C04000002040F5
S11317300000C8420000AA42000020C200007A440F
S113174070B505000E00234C742200212000224BAA
S11317509847224B2360224B6360224BE360224B69
S1131760A360224B2361224B63612000214B9847E5
S11317707423E054002816D1164C290020001E4B77
S113178098477423E054002815D1124D31002800E5
S11317901A4B984704007423E854002812D10A20F5
S11317A0124B984705E01648114B98477423094A91
S11317B0D45C200070BD13480D4B98477423054A30
S11317C0D45CF6E710480A4B98477423014AD45C6A
S11317D0EFE7C046480A0020053B00002918000036
S11317E02D180000BD1800009518000031180000E5
S11317F03D180000C1120000791300004D130000D1
S1131800B0860000BC860000D086000010B5010040
S1131810034C2000034B98477423E05410BDC0468A
S1131820480A002065160000002070470020704719
S113183010B5014B984710BD690300000FB470B593
S1131840C2B046AC40CC80256D002A00002102A81D
S11318500C4B9847009423003200290002A80A4C3C
S1131860A04702A8094B9847C0B26B46D871D979F2
S1131870C9B202A8064B984742B070BC08BC04B079
S11318801847C046053B0000E93C0000993B0000B6
S1131890B511000010B59BB2C9B2054CA047002891
S11318A000D110BD0348044B98470120F9E7C04616
S11318B039120000E08600003D18000010B59BB20C
S11318C0C9B2054CA047002800D110BD0348044B01
S11318D098470120F9E7C046ED110000E0860000BA
S11318E03D180000002243088B4274D303098B4245
S11318F05FD3030A8B4244D3030B8B4228D3030CDC
S11319008B420DD3FF22090212BA030C8B4202D37D
S11319101212090265D0030B8B4219D300E0090AA5
S1131920C30B8B4201D3CB03C01A5241830B8B42AE
S113193001D38B03C01A5241430B8B4201D34B0397
S1131940C01A5241030B8B4201D30B03C01A5241FC
S1131950C30A8B4201D3CB02C01A5241830A8B4281
S113196001D38B02C01A5241430A8B4201D34B026A
S1131970C01A5241030A8B4201D30B02C01A5241CE
S1131980CDD2C3098B4201D3CB01C01A5241830982
S11319908B4201D38B01C01A524143098B4201D3BC
S11319A04B01C01A524103098B4201D30B01C01AE7
S11319B05241C3088B4201D3CB00C01A5241830861
S11319C08B4201D38B00C01A524143088B4201D38E
S11319D04B00C01A5241411A00D2014652411046EE
S11319E07047FFE701B5002000F006F802BDC046CD
S11319F00029F7D076E770477047C046002B11D115
S1131A00002A0FD1002900D1002802D00021C943A7
S1131A10081C07B4024802A14018029003BDC04646
S1131A20D9FFFFFF03B4684601B5029800F01EF821
S1131A30019B9E4602B00CBC7047C0469E2110B567
S1131A40C905041C01F05EFE002803D1201C00F02F
S1131A50B1FB10BD9E21201CC90500F00FFA00F057
S1131A60A9FB80231B069C466044F2E7F0B5574669
S1131A704E464546DE46E0B5040083B00D0092466E
S1131A8099468B422FD82CD04946504601F062FE2D
S1131A9029000600200001F05DFE331A9846203B21
S1131AA09B4600D574E053465A4693401F00534664
S1131AB0424693401E00AF4229D826D05B46A41B61
S1131AC0BD41002B00DA79E000220023009201934B
S1131AD001235A46934001930123424693400093C5
S1131AE019E08242D0D900220023009201930C9B7A
S1131AF0002B01D01C605D600098019903B03CBCD0
S1131B0090469946A246AB46F0BDA342D6D90022E0
S1131B100023009201934346002BE8D0FB07720890
S1131B201A4346467B080EE0AB4201D1A2420CD8D0
S1131B30A41A9D41012024196D410021013E24185D
S1131B404D41002E06D0AB42EED9013E24196D4121
S1131B50002EF8D15B460098019900196941002BC9
S1131B6022DB2B005A46D3402A004446E2401C00A4
S1131B705B461500002B2CDB26009E40330026001C
S1131B804746BE403200801A994100900191AEE769
S1131B90424620239B1A5246DA40414613004A46E5
S1131BA08A4017001F4382E7424620239B1A2A00DB
S1131BB046469A402300F3401343D5E74246202388
S1131BC000219B1A0022009101920122DA40019225
S1131BD082E74246202326009B1ADE402F00B446AB
S1131BE0974066463B003343C9E7C046F0B55746C5
S1131BF04E46DE464546E0B544024300C60F83B078
S1131C000F1C640A1B0EB24653D0FF2B27D0802230
S1131C10E400D20414437F225242904698440023A5
S1131C2099469B467D027800FB0F6D0A000E0093D7
S1131C3024D0FF2846D080230021ED00DB041D437F
S1131C407F384746381A4F460F43BF00B946330022
S1131C50009A874F53404A46BA5801939746002C3E
S1131C604ED108239946F7339846FD3B9B467D02A7
S1131C707800FB0F6D0A000E0093DAD1002D26D1F7
S1131C80002001213300009A7A4F53404246101A33
S1131C904A460A439200BA581D009746009B2C00FE
S1131CA09A468B465B46022B31D15346FF210024D2
S1131CB038E0002C17D104239946002398460133B9
S1131CC09B46AFE7FF20002D0BD10221DAE7280065
S1131CD001F022FD431F9D4076235B42181A002128
S1131CE0AFE70321ADE7200001F016FD431F9C4040
S1131CF076235B421B1A9846002399469B4691E73C
S1131D000C239946F3339846FC3B9B468AE7032B06
S1131D1000D1A5E05546012B00D081E0012300212C
S1131D2000242B406402C905600ADB0708431843FA
S1131D3003B03CBC90469946A246AB46F0BD802415
S1131D400023E403FF21EDE7FF210024EAE7012358
S1131D50591A1B2966DD019A134000210024E1E78A
S1131D608023DB031C4238D01D4251D01C43640243
S1131D70640A3300FF21D5E763016C01A3423BD21F
S1131D801B260021013801251F0049005B00002F9C
S1131D9001DB9C4201D81B1B2943013E002EF3D1D9
S1131DA01C00631E9C410C4301007F310029CEDDE1
S1131DB0630704D00F232340042B00D004342301F1
S1131DC003D501002C4B80311C40FE290DDD01237D
S1131DD0019AFF2113400024A4E78023DB031C4362
S1131DE06402640A3300FF219CE70123019AA401E1
S1131DF0640AC9B2134095E71B1B1A260121C2E7E6
S1131E00009B8B469A4600244CE76302E5D50025E7
S1131E108024E4032C436402640A009BFF2181E7CD
S1131E200195C1E723002020CB40411A8C40611E5C
S1131E308C411C43630704D00F232340042B00D0A0
S1131E400434630105D50123019A012113400024C0
S1131E5068E70123019AA401640A1340002161E7A1
S1131E608023DB031C436402640A5346FF2159E7C1
S1131E701487000054870000FFFFFFF7F0B54F46BA
S1131E80D64646464400C0B5C20F47024802400A3F
S1131E90844666467B0A4800C90F9A46240E1500FC
S1131EA0DB00000E8946F600FF2800D18FE00121F7
S1131EB04F464F403900914266D0221A002A00DC76
S1131EC09DE000283DD1002E00D18BE0511E002959
S1131ED000D0B5E001249B1B5A0144D59B019F0906
S1131EE0380001F019FC05388740844200DD96E093
S1131EF0041B3A0020200134E240041BA7403B00AD
S1131F005F1EBB41002413435A0704D00F221A401A
S1131F10042A00D004335A0127D50134FF2C00D100
S1131F2079E001229B015B0AE4B22A405B02E405EA
S1131F30580AD207204310431CBC90469946A24637
S1131F40F0BDFF2CE0D08021C9040E431B2A7BDCAA
S1131F5031002020D140821A9640721E96410E43D1
S1131F609B1B5A01BAD45A07D0D10122DF082A4058
S1131F70FF2C33D1002F00D1A8E08023DB033B43A7
S1131F805B025B0AFF24D1E7211A00294CDD0028FB
S1131F902AD0FF2CB8D08020C00406431B2900DDC2
S1131FA0AFE030002027C840791A8E40711E8E4160
S1131FB006439B195901D6D50134FF2C00D185E085
S1131FC001227A491A405B080B4013439CE7002E18
S1131FD000D070E76BE73B1EC5D100227B025B0A91
S1131FE0E4B2A3E714008FE7002E4DD0481E00286A
S1131FF057D19B1901245A01B5D50224E0E7002AE0
S113200025D1621CD2B2012A72DD9F1B7A0135D51B
S1132010F71A0D0064E7012200232A4086E73B00FB
S1132020634A241A13406FE700296CD1611CC8B2BB
S113203001284EDDFF2949D09B195B080C0063E79A
S1132040FF2A41D00A0081E701269B1B89E7002C67
S11320501CD0FF2821D08024E404524223431B2AAD
S113206000DD96E01C002025D440AA1A93405A1E95
S113207093412343F31A04000D002DE7002F00D0F1
S11320802EE700220024A9E70C003DE7002B58D0DE
S1132090D243002AEED0FF28E1D13300FF240D0003
S11320A032E7FF2910D0010078E7002B6ED0FF241F
S11320B0002E00D128E780225146D203114203D0DA
S11320C06146114200D13300FF241DE7FF240023A1
S11320D02CE7002CE9D1002B63D0002E00D113E7AC
S11320E09B195A0100D43EE7314A0C0013400BE718
S11320F0002C1ED1002B2FD1002E4FD033000D0009
S113210002E7012655E7002C1FD1002B43D0C94319
S113211000290BD0FF2839D01B2944DC1C002027C0
S1132120CC40791A8B40591E8B4123439B190400E0
S113213040E7002B1AD1002E24D180270022FF0370
S11321401BE7330004000D00DEE6FF281ED08024C8
S1132150E40449422343DFE7002E00D1D4E69F1B69
S11321607A0100D437E7F31A0D00CDE6FF24002EE0
S113217000D1C9E680225046D2031042A4D0604662
S11321801042A1D133000D00FF24BDE63300FF242B
S1132190BAE601236EE733000400B5E60027002207
S11321A01CE73300B0E60123C0E7C046FFFFFF7D14
S11321B0FFFFFFFB41024300C20F490A1B0E002030
S11321C07E2B0DDD9D2B0CDC802000040143952B20
S11321D00ADC9620C31AD9404842002A00D10800DC
S11321E07047034BD018FBE7963B9940F4E7C04691
S11321F0FFFFFF7F70B5002830D0C317C4185C40C0
S1132200C50F200001F088FA9E231B1A962B0DDCC3
S11322109622D21A94402A006402640ADBB2640251
S1132220DB05600AD2071843104370BD992B19DCF3
S11322309922D21A002A29DD94402200144C144019
S1132240510704D00F210A40042A00D0043462014B
S113225013D4A401640ADBB22A00E0E700220023BD
S11322600024DCE705222100121AD140B922D21A37
S11322709440621E94410C43DAE7054B2A001C404B
S11322809F23A4011B1A640ADBB2C8E72200D5E726
S1132290FFFFFFFBF0B557464546DE464E46E0B528
S11322A04C000E0387B0834692461D008046360BD1
S11322B0640DCF0F002C4FD06F4B9C4235D0802340
S11322C0420F1B04F600134333439946C300984658
S11322D06A4B00269C460023644403932B031B0B88
S11322E09B466B00ED0F50465B0D01955ED0624A34
S11322F0934253D05A46D1008022400F1204024325
S11323000A4393465246D1005C4A944600226344F1
S11323103800684084460290E41A16430F2E00D910
S1132320B4E0574BB6009B599F460300334399468C
S11323306CD100239846023308260393CEE7CB469C
S11323404146039A0197022A65D1019B4A4C9C4657
S11323500023002298466BE00300334399464ED095
S1132360002E00D1BCE1300001F0D6F903000B3B94
S11323701C2B00DDACE11D22D31A5A460100DA40C1
S113238008398E401300334399465B468B40984688
S113239000233C4C0026241A03939FE751465A46D7
S11323A0114329D1002293460232B1E75946014331
S11323B01ED05B46002B00D19EE1584601F0ACF9DB
S11323C003000B3B1C2B00DD8FE102005946083A49
S11323D091408B461D21CB1A5146D9400B005946DA
S11323E00B4351469B469140264B00221B1A8FE714
S11323F0002301229B468BE75146032288E70023F2
S11324009846013304260024039367E70323B14667
S113241003930C2662E7032A00D15CE2019B012AA4
S113242000D0E4E113409C46002300240022984697
S113243000211203130B0A0D12051A432305124C33
S113244040462240134362465B00D2075B081343B5
S1132450190007B03CBC90469946A246AB46F0BD75
S1132460002380229C4612039846034CE0E7002395
S1132470014C00229846DBE7FF07000001FCFFFF48
S1132480948700000DFCFFFFFFFF0F80D94500D9A2
S113249039E100D134E1002346464D469A46013CD9
S11324A05B460A0E1B021A430B02170C0393130418
S11324B01B0C3900280090460193FFF713FA020021
S11324C0019B83465A43280039009146FFF790FA4E
S11324D0350C09040D43A9450DD95B464544013B20
S11324E0A84500D93AE1A94500D837E102235B4267
S11324F09C464544E3444B46EB1A390018000493C8
S1132500FFF7F0F9019B050043433900049899460D
S1132510FFF76EFA330409041B0C0B43994509D9E0
S113252043446A1E984500D91AE1994500D817E139
S1132530023D43444A469B1A5A4612042A430399CD
S11325409346100C0A0C914609045A46090C4E464F
S11325500D001204120C454305915143724370431C
S113256052190E0CB218954203D980256D02AC465F
S11325706044150C09041204090C281852188342EB
S113258000D2CEE000D1C8E01D1A53469E1AB245CF
S113259092415242AB1A9A46984500D117E139004C
S11325A01800FFF79FF9019B05004343390050468B
S11325B00493FFF71DFA04980B04310C1943884265
S11325C009D941446B1E884500D907E1884200D8E7
S11325D004E1023D4144049BCB1A180039000493E2
S11325E0FFF780F9019B8246434339000498019325
S11325F0FFF7FEF901980B043104090C19438842D2
S11326000DD953464144013B884500D9E8E088424E
S113261000D8E5E002235B429C464144E244019B2E
S11326202D04CE1A51462943059D4F462A000B041A
S1132630080C1B0C5A4345437B4378435B19170C26
S1132640FB189D4203D980256D02AC4660441D0CE5
S113265012041B04120C28189B18864200D293E023
S113266000D18EE001231943A04BE318002B00DCBA
S113267099E04A0700D09EE05A46D20106D55A4650
S11326809B4B1A4080239346DB00E318994A9342FC
S113269068DD0123029A984C1A4000239446984618
S11326A00022C5E680224B46120313420AD05B4641
S11326B0134206D11A431203120BAC4688468E4CC1
S11326C0B6E64B461A431203120BBC468A4CAFE6DD
S11326D003005A46283B9A4000239146984657E601
S11326E0584601F019F8203040E603005246283BD2
S11326F09A400021934677E601F00EF820305FE619
S1132700884500D2C7E64B46DE075D0843465B08B2
S11327101E434346DB079A46C2E60025924500D392
S113272033E7039E5946B446E244B245AD416D4297
S11327304544EB180139984507D2984200D97FE007
S113274000D1BCE01D1A8B461FE79845FAD1039DC2
S11327505545F2D943468B461D1A16E79B46CAE6F1
S11327601500E7E65A46C90852070A435B05904636
S11327705C0D5A460123029952021940120B8C46F1
S113278056E6002B00D16FE746444A1EB04529D9CE
S11327901100864200D065E7039A934200D061E7B6
S11327A062E7012149420120C21A382A21DD029B35
S11327B003409C4638E60F220A40042A00D15BE716
S11327C00A00111D914292415242934454E7474BEF
S11327D0E318002BE5DD01225242F2E71D00FAE680
S11327E09A461CE7B04239D86ED011003AE70293FA
S11327F03AE71F2A3CDC20239B1A0C0058469940D8
S113280098404B1E99415B46D440D3402043084333
S11328101A00430709D00F230340042B05D00100FD
S1132820081D88429B415B42D21813023AD501230A
S1132830029A01241A400023944698460022F7E5A0
S1132840022149428C46039DE344AC46E244AA4536
S1132850AD416D424544ED182D1A96E68A1E039942
S11328604D008D42894149424144761803958FE7D2
S11328701F204042C31A5846D8400300202A28D0BB
S113288040205D46821A954029434A1E91411943CE
S1132890072300220B4009D00F2300220B4008001D
S11328A0042BBDD1010053075202120BC90819436E
S11328B0012388460299002419408C46B8E5524504
S11328C0BED88B46002560E6039D9D42C6D3110009
S11328D062E70025D8E780225B4612031A43019B76
S11328E01203120B9C468846034CA1E5FF0300002B
S11328F0FFFFFFFEFE070000FF070000F0B557468C
S11329004546DE464E46E0B50C0398464E00230B82
S113291087B0070092469B46760DCD0F002E6BD0F4
S11329206D4B9E4235D080245B46420F2404DB006D
S113293014431C43C3009946684BA3469C4600239A
S113294000276644029343461C035A00DB0F50469B
S1132950240B520D984600D176E05F4B9A426DD01D
S11329608023410F1B040B435C49E4008C461C4349
S1132970C300002062444146B6186940721C0191AC
S1132980944607430F2F00D9B0E0554ABF00D259EF
S113299097465B460343994600D087E000239B4655
S11329A0023308270293CEE742460192022867D0F9
S11329B0032800D10EE2012800D062E100230024A4
S11329C00022994601990140CDB2002112030B0D5A
S11329D0120B1B051343434A240513401C43640094
S11329E0ED0764082C434846210007B03CBC9046E0
S11329F09946A246AB46F0BD034399464FD05B4689
S1132A00002B00D189E1584600F086FE03000B3B01
S1132A101C2B00DD7AE11D22D31A3A0001005C462A
S1132A20DA4008398C4013008F4023439B46B94653
S1132A3000232D4E0027361A029384E7534623437E
S1132A402AD10024022096E75346234320D0002CA9
S1132A5000D157E1200000F05FFE03000B3B1C2B6C
S1132A6000DD49E11D21CB1A51460200D9405346ED
S1132A70083A944093400C431B4A121A00207AE708
S1132A800125019B144C1D400023002299469CE71C
S1132A900024002201206EE7534603206BE7002345
S1132AA09B4601330427002602934CE70323814607
S1132AB00C27029347E7802200230025120399463E
S1132AC0054C82E75C464B4602986FE75C464B46F2
S1132AD0019502986AE7C046FF07000001FCFFFF6A
S1132AE0D4870000FFFF0F800DFCFFFF4A464946D4
S1132AF0170C1A0C1B041B0C08041900000C41438E
S1132B001500884619007D437943039589462900B9
S1132B10150045434D44029545462D0CAA46029D99
S1132B205544A94506D98A46802149028946CA44A2
S1132B3051460391290C0491414609042D04090CC2
S1132B4088462900250C24044144240C05912100C5
S1132B5041438846210079438A46684341465044AC
S1132B608146080C48446F43824503D980214902B9
S1132B7089464F44010C8946390049440291414633
S1132B800F0404993F0C88460004C0198044414650
S1132B90049159460F0C0904090C884659438A4686
S1132BA039005143894641464A435146090C8B46F4
S1132BB07B43D2185A44934203D980235B029B4639
S1132BC0D94451460904090C8A46414661437C4371
S1132BD0130C12044B445244A1468A463C0041461D
S1132BE06C434D4351464D440F0C7D19A94503D9FF
S1132BF08021490288464444049F0399B8464144CD
S1132C008B468345804141428846514608042F043F
S1132C10000C3F1858460299101889469042924178
S1132C204F44BA46524299469346C244D144CB4497
S1132C308F42BF41C245894199459B419345924189
S1132C407F4249422D0C52420F435B4213437F198A
S1132C50FF185B463C19DB0D059A64021C434302D2
S1132C6013435D1EAB415A46C00D03435202134346
S1132C70E20156D501205A0803401343E2071343E7
S1132C8064085A48604400284DDD5A0709D00F22D1
S1132C901A40042A05D01A1D9A429B415B42E4184B
S1132CA01300E20104D58020514AC000144060445E
S1132CB0504A904200DDE3E60125DB0862071A432F
S1132CC06402019B9146220B4405640D1D407CE681
S1132CD0802259461203114208D0144206D12243DD
S1132CE01203120B45469946434C6EE65B461A4363
S1132CF01203120B404C68E603005446283B9C40E8
S1132D000023B9E600F008FD2030A6E60300283BC6
S1132D109F400023BB4699468AE600F0FDFC203024
S1132D2074E6B446ADE701252A1A382A06DD019B6C
S1132D3000241D4000230022994646E61F2A21DC78
S1132D4020252000AD1A1E00AB40A840D6405D1ED1
S1132D50AB4130431843D440430709D00F23034009
S1132D60042B05D00300181D98429B415B42E418D4
S1132D70230221D50125019B01241D4000230022AB
S1132D80994622E61F2521006D42281AC1400800F9
S1132D90202A1DD05F35AA1A944023435C1EA34108
S1132DA0072503431D400022002D09D00F220024D3
S1132DB01A401800042AD6D1030065076402220BC6
S1132DC0DB082B4301259946019B00241D40FCE5AB
S1132DD00024E2E780220125120322430199120311
S1132DE0120B0D409946044CEFE5C046FF0300006A
S1132DF0FFFFFFFEFE070000FF070000F0B5464698
S1132E00D6464F460C03C0B5CD0F4E00610A440FA1
S1132E100C43C1005800400D84468A460F00190334
S1132E20500F490A0143C648760DA846DB0FD2006D
S1132E30844500D1D8E001204340AB4200D1A6E054
S1132E406046351A002D00DC05E1002810D10B0086
S1132E50134300D1D7E06B1E002B00D04BE1534647
S1132E609F1ABA458041641A4042241A01261EE082
S1132E70B34B9E4248D080231B041943382D00DDF8
S1132E8019E11F2D00DD4CE120230F005B1B100016
S1132E909A409F40E840531E9A41E9400743174334
S1132EA05346DF1B611ABA45A44164420C1B23023A
S1132EB000D4C5E06402650A002D00D1F6E02800C4
S1132EC000F02AFC0300083B1F2B00DDE9E0202270
S1132ED03C00D21A9D40D4409F4025439E4200DDD1
S1132EE0DBE09E1B731C1F2B00DD0AE1202238004F
S1132EF0D21A290097402C009140D8407A1E97415D
S1132F00DC40002601430F437B0709D00F233B40DD
S1132F10042B05D03B1DBB42BF417F42E4191F0077
S1132F20230225D5864B01369E4200D1AFE0854B66
S1132F3001251C4043466207FF08640276051743D7
S1132F40240B760D1D4000212403230B0C0D7E4A17
S1132F5024051C431440330523435B00ED075B0841
S1132F602B43380019001CBC90469946A246F0BD7C
S1132F70012543466207FF081743E4081D40704BD0
S1132F809E4236D024037605240B760DDBE7634698
S1132F90F31A002B00DC94E06046002835D0684822
S1132FA08642B1D080273F043943382B00DCFDE052
S1132FB00A43170000217A1E974157445745804120
S1132FC0091944420C1923023AD55D4B01369E423D
S1132FD000D14BE101225B4B1C407B0817401F438F
S1132FE0E207174364088FE70800104300D024E782
S1132FF021E723003B4300D1B9E1802212031443AB
S11330002403240B9FE72E007EE70800104300D121
S1133010CAE0581E8446002800D0E7E052445245D6
S1133020804164184042241817000126230207D562
S11330300226CFE764462C4300D1B3E12C00674657
S11330407B0700D062E76307FF081F43012543465F
S1133050E4081D4093E7002D78D1751C6D056D0DB6
S1133060012D00DCF2E05046801A8245BF41651A0A
S11330707F42ED1B8446280200D48CE05046171A88
S1133080BA4292410C1B5542651B984614E7012530
S1133090434600241D40002755E72A4CF61A2C40CD
S11330A032E73D0028388540002717E7380000F054
S11330B033FB203006E70A43170000217A1E9741AC
S11330C0EEE6002B00D0E5E0731C9C465B055B0D2F
S11330D0012B00DC9FE01A4B9C4500D1C5E0524413
S11330E052458041641840422418E70752081743A8
S11330F06408664608E71248854200D185E01D0051
S1133100BCE629001F3EF140202B00D17FE0402285
S1133110D31A9D402F437D1EAF4100240F43002648
S11331208EE72B000F00203BDF40202D71D0402381
S11331305D1BA9400A43511E8A4100211743AFE693
S1133140FF070000FFFF7FFFFFFF0F80002E3ED030
S1133150B34EB44545D0802636046D423443382DF1
S113316000DDA8E01F2D00DD1FE1202627005046CA
S1133170761BB740E84007435046B040461EB04176
S1133180EC403843171ABA4292410C1B5242A41A1B
S1133190664698468BE6644667462C4300D08BE629
S11331A0002500260027EAE61E00ADE61F2B60DCA2
S11331B02027F81A0F00844687401000D8400743A0
S11331C060468240501E8241D9401743F5E62600EE
S11331D05046064305D0ED43002DD3D0904EB44560
S11331E0BDD10C001700664698468DE68C48834294
S11331F00BD06346D9E6002D00D096E008001043BA
S113320000D1E2E00C0017009846854E7CE60025CC
S113321080E700218EE7230050460343002E00D0B0
S1133220A8E0002B00D1DEE00B00134300D16BE6D5
S11332305244524580416418404224181700230226
S113324000D4FDE6774B66461C405DE625005046FB
S11332500543002ECFD1002D4FD10C00144300D1D3
S1133260A0E00C00170098464EE6664600240027AE
S113327085E61F000800203FF8400700202B00D1FE
S11332808EE04020C31A99400A43511E8A4100210E
S1133290174392E6002E14D126005046064362D00E
S11332A0DB43002B5CD18718974292416418524249
S11332B0A418664687E650462043441EA0410024D5
S11332C060E7574EB4454ED0802636045B42344303
S11332D0382B00DD7FE01F2B00DD8BE0202627004C
S11332E05046F61AB740D84007435046B040461EF1
S11332F0B0410743DC40BF18D6E70D00154300D1A9
S113330002E65046801A8245BF41651A7F42ED1B92
S11333108446280200D48DE65046171ABA429241D8
S11333200C1B5242A41A9846EEE50D00154300D139
S11333306BE750466707C00807438020E408000392
S1133340044207D0CD08054204D12C009846D70882
S113335049070F437B0FE4001C43FF00304ED3E5C5
S11333602F4EB445B4D10C0017006646CCE50027B7
S11333700024E8E5002B39D00B00134300D144E7C7
S1133380C008670707438020E40800030442E1D033
S1133390CB080342DED1D70849070F431C00D9E705
S11333A0002171E700250027E9E52E002700203ED3
S11333B0F740202D2FD04026751BAC4050462043AB
S11333C0441EA04100243843DCE680240025240365
S11333D0134E0027D3E5504620430700781E87414B
S11333E00024BF1860E70C0017008DE50C001700DF
S11333F00B4E89E51E002700203EF740202B0CD001
S11334004026F31A9C4050462043441EA0410743E3
S11334100024BF1848E70024D0E70024F3E7C0469F
S1133420FF070000FFFF7FFF30B5134D0A034B0079
S1133430120B5B0DC90F0024AB4210DD0F4CA342ED
S11334400FDC80240E4D64032243ED1A1F2D0BDD87
S11334500C48C31ADA405442002900D11400200059
S113346030BD094BCC18FAE7084CE840A446634445
S11334709A400243EFE7C046FE0300001D0400002B
S11334803304000013040000FFFFFF7FEDFBFFFF88
S113349070B5002830D0C317C4185C40C50F200095
S11334A000F03AF9174B184A1B1AD21A1F2A18DDD2
S11334B0164AD21A9440002224035B05240B5B0DA8
S11334C00021100024030A0D240B12052243104C82
S11334D01B05224013435B00ED075B082B431900D7
S11334E070BD210091400A000B21081AC4405B05FD
S11334F02403240B5B0DE3E70025002300240022B2
S1133500DEE7C0461E04000033040000130400007C
S1133510FFFF0F8010B5041E28D000F0FDF8154BF6
S1133520154A1B1AD21A1F2A15DD144AD21A9440BE
S1133530002224035B05240B5B0D002110002403EF
S11335400A0D240B120522430D4C1B052240134384
S11335505B00590810BD210091400A000B21081A94
S1133560C4405B052403240B5B0DE6E70023002421
S11335700022E2E71E0400003304000013040000EC
S1133580FFFF0F804100090E4B1C70B5DBB24602F1
S1133590750AC40F012B14DDE0239B006D07360B65
S11335A0CB1800210A0D280012051C4D32435B057F
S11335B02A405B0813435B00E4075B0823431900BC
S11335C070BD002914D1002D1ED0280000F0A4F8ED
S11335D00A281CDC0B232A001B1ADA4003001533CB
S11335E09D400F4B12031B1A5B05160B5B0DD8E7AE
S11335F0002D06D0320B802636036D071643094B87
S1133600CFE7084B0026CCE700230026C9E70300D8
S11336102A000B3B9A400025E3E7C046FFFF0F80DA
S113362089030000FF0700008446101C62468C4694
S1133630191C634600E0C0461FB500F0DDF9002800
S113364001D40021C8421FBD10B500F037F9404233
S1133650013010BD10B500F0CFF9002801DB0020C7
S113366010BD012010BDC04610B500F0C5F90028FA
S113367001DD002010BD012010BDC04610B500F0D2
S113368057F9002801DC002010BD012010BDC04600
S113369010B500F04DF9002801DA002010BD01201A
S11336A010BDC0468446081C6146FFE71FB500F004
S11336B0C3F8002801D40021C8421FBD10B500F092
S11336C055F84042013010BD10B500F0B5F800289F
S11336D001DB002010BD012010BDC04610B500F074
S11336E0ABF8002801DD002010BD012010BDC0464C
S11336F010B500F061F8002801DC002010BD0120A5
S113370010BDC04610B500F057F8002801DA0020BB
S113371010BD012010BDC0461C2101231B0498428A
S113372001D3000C10391B0A984201D3000A08394E
S11337301B09984201D30009043902A2105C401805
S11337407047C046040302020101010100000000A9
S11337500000000010B5002903D1FFF7DDFF203081
S113376002E0081CFFF7D8FF10BDC04670B5420048
S113377045024E024C00C30F6D0A120E760A240E47
S1133780C90F0120FF2A06D0FF2C03D0A24201D189
S1133790B54206D070BD002DFCD1FF2CFAD1002E0D
S11337A0F8D18B4206D00120002AF3D12800451E0F
S11337B0A841EFE70020EDE7F0B5420045024C02D6
S11337C0C30F48006D0A120E640A000EC90FFF2AC7
S11337D01ED0FF2821D0002A0AD16E426E41F6B2D3
S11337E000280FD1002C0DD10020002D09D005E0B8
S11337F0002801D1002C01D08B4211D00121584264
S11338000843F0BD002EF7D0012001390843F8E742
S1133810002DDED002204042F3E7002CDBD0F9E794
S11338208242EBDC04DBA542E8D80020A542E8D2C2
S11338300121581E0843E4E7F0B542004D024C0054
S11338404602760A120EC30F6D0A240EC90FFF2A10
S113385016D0FF2C18D0002A0AD170427041C0B291
S1133860002C15D0002805D0012001390843F0BDF3
S1133870002C13D0994214D001205B421843F6E780
S11338800220002EF3D1E4E70220002DEFD1E2E77D
S1133890002DE7D10020002EE9D0EDE7002DE9D17D
S11338A0EAE7A24206DCDFDBAE4203D80020AE42E8
S11338B0DAD3DCE7012049420843D8E7F0B54F46A4
S11338C04646D6465C00C0B51F03DB0F9A46174B2D
S11338D00E034D0084468046360B6D0DC90F91468C
S11338E03F0B640D01209D4208D09C4201D0A542AB
S11338F00BD01CBC90469946A246F0BD63463343A8
S1133900F7D1AC42F5D13A43F3D10120BE42F0D114
S1133910C845EED1514507D0002DEAD163461E4378
S11339203000461EB041E4E70020E2E7FF07000054
S1133930F0B54546DE4657464E46E0B51F033D0BFF
S11339402C4F0E034C00AB465D008446360B640DD1
S1133950C90F90466D0DDB0FBC422AD0254FBD42E6
S11339602DD0002C0FD13043070081467842784196
S1133970C0B2002D17D15F463A4314D14B46002004
S1133980002B0AD006E0002D02D15846024301D094
S1133990994218D04842012108433CBC90469946BC
S11339A0A246AB46F0BD0028F2D00120013B1843EB
S11339B0F3E737000743D1D002204042EDE75F46EA
S11339C01743CED0F8E7AC42E4DC03DA481E012109
S11339D00843E2E75E45DDD806D000205E45DCD230
S11339E00123481E1843D8E7C445D3D80020C44552
S11339F0F6D3D2E7FF070000F0B54E464546DE4653
S1133A0057465C00E0B51F03DB0F99462A4B0E03B3
S1133A104D00C90F8446360B6D0D8B4690463F0B07
S1133A20640D9D4220D0244B9C4222D0002D12D103
S1133A30304343424341DBB2002C1FD0002B0CD057
S1133A404B460120013B034318003CBC9046994679
S1133A50A246AB46F0BD002C16D0CB4517D05B4632
S1133A60594201230B43EFE7310002230143EBD119
S1133A70D9E7390002231143E6D1D7E73A43DDD130
S1133A8000230028E0D0EAE73A43E6D1E7E7A5427D
S1133A90E5DC05DBBE42E2D807D00023BE42D3D228
S1133AA05946012301390B43CEE7C445D7D8002337
S1133AB0C445F5D3C8E7C046FF07000070B50D4EF6
S1133AC00D4D0024AD1BAD1005D0A300F3580134F7
S1133AD09847A542F9D105F095F8084E084D002401
S1133AE0AD1BAD1005D0A300F35801349847A5428F
S1133AF0F9D170BD108C0000108C0000108C0000F7
S1133B00188C0000F0B5830743D0541E002A3FD020
S1133B10CEB20200032502E01A00013C38D3531C44
S1133B2016702B42F8D1032C2AD9FF220A40150221
S1133B3015432A0415430F2C14D927001A00103FEB
S1133B403E09013636019E19156055609560D560B1
S1133B5010329642F8D10F2297431037DB191440E4
S1133B60032C0DD91A00271FBE080136B6009E1972
S1133B7020C2B242FCD1032297430437DB1914401C
S1133B80002C05D0C9B21C19197001339C42FBD119
S1133B90F0BD14000300C6E710B5830725D00378F1
S1133BA0002B24D00300032102E01A78002A1AD043
S1133BB001330B42F9D119680E4A0F4C8A188A4313
S1133BC0224206D1043319680A4A8A188A432242D7
S1133BD0F8D01A001B78002B03D001321178002989
S1133BE0FBD1101A10BD181AFCE70300E3E700200C
S1133BF0F8E7C046FFFEFEFE808080800B00034392
S1133C00F0B59B0701D1032A14D80600002A10D06E
S1133C100C78013A731C3470002C1DD0012406E08A
S1133C200D5D013A355501330134002D14D0002ABD
S1133C30F6D1F0BD05000D4F06E0043A2E1D043107
S1133C402C60032AE2D935000C68094BE318A3431E
S1133C503B42F2D02E00DBE79C180021002AE8D07A
S1133C6019700133A342FBD1E3E7C0468080808012
S1133C70FFFEFEFE30B504009BB01800002A2EDBC8
S1133C8082236D469B00AB8100910491002A11D0E0
S1133C900123013A5B4202920592EB8102001E9BD2
S1133CA06946200002F0ACF8431C12DB0023009AA2
S1133CB013700CE001235B4202920592EB81020037
S1133CC01E9B6946200002F09BF8431C04DB1BB0DA
S1133CD030BD8B232360E9E78B232360F7E78B2335
S1133CE0012023604042F2E710B50400054882B089
S1133CF00068009313000A002100FFF7BBFF02B025
S1133D0010BDC04600000020034B10B5002B02D0AC
S1133D10024800F005F810BD000000000D4E000040
S1133D2010B5010000230022002003F06DFB10BD3C
S1133D30F0B545468046DE4657464E464246E0B517
S1133D400C69126985B00B0002910020944200DDD9
S1133D5090E014229446634499464A46013CA300E9
S1133D60D6181422424493469B4433681500591CC8
S1133D705B4618680192FDF7B5FD031E009042D022
S1133D80290000274D460020B146A2463E0004000B
S1133D909C462F0008000395634604CF15042D0CA0
S1133DA05D43120C5A43AD192B0CD21803682D0431
S1133DB01904090C0919160C2D0C1204491B120CB8
S1133DC01B0C9B1A0A149B1809041C14090C1B04D1
S1133DD0194302C0B945DFD2039B4E4699465B4660
S1133DE01B685446002B0ED15B46019A043B9A4251
S1133DF004D306E0043B013C9A4202D2196800292C
S1133E00F8D043461C610299404601F0D3FE0028D5
S1133E102FDB4F460020009B019D013300932B684C
S1133E2002CF1A04120C10180A04120C821A090C7C
S1133E301B0C5B1A11145B1812041814120C1B04CB
S1133E40134308C5BE42EAD20199A3008C466344D9
S1133E501A68002A0DD1043B0A00994204D306E0F3
S1133E60043B013C9A4202D219680029F8D0434627
S1133E701C61009805B03CBC90469946A246AB46EE
S1133E80F0BDC046F0B557464E464546DE46E0B561
S1133E90016C99B082461D0016001F00002909D04C
S1133EA00123426C93404A608B6001F077FC00234D
S1133EB052461364B846002F37DB0023259A13605B
S1133EC04246D64B1A409A4218D0002200233000B2
S1133ED03900FFF7B9FB00282FD00123249A13607F
S1133EE0269B002B00D12AE2CD481860013819B076
S1133EF03CBC90469946A246AB46F0BDC94B249AB9
S1133F001360002E0BD14346180308D1269BC648E4
S1133F10002BECD003000833269A1360E7E7269BB6
S1133F20C248002BE3D0C31CF6E70123259A68009E
S1133F301360430898461F00C2E716AB019317AB02
S1133F40009332003B00504601F0EAFE43468346AC
S1133F501A0D00D1D6E13B03B54C1B0B1C43B54BEA
S1133F6030009846169B21009946002390440F93F5
S1133F700022B14BFEF742FFB04AB14BFEF7BEFC44
S1133F80B04AB14B03F092FE040040460D00FFF727
S1133F907FFAAE4AAE4BFEF7B1FC02000B002000E4
S1133FA0290003F083FE04000D00FFF73DFA002210
S1133FB00390002320002900FFF74CFB002800D0C9
S1133FC0B1E20123039C0C93162C10D8A149E30001
S1133FD0C9183200086849683B00FFF74FFB002806
S1133FE000D11DE32300013B039300230C934B46B4
S1133FF042469A1A002306931300013B049300D50A
S1134000A1E2039B002B00DA84E29C460D9300237B
S1134010049A9946110061440491229B092B00D90A
S11340208FE10124052B02DD0024043B2293229B13
S1134030032B01D100F0CEFC01DC00F092FC229BAA
S1134040042B01D100F040FC01230B93229B052B90
S113405001D000F08BFC239A039B944663440E9397
S1134060013307931D1E01DC00F049FD079B9846B0
S11340700023524600215364172D0AD90122043328
S11340805B0018001430110001328542F8D2534607
S11340905964504601F05AFB5346186443460A904B
S11340A00E2B00D961E1002C00D15EE1109611972E
S11340B0039E002E01DC00F025FD32000F21654B2C
S11340C00A40D2009B1836111C685D68F30601D4BF
S11340D000F0CAFC604B0E401A6A5B6A1098119992
S11340E0FEF7D8F80323984608900991002E11D0C2
S11340F0594F0123334209D09C463A687B6820001B
S11341002900E044FEF7FAFB04000D00761008379E
S1134110002EEED12200089809992B00FEF7BAF878
S113412006000F000C9B002B09D00022404B3000EE
S11341303900FFF78FFA002801D000F0C2FD404695
S1134140FFF7A6F932003B00FEF7D8FB0022434BF1
S113415003F0ACFD424A0B00944663440890099175
S11341600993079B002B01D100F050FC039B139390
S1134170079B12930B9B002B01D100F01DFD129B9A
S113418000205A1E334BD2009B181A685B683549CD
S1134190FEF780F8089A099BFEF730FE0890099113
S11341A039003000FFF740F90400FFF771F902000D
S11341B00B0030003900FEF721FE05000E000A9ABC
S11341C03034511CE7B214911770330008980999E0
S11341D02A00FFF753FA002801D000F0FEFD2A0060
S11341E0330000201249FEF709FE02000B00089874
S11341F00999FFF743FA002801D000F0E7FD129B6C
S1134200012B01D100F078FC0A9A129B9446634476
S113421098464B461293149B994638E00000F07F71
S1134220298800000F270000188800002488000057
S11342300000F03F01FCFFFF0000F83F61436F63A3
S1134240A787D23FB3C8608B288AC63FFB799F50AB
S11342501344D33F588800003088000000001C40FD
S11342600000C0FC0000E03F2A0033000020B949F0
S1134270FEF7C4FD089A099BFFF7ECF9002801D06A
S113428000F074FDA146444501D100F033FC0898C8
S113429009990022B04BFEF731FB0022AE4B089087
S11342A0099128003100FEF729FB0D000400FFF7F7
S11342B0BBF80700FFF7ECF802000B002000290010
S11342C0FEF79CFD4B463037FFB25C1C1F70089A0A
S11342D0099B05000E00FFF7BDF90028C4D0139B0D
S11342E003935946504601F059FA00232370039B67
S11342F0249A01331360269B002B00D1A8E31C6091
S11343000A98F4E5169B9946179B4B441C00934B63
S1134310E318202B00DC7EE13100914A4046A218CC
S1134320D1400A004021CB1A98401043FFF7F2F81D
S1134330631E984601238B4D0F93491918E68A484A
S1134340D5E50023524600215364504601F0FEF99E
S11343505346186401235B4207930E9302330022F1
S11343600B9300230A9023922293179B002B00DACD
S1134370ABE0039A0E2A00DDA7E07C4BD2009B1829
S11343805C681B6804930594239B002B00DAA7E266
S1134390049C059D300022002B003900FDF77AFFB4
S11343A0FFF742F88046FFF773F822002B00FEF770
S11343B0A5FA02000B0030003900FEF71FFD43464A
S11343C00A9A30331370079B06000F00541C012B0C
S11343D04ED00022604BFEF791FA00220023060023
S11343E00F00FFF731F9002800D07AE70A9B079AFB
S11343F09D1C9C465B46069353466244AA46049C15
S1134400059D914607930FE00022534BFEF776FA81
S113441001239C460022002306000F00E244FFF71C
S113442013F9002800D0D9E222002B003000390013
S1134430FDF730FFFEF7F8FF8046FFF729F822006A
S11344402B00FEF75BFA02000B0030003900FEF788
S1134450D5FC53464246013B303206000F00D3469A
S11344601A70D145D0D1069B54469B46079B9A4669
S113447032003B003000390003F018FC06000F0046
S113448002000B0004980599FFF7E4F800280CD10A
S11344900498059932003B00FFF7D6F8002800D1B4
S11344A01FE74346DB0700D41BE7651E2F780A9BF2
S11344B006E09D4200D151E3023C27782C00013DE7
S11344C0392FF6D001372F700BE70B9A002A4FD003
S11344D0229A012A00DC2CE2079B5C1E4B46A14574
S11344E000DAB8E21C1B079B002B00DAD4E3069B1E
S11344F00893079B069A012194469C4462460692BF
S1134500049A504694469C446346049301F0DEF9B1
S1134510804632E0069A039BD21A5B4299460023F6
S113452006920D9379E50398FEF7B2FF0B000200A3
S113453029002000FFF788F8020050425041039BF5
S11345401B1A03933DE501239B1A0693002304934E
S113455057E5C0460000F03F00002440320400004C
S113456012040000000010FE288800005888000093
S1134570069B4C4608930023984608990B1E0EDDB3
S1134580049A002A0BDD934200DD87E1069AD21AD1
S11345900692089AD21A0892049AD31A04934B46A4
S11345A0002B1AD00B9B002B00D1BBE1002C10DD9B
S11345B041462200504601F03DFA5A460100804629
S11345C0504601F08DF905005946504601F0E6F8D1
S11345D0AB464B461A1B00D0A5E10121504601F021
S11345E075F90D9B8146002B1DDD1A000100504614
S11345F001F020FA229B8146012B00DC50E10024CB
S11346004B461B6903339B004B44586801F016F971
S113461020231B1A10E020223000D31A984085E68C
S113462000230C93E3E4229B0024012B00DC8BE1A8
S11346300D9A0123002AE3D104991F208C46634478
S1134640184000D1AEE020231B1A042B00DCCCE37D
S11346501C23181A069B9C46844463460693089BB5
S11346609C46844463468C4684440893634604937E
S1134670069B002B05DD59461A00504601F03AFA14
S11346808346049B002B05DD49461A00504601F081
S113469031FA81460C9B002B00D094E0079B002B41
S11346A000DC75E10B9B002B00D1A6E0089B002BDE
S11346B005DD41461A00504601F01CFA8046434687
S11346C00C93002C00D050E2079C0A9A013C230072
S11346D09446634408930123334007934B4606935F
S11346E00C9B574645465E4692469846069B3000CC
S11346F019009946FFF71CFB03000B903033290087
S11347003000049301F056FA49460400424638004A
S113471001F06AFAC3688146002B00D01EE1010053
S1134720300001F047FA83464946380001F036F874
S11347305B46229A134303D1079B002B00D106E367
S1134740002C00DAA8E1229B1C4303D1079B002B19
S113475000D1A1E15B46002B00DD82E269465246AE
S11347605346097C5C1C1170089A524500D18AE2B8
S1134770310000230A22380001F01AF80023060051
S11347800A2229003800454500D1E1E001F010F883
S11347904146050000230A22380001F009F8A24628
S11347A08046A3E71C20069B9C46844463460693EC
S11347B0089B9C46844463460893049B9C4684441B
S11347C06346049354E74946584601F0F3F9002838
S11347D000DB63E7039B5946013B03930A22002352
S11347E0504600F0E5FF0B9B8346002B00D0CAE245
S11347F00E9B002B00DCD8E207930A9B5D46002445
S1134800079F9B4606E0290000230A22504600F039
S1134810CFFF050049462800FFF78AFA5B4630308F
S113482018550134BC42EEDBAB460600079C002C55
S113483000DC37E20A9B00279C4664445946012267
S1134840504601F057F94946834601F0B3F9002870
S113485000DC44E1651E2B780A9A06E0954200D1FB
S1134860B1E0023C23782C00013D392BF6D0013312
S11348702B704946504600F091FF4346002B00D16F
S11348802FE5002F05D0474503D03900504600F0EE
S113489085FF4146504600F081FF22E5130075E68E
S11348A0002E00D0ABE63B030024002B00D0BFE673
S11348B0BA4B3B4200D1BBE6069B0134013306935D
S11348C0049B01330493B3E601230B93239B002B36
S11348D000DCD1E01D0098460E930793FFF7C8FB58
S11348E0079B002B00DD53E500D0ADE0049805994B
S11348F00022AB4BFEF702F83B003200FEF7C8FE85
S1134900002399469846002855D0239B0A9CDB43F4
S113491003934946504600F041FF4346002B00D123
S1134920DFE4B6E74A465946504601F083F8834629
S113493053E60F9A002A00D1B6E19A4A4C469446AF
S1134940069A63440892D5E5002E00D070E6AAE7E3
S113495000F02EFFA24605008046C7E601239B46D1
S1134960E2E600230B93229B022BAFD00024534694
S113497021005C64504600F0E9FE534618640123AC
S11349805B4207930E9302330A9023940B93ECE457
S1134990229B022B00DC85E6079B002BB5D1494600
S11349A00522504600F004FF81460100584601F0FC
S11349B001F90028A9DD31230A9A1370039B541CC2
S11349C001330393A5E7039B0A9A0133039331232D
S11349D013704EE700230B93FFF73DFB069B5C46E9
S11349E09B46079B9A467CE44046FEF751FD320005
S11349F03B00FDF783FF00226B4B03F057F96B4A32
S1134A000B00944663440890099109930022644B77
S1134A1030003900FEF7F2F9089E099F32003B008E
S1134A2004000D00FEF72AFE002800D0B2E080202A
S1134A3000068446390061440B003200200029003E
S1134A40FEF708FE002857D00023994698465CE7F5
S1134A500A98FFF74CFAE21A0D9BA1469C4694442F
S1134A60634600240D933EE5109A119B0892099326
S1134A7002239846FFF73AFB002352460021536471
S1134A80504600F063FE5346186401230A900793CE
S1134A9023930E93FFF707FB43460C935B46069A5A
S1134AA0A846B3465546049E9146BA46002B10DDEF
S1134AB059460122380001F01DF84946834601F0A9
S1134AC079F8002800DC57E1392E00D122E10B9E51
S1134AD031360C9B47466C1C2E709846C9E600285C
S1134AE003D1F30701D5B5E61C00631E1A78302AFA
S1134AF0FAD0BEE6129B9946109E119F35E401251B
S1134B00FFF7B4FA039B002B00D1D4E0109811995D
S1134B105C420F23264A2340DB00D3181A685B68E3
S1134B20FDF7ECFE241106000F00002C00D149E132
S1134B30022398461F4D0123234209D09C462A682C
S1134B406B6830003900E044FDF7D8FE06000F0022
S1134B5064100835002CEED1FFF7E4FA039B3027EC
S1134B600133039330232B70ACE45968504600F0B2
S1134B70EDFD4346414604001B690C319A1C92002A
S1134B800C3000F091FD01222100504600F0B2FFEC
S1134B900C9099E50023994698460CE70000F07FB5
S1134BA0000014403304000000001C400000C0FC5E
S1134BB05888000030880000129B8F49013BDB00BD
S1134BC0C91808684968089A099BFDF797FE14906C
S1134BD0159139003000FEF727FC0500FEF758FC5C
S1134BE002000B0030003900FEF708F9129B089010
S1134BF009910A991A008C46303562444C1C0D7098
S1134C009046012B1BD008980999250000227B4B64
S1134C10FDF774FE0F000600FEF706FC0400FEF725
S1134C2037FC303402000B0030003900FEF7E6F8A0
S1134C302C700135A845E9D144460890099114988F
S1134C40159900226E4B03F031F8089A099BFEF780
S1134C5001FD002867D0139B651E03932F780A9BE0
S1134C602EE44346B3460C93049E069BA8469946FD
S1134C705546BA46392E4DD00C9B013647466C1C1E
S1134C802E709846F5E54246069BB346BA46049E06
S1134C9099462F009046D1E5069B079A9B1A0893E4
S1134CA0002327E40124C5E53623169A4C469B1AB3
S1134CB0069A08921EE40223109E119F9846FFF75D
S1134CC031FA079B002B00D18EE60E9C002C00DCF1
S1134CD012E7039B0022013B13933000474B39003A
S1134CE0FDF70CFE060040460F000130FEF7D0FB36
S1134CF032003B00FDF702FE0022424B02F0D6FFD9
S1134D00414A0B0094466344089009911294099314
S1134D10FFF730FA39232B700C9B47466C1C9846DE
S1134D200A9A3923A1E5149A159B00203449FEF709
S1134D3065F8089A099BFEF7A1FC002801D1DBE67F
S1134D401C00631E1A78302AFAD0FFF7C8FA4346CB
S1134D50B3460C93049E069BA84699465546BA460C
S1134D60392ED7D0002C00DDB1E6B2E6139A4D46B9
S1134D7003920A9BFFF7A4FB002800D0A9E6F307DF
S1134D8000D4A6E6A0E6002341460A22504600F0DD
S1134D900FFD0E9B8046002B01DD079386E4229BCA
S1134DA0022B1FDC0E9B079380E4229B022B19DC51
S1134DB04946FEF7BDFF0A9B303018700E9B060073
S1134DC0079333E502239846FFF7ACF9139B149C31
S1134DD003930A9B1D00FFF773FB139B149C03931F
S1134DE0FFF77FFA0E9B0793D6E5042B00D13FE42F
S1134DF03C23181AD7E4C046588800000000244019
S1134E000000E03F00001C400000C0FC70B5094BEE
S1134E10094CE41AA41009D0084AA518AD00ED18ED
S1134E202B68013C9847043D002CF9D103F0F4FEB3
S1134E3070BDC046248C0000288C0000FFFFFF3F9B
S1134E40F8B50C00060000F071FC204FBB685D68EB
S1134E5003239D431E4B2C1B9C466444240B1D4B77
S1134E60013C24039C4207DD0021300000F0B6FF22
S1134E70BB685B19984204D0300000F05FFC00204E
S1134E80F8BD6142300000F0A9FF431C0DD001229F
S1134E90BB682D1B15435D600F4B30001A68141B53
S1134EA01C6000F04BFC0120EAE70021300000F018
S1134EB095FFBA68831A0F2BDEDD08490968401A8A
S1134EC00549086001210B435360D5E734040020F1
S1134ED0EF0F0000FF0F0000C00A00203C08002074
S1134EE0F8B504000D1E3CD000F020FC2900083960
S1134EF048680123050003269D434A199C46614FD7
S1134F005368B343BE68B24256D066465360064205
S1134F100AD13E0008680836091A2D188868B0427C
S1134F2065D0CE68C660B0600120D61876680642A7
S1134F3033D0554B284348604D519D4212D8ED085B
S1134F40FF3BAA10FF3B93407A68ED0013437B605C
S1134F50EF19BB68CF608B60B960D960200000F0A6
S1134F60EDFBF8BD680A042850D8A80902003930BE
S1134F703832C000381808388368032698424CD069
S1134F805A68B243954230D29B689842F8D1C368BC
S1134F90CB6088609960C160E0E7ED183B4E936890
S1134FA0B34242D0D2682843DA609360364B4860FB
S1134FB04D519D42D6D8C2E76246EB18024206D153
S1134FC00A68891A88689B18CA68C26090600122BE
S1134FD01A434A602E4AB96012689342BED32D4BDD
S1134FE020001968FFF72CFFB8E71800CFE76646E2
S1134FF0D018406830423FD190685D19D368C360CF
S1135000986063462B434B604D51A7E7142814D88E
S113501002005C305B32C000ACE701239210934085
S11350207A6813437B600300B2E72843D960996030
S1135030CB608B6048604D5190E7542805D8280B0D
S113504002006F306E32C00094E7AA2252009042F0
S113505005D8E80B020078307732C0008AE70E4AA0
S1135060904205D8A80C02007D307C32C00081E754
S1135070FE207E2280007DE763462B434B60156053
S11350806CE7C04634040020FF0100003C0400200B
S113509040080020F00A002054050000044B1B685F
S11350A0586B002801D0F03070470248FBE7C04637
S11350B000000020440800207047C0467047C046E6
S11350C0F0B557464546DE464E46E0B50D000B3575
S11350D083B00700162D00D89FE007239D4300D519
S11350E0C4E0A94200D9C1E000F020FBF823FF335B
S11350F09D4200D88FE2680A00D1BBE0042800D9A1
S113510062E138239846A80980443930C100D24E60
S113511071180839CC68A14219D0032362689A43F4
S11351201300521B0F2A00DDAAE0002A00DB88E0EE
S113513003239C4608E06246636893435A1B0F2A84
S113514000DD9DE0002A7CDAE468A142F3D132005C
S113515034690832944200D190E103236168994391
S11351608946491B0F2900DD62E172613261002921
S113517000DB87E0B94A4B46914500D930E1DB08B2
S1135180FF3A9910FF3A8A40DB0071689B190A4381
S113519099687260E360A1609C601300CC60012197
S11351A08210914099426FD80B4205D1032290435B
S11351B0490004300B42FBD003239846C3009946B0
S11351C0B144CC4682466346DC68A44507D157E126
S11351D0002A00DB66E1E468A44500D150E14246C0
S11351E0636893435A1B0F2AF2DD0120804661193C
S11351F005436560A068E5680836C560A860404658
S1135200F160B16010434860CE608E603800E250B7
S113521000F094FA2000083021E0102926D8380044
S113522000F084FA1025182302208B4EF3181A007C
S11352305C68083A944200D12EE1032362689A43E1
S11352401300E268A168CA6091600122E3185968FA
S113525038000A435A6000F071FA2000083003B0A5
S11352603CBC90469946A246AB46F0BD0C230020B8
S11352703B60F4E780213F2340208900984646E7BD
S1135280404664E74B46E0E70323B46862689A4308
S11352909046AA4203D3531B0F2B00DD86E0230064
S11352A043446F4A01936F4B93461B681268EB1893
S11352B0013200D168E16C4A944663441B0B1B0322
S11352C000930099380000F089FD03008146013302
S11352D061D0019B834200D9FFE0644B009A9A4657
S11352E01B689C46534662441A60019B110083422A
S11352F000D155E15B461B68013300D16CE14B469C
S1135300019A9B1A59185346196007234A461340B9
S113531000D124E1082189465549D21A9144CB1A77
S1135320009A38004A441105090D5B1A19009B467E
S113533000F054FD431C00D142E14B46C01A012346
S11353405844184353461B685B441900534619607C
S11353504B46B3605860B44213D043460F2B00D879
S1135360E8E04346072260680C3B9343063A024058
S113537005201A436260E218506090600F2B00D938
S113538022E13C4B1A68914200D919603A4B1A68E1
S1135390914200D919600323B46862689A43531B8D
S11353A0954200D9C9E00F2B00DCC6E00122290098
S11353B013431143651961603800B5606B6000F0F8
S11353C0BDF9200008304AE714287AD9542800D9B6
S11353D0BAE06E239846280B80446F30C10096E6ED
S11353E05A0A042A73D9142A00D9D0E011005C3275
S11353F05B31D20008235B429C46B2189444634656
S11354009A6803239846944500D1ABE0434651681B
S11354109943894500D395E092689445F6D1634653
S1135420DA6873686146E260A1609460CC60B6E6B5
S1135430012360191D43656070613061C260826040
S11354401A004B460A4342603800E15000F076F9F6
S11354502000083003E7C04634040020FF010000A8
S11354603C080020F00A00200F100000C00A0020B1
S113547008100000E80A0020EC0A002073688EE699
S113548008239B46073BDC449B46DA44434652468A
S1135490134200D097E637E0DC680230A34200D123
S11354A055E6CAE60122E318596838000A435A60EF
S11354B0E368A268D3609A6000F040F920000830E5
S11354C0CDE65B23984680445C30C1001FE69A0910
S11354D0110039323831D2008CE7B44200D05AE797
S11354E04F4B009A9A461B689C46534662441100EF
S11354F01A60FFE608235B429C46E1444B469B68E6
S11355000138994500D084E043460342F2D17368E0
S11355108B4373604900994200D9B5E6002900D154
S1135520B2E650460B4200D048E6490004300B4234
S1135530FBD043E601234A465360380000F0FEF8EE
S113554000208CE694466AE7AA235B00984211D8AF
S1135550DD3B9846E80B80447830C100D7E58023D2
S11355605B01DDE68910023B8B4072681343736074
S1135570624657E72B4B98421CD87C239846A80CCC
S113558080447D30C100C2E51033009399E6542A6B
S113559026D84B461A0B11006F326E31D20029E720
S11355A01B0500D0A6E60120009BB26843440343D8
S11355B05360E6E6FE217E237F2089009846A6E517
S11355C0002301209B46BDE6210038000831FFF787
S11355D087FC53461968D4E65B464A461A6094E64B
S11355E0AA2149008A4206D84B46DA0B11007832C8
S11355F07731D200FEE60B498A4206D84B469A0C14
S113560011007D327C31D200F4E6FE227E2192002C
S1135610F0E673687EE72B00E808083305E6C04629
S1135620C00A00205405000070B5CDB2830734D001
S1135630541E002A1BD00378AB4219D0032204E085
S1135640013C14D30378AB4212D001301042F7D19D
S1135650032C0ED8002C0AD00378AB4208D00419CE
S113566002E00378AB4203D001308442F9D1002038
S113567070BDFF220B061B0C114019430B04084E8E
S113568019430368074A4B409A189A433242E3D1BC
S1135690043C0430032CF4D8DCE71400D8E7C046FB
S11356A080808080FFFEFEFEF0B505000F2A2FD912
S11356B00B0003439B0734D116000C000300103E7B
S11356C0350901352D01451927681F6067685F603A
S11356D0A7689F60E7681034DF6010339D42F3D100
S11356E00F239E431036851989191340032B1AD9A9
S11356F01E1F0023B4080134A400CF58EF50043314
S1135700A342FAD10324A643331D2240C918ED183D
S1135710002A05D00023CC5CEC5401339342FAD127
S1135720F0BD0500F6E71A00F2E7C04610B50248DE
S1135730FFF7C2FC10BDC046300B002010B5024874
S1135740FFF7BCFC10BDC046300B002070B5040050
S1135750C06C0D0000280AD0AB00C31818680028DC
S11357600FD002681A6000230361C36070BD212258
S11357700421200001F0C2FEE0640028ECD10020E6
S1135780F4E70126AE40721D92000121200001F0D1
S1135790B5FE0028F3D045608660E4E7002906D012
S11357A04B689A00C36C9B181A680A6019607047AA
S11357B0F8B5CE4647468146080080B50D000C6911
S11357C01F0000211430036801311E04360C5643B7
S11357D01B0C5343F619370CDB1936041F0C360C1B
S11357E01B049B1908C08C42EDDC002F08D0AB6869
S11357F09C420ADA231D9B00EB1801345F602C6184
S113580028000CBC90469946F8BD6B684846591C64
S1135810FFF79CFF29002B6980469A1C92000C31EB
S11358200C30FFF741FF6B689A004B46DB6C9B180A
S11358301A682A601D604546DCE7C0460300020C76
S11358400020002A01D11B0410301A0E01D10830A7
S11358501B021A0F01D104301B019A0F01D102302F
S11358609B00002B03DB01305B0000D42020704739
S113587003685A0709D00022D90704D49A0720D410
S113588002229B08036010007047190400220029BB
S113589001D11B0C1032FF21194201D108321B0A1D
S11358A0190701D104321B09990701D102329B085F
S11358B0D90704D45B0801D12022E4E70132036054
S11358C0E1E75B0803600122DDE7C04610B50C0088
S11358D00121FFF73BFF01234461036110BDC04672
S11358E0F0B557464E464546DE46E0B514690E69A6
S11358F085B00F001500A64204DA33001700260015
S11359000D001C0033199846BB687968984500DD82
S11359100131FFF71BFF14220300944663449B46A6
S113592043469B005B441900029303905B460022AC
S11359308B4503D2029904C39942FCD81423A400D2
S11359409A4614372300BC46AA44B6005344009731
S1135950B44401939A454FD253461B681E04360C37
S113596020D05C460027009D210008CC04CD994638
S1135970484613041B0C73430004000C1B18D8196D
S1135980130C4A467343120C9B18020C9B18020416
S11359901F0C120C1B0413430B60AC45E4D8534694
S11359A027601B681E0C20D05B4600211B685C46E8
S11359B018000F006246009D2988000C71430918E5
S11359C0C9191B0408041B0C0343236008CD606839
S11359D01B0C734307043F0CDB19090C5B181F0CE9
S11359E00434AA42E8D89446236004239946019BD0
S11359F0CA44CB445345AFD84346002B0EDD029B2B
S1135A00043B1A68002A09D1424603E0043B1968A2
S1135A10002902D1013A002AF8D19046039B42465C
S1135A2018001A6105B03CBC90469946A246AB46A4
S1135A30F0BDC046F8B54746CE46032380B5804640
S1135A400F00140013403AD1A4103E00002C25D0BE
S1135A5043469D6C002D3BD03E0000230127994610
S1135A60274207D1641019D0286800281BD00500EC
S1135A702742F7D02A0031004046FFF731FF002EBD
S1135A801BD04246D26C736894469B0063441A68E8
S1135A90641032601E600600002CE5D130000CBC9E
S1135AA090469946F8BD2A0029004046FFF718FFA2
S1135AB04B46286003600500DAE70600D2E70B4A8C
S1135AC0013B9B009A580023FFF772FE0700BBE7D7
S1135AD001214046FFF73AFE054B050043610123CF
S1135AE003614346986400230360B5E720890000FE
S1135AF071020000F8B54E464546DE465746E0B50D
S1135B000E00336954119846A04443465D1CB368A3
S1135B108346914649689D4203DD01315B009D4205
S1135B20FBDC5846FFF712FE030084461433002CB6
S1135B3006DD0021A4001A001B1902C29342FCD105
S1135B4032694846970031001F2214311040CF19A2
S1135B508146002825D02022121A92460022484667
S1135B600C688440504614431C6004C90433C2408A
S1135B708F42F4D81A60002A01D0454602356346A4
S1135B80013D1D61736860469A005B46DB6C9B189F
S1135B901A6832601E603CBC90469946A246AB46E9
S1135BA0F8BD04C904C38F42E9D904C904C38F42B0
S1135BB0F7D8E4E70A69036930B50500981A11D1EA
S1135BC0920014351431AB18891801E09D4209D2B2
S1135BD0043B04391C680A689442F7D0944280411B
S1135BE00122104330BDC046F8B54546DE4657464F
S1135BF04E4614000B691269E0B588469D1A1AD105
S1135C000F0014218C4692001437A444BB1862443C
S1135C1002E09F4200D370E0043B043A1E6811681E
S1135C208E42F6D000D371E043463E00A04667465C
S1135C301C00012506E0002D6ADB474626000025EE
S1135C401437143643465968FFF780FD43468146AE
S1135C50C56018694D4683009C462369BC449B007B
S1135C6098460023B04414359A4600E0270004CE39
S1135C703C009346594608CC09041A04120C5244B9
S1135C80090C521A190C5B461B0CCB1A11145B1825
S1135C9012041914120C1B048A461343291D2B6089
S1135CA00D00B045E2D8A44516D908CC1A04120C4C
S1135CB0524416141B0C9B1912041E14120C1B04C0
S1135CC01343B24608C5A445EFD862460324D21B49
S1135CD0053AA243043289180439002B04D104394B
